{
  "contractName": "CryptoPlant",
  "abi": [
    {
      "inputs": [],
      "stateMutability": "nonpayable",
      "type": "constructor"
    },
    {
      "anonymous": false,
      "inputs": [
        {
          "indexed": true,
          "internalType": "address",
          "name": "owner",
          "type": "address"
        },
        {
          "indexed": true,
          "internalType": "address",
          "name": "approved",
          "type": "address"
        },
        {
          "indexed": true,
          "internalType": "uint256",
          "name": "tokenId",
          "type": "uint256"
        }
      ],
      "name": "Approval",
      "type": "event"
    },
    {
      "anonymous": false,
      "inputs": [
        {
          "indexed": true,
          "internalType": "address",
          "name": "owner",
          "type": "address"
        },
        {
          "indexed": true,
          "internalType": "address",
          "name": "operator",
          "type": "address"
        },
        {
          "indexed": false,
          "internalType": "bool",
          "name": "approved",
          "type": "bool"
        }
      ],
      "name": "ApprovalForAll",
      "type": "event"
    },
    {
      "anonymous": false,
      "inputs": [
        {
          "indexed": true,
          "internalType": "bytes32",
          "name": "id",
          "type": "bytes32"
        }
      ],
      "name": "ChainlinkCancelled",
      "type": "event"
    },
    {
      "anonymous": false,
      "inputs": [
        {
          "indexed": true,
          "internalType": "bytes32",
          "name": "id",
          "type": "bytes32"
        }
      ],
      "name": "ChainlinkFulfilled",
      "type": "event"
    },
    {
      "anonymous": false,
      "inputs": [
        {
          "indexed": true,
          "internalType": "bytes32",
          "name": "id",
          "type": "bytes32"
        }
      ],
      "name": "ChainlinkRequested",
      "type": "event"
    },
    {
      "anonymous": false,
      "inputs": [
        {
          "indexed": false,
          "internalType": "address",
          "name": "account",
          "type": "address"
        }
      ],
      "name": "Paused",
      "type": "event"
    },
    {
      "anonymous": false,
      "inputs": [
        {
          "indexed": true,
          "internalType": "bytes32",
          "name": "role",
          "type": "bytes32"
        },
        {
          "indexed": true,
          "internalType": "bytes32",
          "name": "previousAdminRole",
          "type": "bytes32"
        },
        {
          "indexed": true,
          "internalType": "bytes32",
          "name": "newAdminRole",
          "type": "bytes32"
        }
      ],
      "name": "RoleAdminChanged",
      "type": "event"
    },
    {
      "anonymous": false,
      "inputs": [
        {
          "indexed": true,
          "internalType": "bytes32",
          "name": "role",
          "type": "bytes32"
        },
        {
          "indexed": true,
          "internalType": "address",
          "name": "account",
          "type": "address"
        },
        {
          "indexed": true,
          "internalType": "address",
          "name": "sender",
          "type": "address"
        }
      ],
      "name": "RoleGranted",
      "type": "event"
    },
    {
      "anonymous": false,
      "inputs": [
        {
          "indexed": true,
          "internalType": "bytes32",
          "name": "role",
          "type": "bytes32"
        },
        {
          "indexed": true,
          "internalType": "address",
          "name": "account",
          "type": "address"
        },
        {
          "indexed": true,
          "internalType": "address",
          "name": "sender",
          "type": "address"
        }
      ],
      "name": "RoleRevoked",
      "type": "event"
    },
    {
      "anonymous": false,
      "inputs": [
        {
          "indexed": true,
          "internalType": "address",
          "name": "from",
          "type": "address"
        },
        {
          "indexed": true,
          "internalType": "address",
          "name": "to",
          "type": "address"
        },
        {
          "indexed": true,
          "internalType": "uint256",
          "name": "tokenId",
          "type": "uint256"
        }
      ],
      "name": "Transfer",
      "type": "event"
    },
    {
      "anonymous": false,
      "inputs": [
        {
          "indexed": false,
          "internalType": "address",
          "name": "account",
          "type": "address"
        }
      ],
      "name": "Unpaused",
      "type": "event"
    },
    {
      "inputs": [],
      "name": "DEFAULT_ADMIN_ROLE",
      "outputs": [
        {
          "internalType": "bytes32",
          "name": "",
          "type": "bytes32"
        }
      ],
      "stateMutability": "view",
      "type": "function",
      "constant": true
    },
    {
      "inputs": [],
      "name": "MINTER_ROLE",
      "outputs": [
        {
          "internalType": "bytes32",
          "name": "",
          "type": "bytes32"
        }
      ],
      "stateMutability": "view",
      "type": "function",
      "constant": true
    },
    {
      "inputs": [],
      "name": "PAUSER_ROLE",
      "outputs": [
        {
          "internalType": "bytes32",
          "name": "",
          "type": "bytes32"
        }
      ],
      "stateMutability": "view",
      "type": "function",
      "constant": true
    },
    {
      "inputs": [
        {
          "internalType": "address",
          "name": "to",
          "type": "address"
        },
        {
          "internalType": "uint256",
          "name": "tokenId",
          "type": "uint256"
        }
      ],
      "name": "approve",
      "outputs": [],
      "stateMutability": "nonpayable",
      "type": "function"
    },
    {
      "inputs": [
        {
          "internalType": "address",
          "name": "owner",
          "type": "address"
        }
      ],
      "name": "balanceOf",
      "outputs": [
        {
          "internalType": "uint256",
          "name": "",
          "type": "uint256"
        }
      ],
      "stateMutability": "view",
      "type": "function",
      "constant": true
    },
    {
      "inputs": [],
      "name": "baseURI",
      "outputs": [
        {
          "internalType": "string",
          "name": "",
          "type": "string"
        }
      ],
      "stateMutability": "view",
      "type": "function",
      "constant": true
    },
    {
      "inputs": [
        {
          "internalType": "uint256",
          "name": "tokenId",
          "type": "uint256"
        }
      ],
      "name": "burn",
      "outputs": [],
      "stateMutability": "nonpayable",
      "type": "function"
    },
    {
      "inputs": [
        {
          "internalType": "uint256",
          "name": "tokenId",
          "type": "uint256"
        }
      ],
      "name": "getApproved",
      "outputs": [
        {
          "internalType": "address",
          "name": "",
          "type": "address"
        }
      ],
      "stateMutability": "view",
      "type": "function",
      "constant": true
    },
    {
      "inputs": [
        {
          "internalType": "bytes32",
          "name": "role",
          "type": "bytes32"
        }
      ],
      "name": "getRoleAdmin",
      "outputs": [
        {
          "internalType": "bytes32",
          "name": "",
          "type": "bytes32"
        }
      ],
      "stateMutability": "view",
      "type": "function",
      "constant": true
    },
    {
      "inputs": [
        {
          "internalType": "bytes32",
          "name": "role",
          "type": "bytes32"
        },
        {
          "internalType": "uint256",
          "name": "index",
          "type": "uint256"
        }
      ],
      "name": "getRoleMember",
      "outputs": [
        {
          "internalType": "address",
          "name": "",
          "type": "address"
        }
      ],
      "stateMutability": "view",
      "type": "function",
      "constant": true
    },
    {
      "inputs": [
        {
          "internalType": "bytes32",
          "name": "role",
          "type": "bytes32"
        }
      ],
      "name": "getRoleMemberCount",
      "outputs": [
        {
          "internalType": "uint256",
          "name": "",
          "type": "uint256"
        }
      ],
      "stateMutability": "view",
      "type": "function",
      "constant": true
    },
    {
      "inputs": [
        {
          "internalType": "bytes32",
          "name": "role",
          "type": "bytes32"
        },
        {
          "internalType": "address",
          "name": "account",
          "type": "address"
        }
      ],
      "name": "grantRole",
      "outputs": [],
      "stateMutability": "nonpayable",
      "type": "function"
    },
    {
      "inputs": [
        {
          "internalType": "bytes32",
          "name": "role",
          "type": "bytes32"
        },
        {
          "internalType": "address",
          "name": "account",
          "type": "address"
        }
      ],
      "name": "hasRole",
      "outputs": [
        {
          "internalType": "bool",
          "name": "",
          "type": "bool"
        }
      ],
      "stateMutability": "view",
      "type": "function",
      "constant": true
    },
    {
      "inputs": [
        {
          "internalType": "address",
          "name": "owner",
          "type": "address"
        },
        {
          "internalType": "address",
          "name": "operator",
          "type": "address"
        }
      ],
      "name": "isApprovedForAll",
      "outputs": [
        {
          "internalType": "bool",
          "name": "",
          "type": "bool"
        }
      ],
      "stateMutability": "view",
      "type": "function",
      "constant": true
    },
    {
      "inputs": [
        {
          "internalType": "address",
          "name": "to",
          "type": "address"
        }
      ],
      "name": "mint",
      "outputs": [],
      "stateMutability": "nonpayable",
      "type": "function"
    },
    {
      "inputs": [],
      "name": "name",
      "outputs": [
        {
          "internalType": "string",
          "name": "",
          "type": "string"
        }
      ],
      "stateMutability": "view",
      "type": "function",
      "constant": true
    },
    {
      "inputs": [],
      "name": "orgAddress",
      "outputs": [
        {
          "internalType": "address payable",
          "name": "",
          "type": "address"
        }
      ],
      "stateMutability": "view",
      "type": "function",
      "constant": true
    },
    {
      "inputs": [
        {
          "internalType": "uint256",
          "name": "tokenId",
          "type": "uint256"
        }
      ],
      "name": "ownerOf",
      "outputs": [
        {
          "internalType": "address",
          "name": "",
          "type": "address"
        }
      ],
      "stateMutability": "view",
      "type": "function",
      "constant": true
    },
    {
      "inputs": [],
      "name": "pause",
      "outputs": [],
      "stateMutability": "nonpayable",
      "type": "function"
    },
    {
      "inputs": [],
      "name": "paused",
      "outputs": [
        {
          "internalType": "bool",
          "name": "",
          "type": "bool"
        }
      ],
      "stateMutability": "view",
      "type": "function",
      "constant": true
    },
    {
      "inputs": [
        {
          "internalType": "bytes32",
          "name": "role",
          "type": "bytes32"
        },
        {
          "internalType": "address",
          "name": "account",
          "type": "address"
        }
      ],
      "name": "renounceRole",
      "outputs": [],
      "stateMutability": "nonpayable",
      "type": "function"
    },
    {
      "inputs": [
        {
          "internalType": "bytes32",
          "name": "role",
          "type": "bytes32"
        },
        {
          "internalType": "address",
          "name": "account",
          "type": "address"
        }
      ],
      "name": "revokeRole",
      "outputs": [],
      "stateMutability": "nonpayable",
      "type": "function"
    },
    {
      "inputs": [
        {
          "internalType": "address",
          "name": "from",
          "type": "address"
        },
        {
          "internalType": "address",
          "name": "to",
          "type": "address"
        },
        {
          "internalType": "uint256",
          "name": "tokenId",
          "type": "uint256"
        }
      ],
      "name": "safeTransferFrom",
      "outputs": [],
      "stateMutability": "nonpayable",
      "type": "function"
    },
    {
      "inputs": [
        {
          "internalType": "address",
          "name": "from",
          "type": "address"
        },
        {
          "internalType": "address",
          "name": "to",
          "type": "address"
        },
        {
          "internalType": "uint256",
          "name": "tokenId",
          "type": "uint256"
        },
        {
          "internalType": "bytes",
          "name": "_data",
          "type": "bytes"
        }
      ],
      "name": "safeTransferFrom",
      "outputs": [],
      "stateMutability": "nonpayable",
      "type": "function"
    },
    {
      "inputs": [
        {
          "internalType": "address",
          "name": "operator",
          "type": "address"
        },
        {
          "internalType": "bool",
          "name": "approved",
          "type": "bool"
        }
      ],
      "name": "setApprovalForAll",
      "outputs": [],
      "stateMutability": "nonpayable",
      "type": "function"
    },
    {
      "inputs": [
        {
          "internalType": "bytes4",
          "name": "interfaceId",
          "type": "bytes4"
        }
      ],
      "name": "supportsInterface",
      "outputs": [
        {
          "internalType": "bool",
          "name": "",
          "type": "bool"
        }
      ],
      "stateMutability": "view",
      "type": "function",
      "constant": true
    },
    {
      "inputs": [],
      "name": "symbol",
      "outputs": [
        {
          "internalType": "string",
          "name": "",
          "type": "string"
        }
      ],
      "stateMutability": "view",
      "type": "function",
      "constant": true
    },
    {
      "inputs": [
        {
          "internalType": "uint256",
          "name": "index",
          "type": "uint256"
        }
      ],
      "name": "tokenByIndex",
      "outputs": [
        {
          "internalType": "uint256",
          "name": "",
          "type": "uint256"
        }
      ],
      "stateMutability": "view",
      "type": "function",
      "constant": true
    },
    {
      "inputs": [
        {
          "internalType": "address",
          "name": "owner",
          "type": "address"
        },
        {
          "internalType": "uint256",
          "name": "index",
          "type": "uint256"
        }
      ],
      "name": "tokenOfOwnerByIndex",
      "outputs": [
        {
          "internalType": "uint256",
          "name": "",
          "type": "uint256"
        }
      ],
      "stateMutability": "view",
      "type": "function",
      "constant": true
    },
    {
      "inputs": [
        {
          "internalType": "uint256",
          "name": "tokenId",
          "type": "uint256"
        }
      ],
      "name": "tokenURI",
      "outputs": [
        {
          "internalType": "string",
          "name": "",
          "type": "string"
        }
      ],
      "stateMutability": "view",
      "type": "function",
      "constant": true
    },
    {
      "inputs": [],
      "name": "totalSupply",
      "outputs": [
        {
          "internalType": "uint256",
          "name": "",
          "type": "uint256"
        }
      ],
      "stateMutability": "view",
      "type": "function",
      "constant": true
    },
    {
      "inputs": [
        {
          "internalType": "address",
          "name": "from",
          "type": "address"
        },
        {
          "internalType": "address",
          "name": "to",
          "type": "address"
        },
        {
          "internalType": "uint256",
          "name": "tokenId",
          "type": "uint256"
        }
      ],
      "name": "transferFrom",
      "outputs": [],
      "stateMutability": "nonpayable",
      "type": "function"
    },
    {
      "inputs": [],
      "name": "unpause",
      "outputs": [],
      "stateMutability": "nonpayable",
      "type": "function"
    },
    {
      "inputs": [],
      "name": "volume",
      "outputs": [
        {
          "internalType": "uint256",
          "name": "",
          "type": "uint256"
        }
      ],
      "stateMutability": "view",
      "type": "function",
      "constant": true
    },
    {
      "stateMutability": "payable",
      "type": "receive",
      "payable": true
    },
    {
      "inputs": [],
      "name": "requestVolumeData",
      "outputs": [
        {
          "internalType": "bytes32",
          "name": "requestId",
          "type": "bytes32"
        }
      ],
      "stateMutability": "nonpayable",
      "type": "function"
    },
    {
      "inputs": [
        {
          "internalType": "bytes32",
          "name": "_requestId",
          "type": "bytes32"
        },
        {
          "internalType": "uint256",
          "name": "_volume",
          "type": "uint256"
        }
      ],
      "name": "fulfill",
      "outputs": [],
      "stateMutability": "nonpayable",
      "type": "function"
    },
    {
      "inputs": [],
      "name": "purchaseSeed",
      "outputs": [],
      "stateMutability": "payable",
      "type": "function",
      "payable": true
    }
  ],
  "bytecode": "0x608060405260016011553480156200001657600080fd5b506040518060400160405280600b81526020017f43727970746f506c616e740000000000000000000000000000000000000000008152506040518060400160405280600381526020017f43505400000000000000000000000000000000000000000000000000000000008152506040518060600160405280603b81526020016200534b603b91398282620000b76301ffc9a760e01b620002ee60201b60201c565b8160079080519060200190620000cf929190620005a9565b508060089080519060200190620000e8929190620005a9565b50620001016380ac58cd60e01b620002ee60201b60201c565b62000119635b5e139f60e01b620002ee60201b60201c565b6200013163780e9d6360e01b620002ee60201b60201c565b50506000600b60006101000a81548160ff021916908315150217905550620001726000801b62000166620003f760201b60201c565b620003ff60201b60201c565b620001b37f9f2df0fed2c77648de5860a4cc508cd0818c85b8b8a1ab4ceeef8d981c8956a6620001a7620003f760201b60201c565b620003ff60201b60201c565b620001f47f65d7a28e3265b37a6474929f336521b332c1681b933f6cb9f3376673440d862a620001e8620003f760201b60201c565b620003ff60201b60201c565b62000205816200041560201b60201c565b5050507342f323c617c0a6d18547b8a2aaf8bcd1abe617c9601460006101000a81548173ffffffffffffffffffffffffffffffffffffffff021916908373ffffffffffffffffffffffffffffffffffffffff160217905550732f90a6d021db21e1b2a077c5a37b3c7e75d15b7e601660006101000a81548173ffffffffffffffffffffffffffffffffffffffff021916908373ffffffffffffffffffffffffffffffffffffffff1602179055507f323966613961613133626631343638373838623763633461353030613435623860178190555067016345785d8a00006018819055506200064f565b63ffffffff60e01b817bffffffffffffffffffffffffffffffffffffffffffffffffffffffff191614156200038b576040517f08c379a000000000000000000000000000000000000000000000000000000000815260040180806020018281038252601c8152602001807f4552433136353a20696e76616c696420696e746572666163652069640000000081525060200191505060405180910390fd5b6001806000837bffffffffffffffffffffffffffffffffffffffffffffffffffffffff19167bffffffffffffffffffffffffffffffffffffffffffffffffffffffff1916815260200190815260200160002060006101000a81548160ff02191690831515021790555050565b600033905090565b6200041182826200043160201b60201c565b5050565b80600a90805190602001906200042d929190620005a9565b5050565b6200045f81600080858152602001908152602001600020600001620004d460201b6200239c1790919060201c565b15620004d05762000475620003f760201b60201c565b73ffffffffffffffffffffffffffffffffffffffff168173ffffffffffffffffffffffffffffffffffffffff16837f2f8788117e7eff1d82e926ec794901d17c78024a50270940304540a733656f0d60405160405180910390a45b5050565b600062000504836000018373ffffffffffffffffffffffffffffffffffffffff1660001b6200050c60201b60201c565b905092915050565b60006200052083836200058660201b60201c565b6200057b57826000018290806001815401808255809150506001900390600052602060002001600090919091909150558260000180549050836001016000848152602001908152602001600020819055506001905062000580565b600090505b92915050565b600080836001016000848152602001908152602001600020541415905092915050565b828054600181600116156101000203166002900490600052602060002090601f016020900481019282601f10620005ec57805160ff19168380011785556200061d565b828001600101855582156200061d579182015b828111156200061c578251825591602001919060010190620005ff565b5b5090506200062c919062000630565b5090565b5b808211156200064b57600081600090555060010162000631565b5090565b614cec806200065f6000396000f3fe60806040526004361061021e5760003560e01c80636352211e11610123578063a217fddf116100ab578063ca15c8731161006f578063ca15c87314610db3578063d539139314610e02578063d547741f14610e2d578063e63ab1e914610e88578063e985e9c514610eb357610225565b8063a217fddf14610b3a578063a22cb46514610b65578063b88d4fde14610bc2578063c618a1e414610cd4578063c87b56dd14610cff57610225565b8063797ea25d116100f2578063797ea25d146109725780638456cb59146109b35780639010d07c146109ca57806391d1485414610a3957806395d89b4114610aaa57610225565b80636352211e146107c75780636a6278421461082c5780636c0360eb1461087d57806370a082311461090d57610225565b806336568abe116101a657806342966c681161017557806342966c68146106a05780634357855e146106db5780634f6ccce7146107205780635c975abb1461076f5780636021abac1461079c57610225565b806336568abe146105a95780633f4ba83a1461060457806340e55f9b1461061b57806342842e0e1461062557610225565b806318160ddd116101ed57806318160ddd146103ea57806323b872dd14610415578063248a9ca3146104905780632f2ff15d146104df5780632f745c591461053a57610225565b806301ffc9a71461022a57806306fdde031461029a578063081812fc1461032a578063095ea7b31461038f57610225565b3661022557005b600080fd5b34801561023657600080fd5b506102826004803603602081101561024d57600080fd5b8101908080357bffffffffffffffffffffffffffffffffffffffffffffffffffffffff19169060200190929190505050610f3a565b60405180821515815260200191505060405180910390f35b3480156102a657600080fd5b506102af610fa2565b6040518080602001828103825283818151815260200191508051906020019080838360005b838110156102ef5780820151818401526020810190506102d4565b50505050905090810190601f16801561031c5780820380516001836020036101000a031916815260200191505b509250505060405180910390f35b34801561033657600080fd5b506103636004803603602081101561034d57600080fd5b8101908080359060200190929190505050611044565b604051808273ffffffffffffffffffffffffffffffffffffffff16815260200191505060405180910390f35b34801561039b57600080fd5b506103e8600480360360408110156103b257600080fd5b81019080803573ffffffffffffffffffffffffffffffffffffffff169060200190929190803590602001909291905050506110df565b005b3480156103f657600080fd5b506103ff611223565b6040518082815260200191505060405180910390f35b34801561042157600080fd5b5061048e6004803603606081101561043857600080fd5b81019080803573ffffffffffffffffffffffffffffffffffffffff169060200190929190803573ffffffffffffffffffffffffffffffffffffffff16906020019092919080359060200190929190505050611234565b005b34801561049c57600080fd5b506104c9600480360360208110156104b357600080fd5b81019080803590602001909291905050506112aa565b6040518082815260200191505060405180910390f35b3480156104eb57600080fd5b506105386004803603604081101561050257600080fd5b8101908080359060200190929190803573ffffffffffffffffffffffffffffffffffffffff1690602001909291905050506112c9565b005b34801561054657600080fd5b506105936004803603604081101561055d57600080fd5b81019080803573ffffffffffffffffffffffffffffffffffffffff16906020019092919080359060200190929190505050611352565b6040518082815260200191505060405180910390f35b3480156105b557600080fd5b50610602600480360360408110156105cc57600080fd5b8101908080359060200190929190803573ffffffffffffffffffffffffffffffffffffffff1690602001909291905050506113ad565b005b34801561061057600080fd5b50610619611446565b005b6106236114d6565b005b34801561063157600080fd5b5061069e6004803603606081101561064857600080fd5b81019080803573ffffffffffffffffffffffffffffffffffffffff169060200190929190803573ffffffffffffffffffffffffffffffffffffffff16906020019092919080359060200190929190505050611576565b005b3480156106ac57600080fd5b506106d9600480360360208110156106c357600080fd5b8101908080359060200190929190505050611596565b005b3480156106e757600080fd5b5061071e600480360360408110156106fe57600080fd5b810190808035906020019092919080359060200190929190505050611608565b005b34801561072c57600080fd5b506107596004803603602081101561074357600080fd5b810190808035906020019092919050505061172f565b6040518082815260200191505060405180910390f35b34801561077b57600080fd5b50610784611752565b60405180821515815260200191505060405180910390f35b3480156107a857600080fd5b506107b1611769565b6040518082815260200191505060405180910390f35b3480156107d357600080fd5b50610800600480360360208110156107ea57600080fd5b81019080803590602001909291905050506118f7565b604051808273ffffffffffffffffffffffffffffffffffffffff16815260200191505060405180910390f35b34801561083857600080fd5b5061087b6004803603602081101561084f57600080fd5b81019080803573ffffffffffffffffffffffffffffffffffffffff16906020019092919050505061192e565b005b34801561088957600080fd5b506108926119d4565b6040518080602001828103825283818151815260200191508051906020019080838360005b838110156108d25780820151818401526020810190506108b7565b50505050905090810190601f1680156108ff5780820380516001836020036101000a031916815260200191505b509250505060405180910390f35b34801561091957600080fd5b5061095c6004803603602081101561093057600080fd5b81019080803573ffffffffffffffffffffffffffffffffffffffff169060200190929190505050611a76565b6040518082815260200191505060405180910390f35b34801561097e57600080fd5b50610987611b4b565b604051808273ffffffffffffffffffffffffffffffffffffffff16815260200191505060405180910390f35b3480156109bf57600080fd5b506109c8611b71565b005b3480156109d657600080fd5b50610a0d600480360360408110156109ed57600080fd5b810190808035906020019092919080359060200190929190505050611c01565b604051808273ffffffffffffffffffffffffffffffffffffffff16815260200191505060405180910390f35b348015610a4557600080fd5b50610a9260048036036040811015610a5c57600080fd5b8101908080359060200190929190803573ffffffffffffffffffffffffffffffffffffffff169060200190929190505050611c32565b60405180821515815260200191505060405180910390f35b348015610ab657600080fd5b50610abf611c63565b6040518080602001828103825283818151815260200191508051906020019080838360005b83811015610aff578082015181840152602081019050610ae4565b50505050905090810190601f168015610b2c5780820380516001836020036101000a031916815260200191505b509250505060405180910390f35b348015610b4657600080fd5b50610b4f611d05565b6040518082815260200191505060405180910390f35b348015610b7157600080fd5b50610bc060048036036040811015610b8857600080fd5b81019080803573ffffffffffffffffffffffffffffffffffffffff169060200190929190803515159060200190929190505050611d0c565b005b348015610bce57600080fd5b50610cd260048036036080811015610be557600080fd5b81019080803573ffffffffffffffffffffffffffffffffffffffff169060200190929190803573ffffffffffffffffffffffffffffffffffffffff1690602001909291908035906020019092919080359060200190640100000000811115610c4c57600080fd5b820183602082011115610c5e57600080fd5b80359060200191846001830284011164010000000083111715610c8057600080fd5b91908080601f016020809104026020016040519081016040528093929190818152602001838380828437600081840152601f19601f820116905080830192505050505050509192919290505050611ec2565b005b348015610ce057600080fd5b50610ce9611f3a565b6040518082815260200191505060405180910390f35b348015610d0b57600080fd5b50610d3860048036036020811015610d2257600080fd5b8101908080359060200190929190505050611f40565b6040518080602001828103825283818151815260200191508051906020019080838360005b83811015610d78578082015181840152602081019050610d5d565b50505050905090810190601f168015610da55780820380516001836020036101000a031916815260200191505b509250505060405180910390f35b348015610dbf57600080fd5b50610dec60048036036020811015610dd657600080fd5b8101908080359060200190929190505050612211565b6040518082815260200191505060405180910390f35b348015610e0e57600080fd5b50610e17612237565b6040518082815260200191505060405180910390f35b348015610e3957600080fd5b50610e8660048036036040811015610e5057600080fd5b8101908080359060200190929190803573ffffffffffffffffffffffffffffffffffffffff16906020019092919050505061225b565b005b348015610e9457600080fd5b50610e9d6122e4565b6040518082815260200191505060405180910390f35b348015610ebf57600080fd5b50610f2260048036036040811015610ed657600080fd5b81019080803573ffffffffffffffffffffffffffffffffffffffff169060200190929190803573ffffffffffffffffffffffffffffffffffffffff169060200190929190505050612308565b60405180821515815260200191505060405180910390f35b600060016000837bffffffffffffffffffffffffffffffffffffffffffffffffffffffff19167bffffffffffffffffffffffffffffffffffffffffffffffffffffffff1916815260200190815260200160002060009054906101000a900460ff169050919050565b606060078054600181600116156101000203166002900480601f01602080910402602001604051908101604052809291908181526020018280546001816001161561010002031660029004801561103a5780601f1061100f5761010080835404028352916020019161103a565b820191906000526020600020905b81548152906001019060200180831161101d57829003601f168201915b5050505050905090565b600061104f826123cc565b6110a4576040517f08c379a000000000000000000000000000000000000000000000000000000000815260040180806020018281038252602c815260200180614a94602c913960400191505060405180910390fd5b6005600083815260200190815260200160002060009054906101000a900473ffffffffffffffffffffffffffffffffffffffff169050919050565b60006110ea826118f7565b90508073ffffffffffffffffffffffffffffffffffffffff168373ffffffffffffffffffffffffffffffffffffffff161415611171576040517f08c379a0000000000000000000000000000000000000000000000000000000008152600401808060200182810382526021815260200180614b186021913960400191505060405180910390fd5b8073ffffffffffffffffffffffffffffffffffffffff166111906123e9565b73ffffffffffffffffffffffffffffffffffffffff1614806111bf57506111be816111b96123e9565b612308565b5b611214576040517f08c379a00000000000000000000000000000000000000000000000000000000081526004018080602001828103825260388152602001806149e76038913960400191505060405180910390fd5b61121e83836123f1565b505050565b600061122f60036124aa565b905090565b61124561123f6123e9565b826124bf565b61129a576040517f08c379a0000000000000000000000000000000000000000000000000000000008152600401808060200182810382526031815260200180614b396031913960400191505060405180910390fd5b6112a58383836125b3565b505050565b6000806000838152602001908152602001600020600201549050919050565b6112ef600080848152602001908152602001600020600201546112ea6123e9565b611c32565b611344576040517f08c379a000000000000000000000000000000000000000000000000000000000815260040180806020018281038252602f81526020018061487f602f913960400191505060405180910390fd5b61134e82826127f6565b5050565b60006113a582600260008673ffffffffffffffffffffffffffffffffffffffff1673ffffffffffffffffffffffffffffffffffffffff16815260200190815260200160002061288990919063ffffffff16565b905092915050565b6113b56123e9565b73ffffffffffffffffffffffffffffffffffffffff168173ffffffffffffffffffffffffffffffffffffffff1614611438576040517f08c379a000000000000000000000000000000000000000000000000000000000815260040180806020018281038252602f815260200180614c88602f913960400191505060405180910390fd5b61144282826128a3565b5050565b6114777f65d7a28e3265b37a6474929f336521b332c1681b933f6cb9f3376673440d862a6114726123e9565b611c32565b6114cc576040517f08c379a0000000000000000000000000000000000000000000000000000000008152600401808060200182810382526040815260200180614bff6040913960400191505060405180910390fd5b6114d4612936565b565b6509184e72a00034146114e857600080fd5b601460009054906101000a900473ffffffffffffffffffffffffffffffffffffffff1673ffffffffffffffffffffffffffffffffffffffff166108fc6508a3e42018009081150290604051600060405180830381858888f19350505050158015611556573d6000803e3d6000fd5b5061156a336115656013612a21565b612a2f565b6115746013612c23565b565b61159183838360405180602001604052806000815250611ec2565b505050565b6115a76115a16123e9565b826124bf565b6115fc576040517f08c379a0000000000000000000000000000000000000000000000000000000008152600401808060200182810382526030815260200180614bcf6030913960400191505060405180910390fd5b61160581612c39565b50565b816012600082815260200190815260200160002060009054906101000a900473ffffffffffffffffffffffffffffffffffffffff1673ffffffffffffffffffffffffffffffffffffffff163373ffffffffffffffffffffffffffffffffffffffff16146116c0576040517f08c379a0000000000000000000000000000000000000000000000000000000008152600401808060200182810382526028815260200180614b6a6028913960400191505060405180910390fd5b6012600082815260200190815260200160002060006101000a81549073ffffffffffffffffffffffffffffffffffffffff0219169055807f7cc135e0cebb02c3480ae5d74d377283180a2601f8f644edf7987b009316c63a60405160405180910390a281601581905550505050565b600080611746836003612d7390919063ffffffff16565b50905080915050919050565b6000600b60009054906101000a900460ff16905090565b6000611773614745565b61178760175430634357855e60e01b612d9f565b90506117eb6040518060400160405280600381526020017f6765740000000000000000000000000000000000000000000000000000000000815250604051806080016040528060498152602001614c3f6049913983612dd09092919063ffffffff16565b61186a6040518060400160405280600481526020017f70617468000000000000000000000000000000000000000000000000000000008152506040518060400160405280601881526020017f5241572e4554482e5553442e564f4c554d453234484f5552000000000000000081525083612dd09092919063ffffffff16565b6000670de0b6b3a764000090506118c16040518060400160405280600581526020017f74696d65730000000000000000000000000000000000000000000000000000008152508284612e039092919063ffffffff16565b6118f0601660009054906101000a900473ffffffffffffffffffffffffffffffffffffffff1683601854612e36565b9250505090565b600061192782604051806060016040528060298152602001614a496029913960036130bf9092919063ffffffff16565b9050919050565b61195f7f9f2df0fed2c77648de5860a4cc508cd0818c85b8b8a1ab4ceeef8d981c8956a661195a6123e9565b611c32565b6119b4576040517f08c379a000000000000000000000000000000000000000000000000000000000815260040180806020018281038252603d815260200180614b92603d913960400191505060405180910390fd5b6119c7816119c2600c612a21565b612a2f565b6119d1600c612c23565b50565b6060600a8054600181600116156101000203166002900480601f016020809104026020016040519081016040528092919081815260200182805460018160011615610100020316600290048015611a6c5780601f10611a4157610100808354040283529160200191611a6c565b820191906000526020600020905b815481529060010190602001808311611a4f57829003601f168201915b5050505050905090565b60008073ffffffffffffffffffffffffffffffffffffffff168273ffffffffffffffffffffffffffffffffffffffff161415611afd576040517f08c379a000000000000000000000000000000000000000000000000000000000815260040180806020018281038252602a815260200180614a1f602a913960400191505060405180910390fd5b611b44600260008473ffffffffffffffffffffffffffffffffffffffff1673ffffffffffffffffffffffffffffffffffffffff1681526020019081526020016000206130de565b9050919050565b601460009054906101000a900473ffffffffffffffffffffffffffffffffffffffff1681565b611ba27f65d7a28e3265b37a6474929f336521b332c1681b933f6cb9f3376673440d862a611b9d6123e9565b611c32565b611bf7576040517f08c379a000000000000000000000000000000000000000000000000000000000815260040180806020018281038252603e815260200180614903603e913960400191505060405180910390fd5b611bff6130f3565b565b6000611c2a826000808681526020019081526020016000206000016131df90919063ffffffff16565b905092915050565b6000611c5b826000808681526020019081526020016000206000016131f990919063ffffffff16565b905092915050565b606060088054600181600116156101000203166002900480601f016020809104026020016040519081016040528092919081815260200182805460018160011615610100020316600290048015611cfb5780601f10611cd057610100808354040283529160200191611cfb565b820191906000526020600020905b815481529060010190602001808311611cde57829003601f168201915b5050505050905090565b6000801b81565b611d146123e9565b73ffffffffffffffffffffffffffffffffffffffff168273ffffffffffffffffffffffffffffffffffffffff161415611db5576040517f08c379a00000000000000000000000000000000000000000000000000000000081526004018080602001828103825260198152602001807f4552433732313a20617070726f766520746f2063616c6c65720000000000000081525060200191505060405180910390fd5b8060066000611dc26123e9565b73ffffffffffffffffffffffffffffffffffffffff1673ffffffffffffffffffffffffffffffffffffffff16815260200190815260200160002060008473ffffffffffffffffffffffffffffffffffffffff1673ffffffffffffffffffffffffffffffffffffffff16815260200190815260200160002060006101000a81548160ff0219169083151502179055508173ffffffffffffffffffffffffffffffffffffffff16611e6f6123e9565b73ffffffffffffffffffffffffffffffffffffffff167f17307eab39ab6107e8899845ad3d59bd9653f200f220920489ca2b5937696c318360405180821515815260200191505060405180910390a35050565b611ed3611ecd6123e9565b836124bf565b611f28576040517f08c379a0000000000000000000000000000000000000000000000000000000008152600401808060200182810382526031815260200180614b396031913960400191505060405180910390fd5b611f3484848484613229565b50505050565b60155481565b6060611f4b826123cc565b611fa0576040517f08c379a000000000000000000000000000000000000000000000000000000000815260040180806020018281038252602f815260200180614ae9602f913960400191505060405180910390fd5b6060600960008481526020019081526020016000208054600181600116156101000203166002900480601f0160208091040260200160405190810160405280929190818152602001828054600181600116156101000203166002900480156120495780601f1061201e57610100808354040283529160200191612049565b820191906000526020600020905b81548152906001019060200180831161202c57829003601f168201915b50505050509050606061205a6119d4565b905060008151141561207057819250505061220c565b6000825111156121415780826040516020018083805190602001908083835b602083106120b2578051825260208201915060208101905060208303925061208f565b6001836020036101000a03801982511681845116808217855250505050505090500182805190602001908083835b6020831061210357805182526020820191506020810190506020830392506120e0565b6001836020036101000a038019825116818451168082178552505050505050905001925050506040516020818303038152906040529250505061220c565b8061214b8561329b565b6040516020018083805190602001908083835b60208310612181578051825260208201915060208101905060208303925061215e565b6001836020036101000a03801982511681845116808217855250505050505090500182805190602001908083835b602083106121d257805182526020820191506020810190506020830392506121af565b6001836020036101000a03801982511681845116808217855250505050505090500192505050604051602081830303815290604052925050505b919050565b60006122306000808481526020019081526020016000206000016133e2565b9050919050565b7f9f2df0fed2c77648de5860a4cc508cd0818c85b8b8a1ab4ceeef8d981c8956a681565b6122816000808481526020019081526020016000206002015461227c6123e9565b611c32565b6122d6576040517f08c379a00000000000000000000000000000000000000000000000000000000081526004018080602001828103825260308152602001806149b76030913960400191505060405180910390fd5b6122e082826128a3565b5050565b7f65d7a28e3265b37a6474929f336521b332c1681b933f6cb9f3376673440d862a81565b6000600660008473ffffffffffffffffffffffffffffffffffffffff1673ffffffffffffffffffffffffffffffffffffffff16815260200190815260200160002060008373ffffffffffffffffffffffffffffffffffffffff1673ffffffffffffffffffffffffffffffffffffffff16815260200190815260200160002060009054906101000a900460ff16905092915050565b60006123c4836000018373ffffffffffffffffffffffffffffffffffffffff1660001b6133f7565b905092915050565b60006123e282600361346790919063ffffffff16565b9050919050565b600033905090565b816005600083815260200190815260200160002060006101000a81548173ffffffffffffffffffffffffffffffffffffffff021916908373ffffffffffffffffffffffffffffffffffffffff160217905550808273ffffffffffffffffffffffffffffffffffffffff16612464836118f7565b73ffffffffffffffffffffffffffffffffffffffff167f8c5be1e5ebec7d5bd14f71427d1e84f3dd0314c0f7b2291e5b200ac8c7c3b92560405160405180910390a45050565b60006124b882600001613481565b9050919050565b60006124ca826123cc565b61251f576040517f08c379a000000000000000000000000000000000000000000000000000000000815260040180806020018281038252602c81526020018061498b602c913960400191505060405180910390fd5b600061252a836118f7565b90508073ffffffffffffffffffffffffffffffffffffffff168473ffffffffffffffffffffffffffffffffffffffff16148061259957508373ffffffffffffffffffffffffffffffffffffffff1661258184611044565b73ffffffffffffffffffffffffffffffffffffffff16145b806125aa57506125a98185612308565b5b91505092915050565b8273ffffffffffffffffffffffffffffffffffffffff166125d3826118f7565b73ffffffffffffffffffffffffffffffffffffffff161461263f576040517f08c379a0000000000000000000000000000000000000000000000000000000008152600401808060200182810382526029815260200180614ac06029913960400191505060405180910390fd5b600073ffffffffffffffffffffffffffffffffffffffff168273ffffffffffffffffffffffffffffffffffffffff1614156126c5576040517f08c379a00000000000000000000000000000000000000000000000000000000081526004018080602001828103825260248152602001806149416024913960400191505060405180910390fd5b6126d0838383613492565b6126db6000826123f1565b61272c81600260008673ffffffffffffffffffffffffffffffffffffffff1673ffffffffffffffffffffffffffffffffffffffff1681526020019081526020016000206134a290919063ffffffff16565b5061277e81600260008573ffffffffffffffffffffffffffffffffffffffff1673ffffffffffffffffffffffffffffffffffffffff1681526020019081526020016000206134bc90919063ffffffff16565b50612795818360036134d69092919063ffffffff16565b50808273ffffffffffffffffffffffffffffffffffffffff168473ffffffffffffffffffffffffffffffffffffffff167fddf252ad1be2c89b69c2b068fc378daa952ba7f163c4a11628f55a4df523b3ef60405160405180910390a4505050565b61281d8160008085815260200190815260200160002060000161239c90919063ffffffff16565b156128855761282a6123e9565b73ffffffffffffffffffffffffffffffffffffffff168173ffffffffffffffffffffffffffffffffffffffff16837f2f8788117e7eff1d82e926ec794901d17c78024a50270940304540a733656f0d60405160405180910390a45b5050565b6000612898836000018361350b565b60001c905092915050565b6128ca8160008085815260200190815260200160002060000161358e90919063ffffffff16565b15612932576128d76123e9565b73ffffffffffffffffffffffffffffffffffffffff168173ffffffffffffffffffffffffffffffffffffffff16837ff6391f5c32d9c69d2a47ea670b442974b53935d1edc7fd64eb21e047a839171b60405160405180910390a45b5050565b61293e611752565b6129b0576040517f08c379a00000000000000000000000000000000000000000000000000000000081526004018080602001828103825260148152602001807f5061757361626c653a206e6f742070617573656400000000000000000000000081525060200191505060405180910390fd5b6000600b60006101000a81548160ff0219169083151502179055507f5db9ee0a495bf2e6ff9c91a7834c1ba4fdd244a5e8aa4e537bd38aeae4b073aa6129f46123e9565b604051808273ffffffffffffffffffffffffffffffffffffffff16815260200191505060405180910390a1565b600081600001549050919050565b600073ffffffffffffffffffffffffffffffffffffffff168273ffffffffffffffffffffffffffffffffffffffff161415612ad2576040517f08c379a00000000000000000000000000000000000000000000000000000000081526004018080602001828103825260208152602001807f4552433732313a206d696e7420746f20746865207a65726f206164647265737381525060200191505060405180910390fd5b612adb816123cc565b15612b4e576040517f08c379a000000000000000000000000000000000000000000000000000000000815260040180806020018281038252601c8152602001807f4552433732313a20746f6b656e20616c7265616479206d696e7465640000000081525060200191505060405180910390fd5b612b5a60008383613492565b612bab81600260008573ffffffffffffffffffffffffffffffffffffffff1673ffffffffffffffffffffffffffffffffffffffff1681526020019081526020016000206134bc90919063ffffffff16565b50612bc2818360036134d69092919063ffffffff16565b50808273ffffffffffffffffffffffffffffffffffffffff16600073ffffffffffffffffffffffffffffffffffffffff167fddf252ad1be2c89b69c2b068fc378daa952ba7f163c4a11628f55a4df523b3ef60405160405180910390a45050565b6001816000016000828254019250508190555050565b6000612c44826118f7565b9050612c5281600084613492565b612c5d6000836123f1565b60006009600084815260200190815260200160002080546001816001161561010002031660029004905014612cac57600960008381526020019081526020016000206000612cab91906147b2565b5b612cfd82600260008473ffffffffffffffffffffffffffffffffffffffff1673ffffffffffffffffffffffffffffffffffffffff1681526020019081526020016000206134a290919063ffffffff16565b50612d128260036135be90919063ffffffff16565b5081600073ffffffffffffffffffffffffffffffffffffffff168273ffffffffffffffffffffffffffffffffffffffff167fddf252ad1be2c89b69c2b068fc378daa952ba7f163c4a11628f55a4df523b3ef60405160405180910390a45050565b600080600080612d8686600001866135d8565b915091508160001c8160001c9350935050509250929050565b612da7614745565b612daf614745565b612dc685858584613671909392919063ffffffff16565b9150509392505050565b612de782846080015161372190919063ffffffff16565b612dfe81846080015161372190919063ffffffff16565b505050565b612e1a82846080015161372190919063ffffffff16565b612e3181846080015161374690919063ffffffff16565b505050565b600030601154604051602001808373ffffffffffffffffffffffffffffffffffffffff1660601b815260140182815260200192505050604051602081830303815290604052805190602001209050601154836060018181525050836012600083815260200190815260200160002060006101000a81548173ffffffffffffffffffffffffffffffffffffffff021916908373ffffffffffffffffffffffffffffffffffffffff160217905550807fb5e6e01e79f91267dc17b4e6314d5d4d03593d2ceee0fbb452b750bd70ea5af960405160405180910390a2600f60009054906101000a900473ffffffffffffffffffffffffffffffffffffffff1673ffffffffffffffffffffffffffffffffffffffff16634000aea08584612f58876137ea565b6040518463ffffffff1660e01b8152600401808473ffffffffffffffffffffffffffffffffffffffff16815260200183815260200180602001828103825283818151815260200191508051906020019080838360005b83811015612fc9578082015181840152602081019050612fae565b50505050905090810190601f168015612ff65780820380516001836020036101000a031916815260200191505b50945050505050602060405180830381600087803b15801561301757600080fd5b505af115801561302b573d6000803e3d6000fd5b505050506040513d602081101561304157600080fd5b81019080805190602001909291905050506130a7576040517f08c379a00000000000000000000000000000000000000000000000000000000081526004018080602001828103825260238152602001806148e06023913960400191505060405180910390fd5b60016011600082825401925050819055509392505050565b60006130d2846000018460001b8461396b565b60001c90509392505050565b60006130ec82600001613a61565b9050919050565b6130fb611752565b1561316e576040517f08c379a00000000000000000000000000000000000000000000000000000000081526004018080602001828103825260108152602001807f5061757361626c653a207061757365640000000000000000000000000000000081525060200191505060405180910390fd5b6001600b60006101000a81548160ff0219169083151502179055507f62e78cea01bee320cd4e420270b5ea74000d11b0c9f74754ebdbfc544b05a2586131b26123e9565b604051808273ffffffffffffffffffffffffffffffffffffffff16815260200191505060405180910390a1565b60006131ee836000018361350b565b60001c905092915050565b6000613221836000018373ffffffffffffffffffffffffffffffffffffffff1660001b613a72565b905092915050565b6132348484846125b3565b61324084848484613a95565b613295576040517f08c379a00000000000000000000000000000000000000000000000000000000081526004018080602001828103825260328152602001806148ae6032913960400191505060405180910390fd5b50505050565b606060008214156132e3576040518060400160405280600181526020017f300000000000000000000000000000000000000000000000000000000000000081525090506133dd565b600082905060005b6000821461330d578080600101915050600a828161330557fe5b0491506132eb565b60608167ffffffffffffffff8111801561332657600080fd5b506040519080825280601f01601f1916602001820160405280156133595781602001600182028036833780820191505090505b50905060006001830390508593505b600084146133d557600a848161337a57fe5b0660300160f81b8282806001900393508151811061339457fe5b60200101907effffffffffffffffffffffffffffffffffffffffffffffffffffffffffffff1916908160001a905350600a84816133cd57fe5b049350613368565b819450505050505b919050565b60006133f082600001613a61565b9050919050565b60006134038383613a72565b61345c578260000182908060018154018082558091505060019003906000526020600020016000909190919091505582600001805490508360010160008481526020019081526020016000208190555060019050613461565b600090505b92915050565b6000613479836000018360001b613cae565b905092915050565b600081600001805490509050919050565b61349d838383613cd1565b505050565b60006134b4836000018360001b613d3f565b905092915050565b60006134ce836000018360001b6133f7565b905092915050565b6000613502846000018460001b8473ffffffffffffffffffffffffffffffffffffffff1660001b613e27565b90509392505050565b60008183600001805490501161356c576040517f08c379a00000000000000000000000000000000000000000000000000000000081526004018080602001828103825260228152602001806148326022913960400191505060405180910390fd5b82600001828154811061357b57fe5b9060005260206000200154905092915050565b60006135b6836000018373ffffffffffffffffffffffffffffffffffffffff1660001b613d3f565b905092915050565b60006135d0836000018360001b613f03565b905092915050565b6000808284600001805490501161363a576040517f08c379a0000000000000000000000000000000000000000000000000000000008152600401808060200182810382526022815260200180614a726022913960400191505060405180910390fd5b600084600001848154811061364b57fe5b906000526020600020906002020190508060000154816001015492509250509250929050565b613679614745565b613689856080015161010061401c565b508385600001818152505082856020019073ffffffffffffffffffffffffffffffffffffffff16908173ffffffffffffffffffffffffffffffffffffffff16815250508185604001907bffffffffffffffffffffffffffffffffffffffffffffffffffffffff191690817bffffffffffffffffffffffffffffffffffffffffffffffffffffffff191681525050849050949350505050565b61372e8260038351614070565b61374181836141b590919063ffffffff16565b505050565b7fffffffffffffffffffffffffffffffffffffffffffffffff000000000000000081121561377d5761377882826141d7565b6137e6565b67ffffffffffffffff81131561379c576137978282614245565b6137e5565b600081126137b5576137b082600083614070565b6137e4565b6137e3826001837fffffffffffffffffffffffffffffffffffffffffffffffffffffffffffffffff03614070565b5b5b5b5050565b6060634042994660e01b60008084600001518560200151866040015187606001516001896080015160000151604051602401808973ffffffffffffffffffffffffffffffffffffffff1681526020018881526020018781526020018673ffffffffffffffffffffffffffffffffffffffff168152602001857bffffffffffffffffffffffffffffffffffffffffffffffffffffffff1916815260200184815260200183815260200180602001828103825283818151815260200191508051906020019080838360005b838110156138ce5780820151818401526020810190506138b3565b50505050905090810190601f1680156138fb5780820380516001836020036101000a031916815260200191505b509950505050505050505050604051602081830303815290604052907bffffffffffffffffffffffffffffffffffffffffffffffffffffffff19166020820180517bffffffffffffffffffffffffffffffffffffffffffffffffffffffff83818316178352505050509050919050565b60008084600101600085815260200190815260200160002054905060008114158390613a32576040517f08c379a00000000000000000000000000000000000000000000000000000000081526004018080602001828103825283818151815260200191508051906020019080838360005b838110156139f75780820151818401526020810190506139dc565b50505050905090810190601f168015613a245780820380516001836020036101000a031916815260200191505b509250505060405180910390fd5b50846000016001820381548110613a4557fe5b9060005260206000209060020201600101549150509392505050565b600081600001805490509050919050565b600080836001016000848152602001908152602001600020541415905092915050565b6000613ab68473ffffffffffffffffffffffffffffffffffffffff16614291565b613ac35760019050613ca6565b6060613c2d63150b7a0260e01b613ad86123e9565b888787604051602401808573ffffffffffffffffffffffffffffffffffffffff1681526020018473ffffffffffffffffffffffffffffffffffffffff16815260200183815260200180602001828103825283818151815260200191508051906020019080838360005b83811015613b5c578082015181840152602081019050613b41565b50505050905090810190601f168015613b895780820380516001836020036101000a031916815260200191505b5095505050505050604051602081830303815290604052907bffffffffffffffffffffffffffffffffffffffffffffffffffffffff19166020820180517bffffffffffffffffffffffffffffffffffffffffffffffffffffffff83818316178352505050506040518060600160405280603281526020016148ae603291398773ffffffffffffffffffffffffffffffffffffffff166142a49092919063ffffffff16565b90506000818060200190516020811015613c4657600080fd5b8101908080519060200190929190505050905063150b7a0260e01b7bffffffffffffffffffffffffffffffffffffffffffffffffffffffff1916817bffffffffffffffffffffffffffffffffffffffffffffffffffffffff191614925050505b949350505050565b600080836001016000848152602001908152602001600020541415905092915050565b613cdc8383836142bc565b613ce4611752565b15613d3a576040517f08c379a000000000000000000000000000000000000000000000000000000000815260040180806020018281038252602b815260200180614854602b913960400191505060405180910390fd5b505050565b60008083600101600084815260200190815260200160002054905060008114613e1b5760006001820390506000600186600001805490500390506000866000018281548110613d8a57fe5b9060005260206000200154905080876000018481548110613da757fe5b9060005260206000200181905550600183018760010160008381526020019081526020016000208190555086600001805480613ddf57fe5b60019003818190600052602060002001600090559055866001016000878152602001908152602001600020600090556001945050505050613e21565b60009150505b92915050565b6000808460010160008581526020019081526020016000205490506000811415613ece57846000016040518060400160405280868152602001858152509080600181540180825580915050600190039060005260206000209060020201600090919091909150600082015181600001556020820151816001015550508460000180549050856001016000868152602001908152602001600020819055506001915050613efc565b82856000016001830381548110613ee157fe5b90600052602060002090600202016001018190555060009150505b9392505050565b600080836001016000848152602001908152602001600020549050600081146140105760006001820390506000600186600001805490500390506000866000018281548110613f4e57fe5b9060005260206000209060020201905080876000018481548110613f6e57fe5b9060005260206000209060020201600082015481600001556001820154816001015590505060018301876001016000836000015481526020019081526020016000208190555086600001805480613fc157fe5b6001900381819060005260206000209060020201600080820160009055600182016000905550509055866001016000878152602001908152602001600020600090556001945050505050614016565b60009150505b92915050565b6140246147fa565b60006020838161403057fe5b0614614049576020828161404057fe5b06602003820191505b81836020018181525050604051808452600081528281016020016040525082905092915050565b6017811161409d576140978160058460ff16901b60ff1617846142c190919063ffffffff16565b506141b0565b60ff81116140df576140c2601860058460ff16901b17846142c190919063ffffffff16565b506140d9816001856142e19092919063ffffffff16565b506141af565b61ffff811161412257614105601960058460ff16901b17846142c190919063ffffffff16565b5061411c816002856142e19092919063ffffffff16565b506141ae565b63ffffffff81116141675761414a601a60058460ff16901b17846142c190919063ffffffff16565b50614161816004856142e19092919063ffffffff16565b506141ad565b67ffffffffffffffff81116141ac57614193601b60058460ff16901b17846142c190919063ffffffff16565b506141aa816008856142e19092919063ffffffff16565b505b5b5b5b5b505050565b6141bd6147fa565b6141cf83846000015151848551614303565b905092915050565b6141f560036005600660ff16901b17836142c190919063ffffffff16565b5061424182827fffffffffffffffffffffffffffffffffffffffffffffffffffffffffffffffff03604051602001808281526020019150506040516020818303038152906040526143bc565b5050565b61426360026005600660ff16901b17836142c190919063ffffffff16565b5061428d8282604051602001808281526020019150506040516020818303038152906040526143bc565b5050565b600080823b905060008111915050919050565b60606142b384846000856143e1565b90509392505050565b505050565b6142c96147fa565b6142d9838460000151518461458a565b905092915050565b6142e96147fa565b6142fa8485600001515185856145d8565b90509392505050565b61430b6147fa565b825182111561431957600080fd5b846020015182850111156143445761434385600261433d8860200151888701614639565b02614655565b5b6000808651805187602083010193508088870111156143635787860182525b60208701925050505b6020841061438f578051825260208201915060208101905060208403935061436c565b60006001856020036101000a03905080198251168184511681811785525050879350505050949350505050565b6143c98260028351614070565b6143dc81836141b590919063ffffffff16565b505050565b60608247101561443c576040517f08c379a00000000000000000000000000000000000000000000000000000000081526004018080602001828103825260268152602001806149656026913960400191505060405180910390fd5b61444585614291565b6144b7576040517f08c379a000000000000000000000000000000000000000000000000000000000815260040180806020018281038252601d8152602001807f416464726573733a2063616c6c20746f206e6f6e2d636f6e747261637400000081525060200191505060405180910390fd5b600060608673ffffffffffffffffffffffffffffffffffffffff1685876040518082805190602001908083835b6020831061450757805182526020820191506020810190506020830392506144e4565b6001836020036101000a03801982511681845116808217855250505050505090500191505060006040518083038185875af1925050503d8060008114614569576040519150601f19603f3d011682016040523d82523d6000602084013e61456e565b606091505b509150915061457e828286614679565b92505050949350505050565b6145926147fa565b836020015183106145af576145ae846002866020015102614655565b5b83518051602085830101848153818614156145cb576001820183525b5050508390509392505050565b6145e06147fa565b846020015184830111156145fe576145fd85600286850102614655565b5b60006001836101000a039050855183868201018583198251161781528151858801111561462b5784870182525b505085915050949350505050565b60008183111561464b5782905061464f565b8190505b92915050565b606082600001519050614668838361401c565b5061467383826141b5565b50505050565b606083156146895782905061473e565b60008351111561469c5782518084602001fd5b816040517f08c379a00000000000000000000000000000000000000000000000000000000081526004018080602001828103825283818151815260200191508051906020019080838360005b838110156147035780820151818401526020810190506146e8565b50505050905090810190601f1680156147305780820380516001836020036101000a031916815260200191505b509250505060405180910390fd5b9392505050565b6040518060a0016040528060008019168152602001600073ffffffffffffffffffffffffffffffffffffffff16815260200160007bffffffffffffffffffffffffffffffffffffffffffffffffffffffff19168152602001600081526020016147ac6147fa565b81525090565b50805460018160011615610100020316600290046000825580601f106147d857506147f7565b601f0160209004906000526020600020908101906147f69190614814565b5b50565b604051806040016040528060608152602001600081525090565b5b8082111561482d576000816000905550600101614815565b509056fe456e756d657261626c655365743a20696e646578206f7574206f6620626f756e64734552433732315061757361626c653a20746f6b656e207472616e73666572207768696c6520706175736564416363657373436f6e74726f6c3a2073656e646572206d75737420626520616e2061646d696e20746f206772616e744552433732313a207472616e7366657220746f206e6f6e20455243373231526563656976657220696d706c656d656e746572756e61626c6520746f207472616e73666572416e6443616c6c20746f206f7261636c654552433732315072657365744d696e7465725061757365724175746f49643a206d75737420686176652070617573657220726f6c6520746f2070617573654552433732313a207472616e7366657220746f20746865207a65726f2061646472657373416464726573733a20696e73756666696369656e742062616c616e636520666f722063616c6c4552433732313a206f70657261746f7220717565727920666f72206e6f6e6578697374656e7420746f6b656e416363657373436f6e74726f6c3a2073656e646572206d75737420626520616e2061646d696e20746f207265766f6b654552433732313a20617070726f76652063616c6c6572206973206e6f74206f776e6572206e6f7220617070726f76656420666f7220616c6c4552433732313a2062616c616e636520717565727920666f7220746865207a65726f20616464726573734552433732313a206f776e657220717565727920666f72206e6f6e6578697374656e7420746f6b656e456e756d657261626c654d61703a20696e646578206f7574206f6620626f756e64734552433732313a20617070726f76656420717565727920666f72206e6f6e6578697374656e7420746f6b656e4552433732313a207472616e73666572206f6620746f6b656e2074686174206973206e6f74206f776e4552433732314d657461646174613a2055524920717565727920666f72206e6f6e6578697374656e7420746f6b656e4552433732313a20617070726f76616c20746f2063757272656e74206f776e65724552433732313a207472616e736665722063616c6c6572206973206e6f74206f776e6572206e6f7220617070726f766564536f75726365206d75737420626520746865206f7261636c65206f662074686520726571756573744552433732315072657365744d696e7465725061757365724175746f49643a206d7573742068617665206d696e74657220726f6c6520746f206d696e744552433732314275726e61626c653a2063616c6c6572206973206e6f74206f776e6572206e6f7220617070726f7665644552433732315072657365744d696e7465725061757365724175746f49643a206d75737420686176652070617573657220726f6c6520746f20756e706175736568747470733a2f2f6d696e2d6170692e63727970746f636f6d706172652e636f6d2f646174612f70726963656d756c746966756c6c3f6673796d733d455448267473796d733d555344416363657373436f6e74726f6c3a2063616e206f6e6c792072656e6f756e636520726f6c657320666f722073656c66a26469706673582212207f019139329440c455d81e9dd590e0596f292a7b54a36be413b2232ebf9ce99c64736f6c634300060c003368747470733a2f2f63727970746f2d706c616e74732d6d657461646174612d6261636b656e642e6865726f6b756170702e636f6d2f706c616e742f",
  "immutableReferences": {},
  "source": "// SPDX-License-Identifier: MIT\npragma solidity ^0.6;\n\nimport \"../client/node_modules/@openzeppelin/contracts/utils/Counters.sol\";\nimport \"../client/node_modules/@openzeppelin/contracts/presets/ERC721PresetMinterPauserAutoId.sol\";\nimport \"../client/node_modules/@chainlink/contracts/src/v0.6/ChainlinkClient.sol\";\nimport \"../client/node_modules/@chainlink/contracts/src/v0.6/Chainlink.sol\";\n\ncontract CryptoPlant is ERC721PresetMinterPauserAutoId, ChainlinkClient {\n    using Counters for Counters.Counter;\n    Counters.Counter private _tokenIdTracker;\n    address payable public orgAddress;\n\n    uint256 public volume;\n    address private oracle;\n    bytes32 private jobId;\n    uint256 private fee;\n\n    constructor()\n        public\n        ERC721PresetMinterPauserAutoId(\n            \"CryptoPlant\",\n            \"CPT\",\n            \"https://crypto-plants-metadata-backend.herokuapp.com/plant/\"\n        )\n    {\n        orgAddress = 0x42F323c617c0a6d18547B8a2AaF8BcD1Abe617c9;\n\n        //chainlink\n        oracle = 0x2f90A6D021db21e1B2A077c5a37B3C7E75D15b7e;\n        jobId = \"29fa9aa13bf1468788b7cc4a500a45b8\";\n        fee = 0.1 * 10**18; // 0.1 LINK\n    }\n\n    function requestVolumeData() public returns (bytes32 requestId) {\n        Chainlink.Request memory request =\n            buildChainlinkRequest(jobId, address(this), this.fulfill.selector);\n\n        request.add(\n            \"get\",\n            \"https://min-api.cryptocompare.com/data/pricemultifull?fsyms=ETH&tsyms=USD\"\n        );\n        request.add(\"path\", \"RAW.ETH.USD.VOLUME24HOUR\");\n        int256 timesAmount = 10**18;\n        request.addInt(\"times\", timesAmount);\n\n        // Chainlink.add(\n        //     request,\n        //     \"get\",\n        //     \"https://min-api.cryptocompare.com/data/pricemultifull?fsyms=ETH&tsyms=USD\"\n        // );\n        // Chainlink.add(request, \"path\", \"RAW.ETH.USD.VOLUME24HOUR\");\n        // int256 timesAmount = 10**18;\n        // Chainlink.addInt(request, \"times\", timesAmount);\n\n        return sendChainlinkRequestTo(oracle, request, fee);\n    }\n\n    function fulfill(bytes32 _requestId, uint256 _volume)\n        public\n        recordChainlinkFulfillment(_requestId)\n    {\n        volume = _volume;\n    }\n\n    receive() external payable {}\n\n    function purchaseSeed() public payable {\n        require(msg.value == 0.00001 ether);\n        orgAddress.transfer(0.0000095 ether); // 5% comission\n\n        // Mint token\n        _mint(msg.sender, _tokenIdTracker.current());\n        _tokenIdTracker.increment();\n    }\n}\n",
  "sourcePath": "/Users/hp/Documents/denver-hack/crypto-plants/contracts/CryptoPlant.sol",
  "compiler": {
    "name": "solc",
    "version": "0.6.12+commit.27d51765.Emscripten.clang"
  },
  "schemaVersion": "3.3.3",
  "updatedAt": "2021-02-12T16:57:03.386Z",
  "networkType": "ethereum",
  "devdoc": {
    "kind": "dev",
    "methods": {
      "approve(address,uint256)": {
        "details": "See {IERC721-approve}."
      },
      "balanceOf(address)": {
        "details": "See {IERC721-balanceOf}."
      },
      "baseURI()": {
        "details": "Returns the base URI set via {_setBaseURI}. This will be automatically added as a prefix in {tokenURI} to each token's URI, or to the token ID if no specific URI is set for that token ID."
      },
      "burn(uint256)": {
        "details": "Burns `tokenId`. See {ERC721-_burn}. Requirements: - The caller must own `tokenId` or be an approved operator."
      },
      "getApproved(uint256)": {
        "details": "See {IERC721-getApproved}."
      },
      "getRoleAdmin(bytes32)": {
        "details": "Returns the admin role that controls `role`. See {grantRole} and {revokeRole}. To change a role's admin, use {_setRoleAdmin}."
      },
      "getRoleMember(bytes32,uint256)": {
        "details": "Returns one of the accounts that have `role`. `index` must be a value between 0 and {getRoleMemberCount}, non-inclusive. Role bearers are not sorted in any particular way, and their ordering may change at any point. WARNING: When using {getRoleMember} and {getRoleMemberCount}, make sure you perform all queries on the same block. See the following https://forum.openzeppelin.com/t/iterating-over-elements-on-enumerableset-in-openzeppelin-contracts/2296[forum post] for more information."
      },
      "getRoleMemberCount(bytes32)": {
        "details": "Returns the number of accounts that have `role`. Can be used together with {getRoleMember} to enumerate all bearers of a role."
      },
      "grantRole(bytes32,address)": {
        "details": "Grants `role` to `account`. If `account` had not been already granted `role`, emits a {RoleGranted} event. Requirements: - the caller must have ``role``'s admin role."
      },
      "hasRole(bytes32,address)": {
        "details": "Returns `true` if `account` has been granted `role`."
      },
      "isApprovedForAll(address,address)": {
        "details": "See {IERC721-isApprovedForAll}."
      },
      "mint(address)": {
        "details": "Creates a new token for `to`. Its token ID will be automatically assigned (and available on the emitted {IERC721-Transfer} event), and the token URI autogenerated based on the base URI passed at construction. See {ERC721-_mint}. Requirements: - the caller must have the `MINTER_ROLE`."
      },
      "name()": {
        "details": "See {IERC721Metadata-name}."
      },
      "ownerOf(uint256)": {
        "details": "See {IERC721-ownerOf}."
      },
      "pause()": {
        "details": "Pauses all token transfers. See {ERC721Pausable} and {Pausable-_pause}. Requirements: - the caller must have the `PAUSER_ROLE`."
      },
      "paused()": {
        "details": "Returns true if the contract is paused, and false otherwise."
      },
      "renounceRole(bytes32,address)": {
        "details": "Revokes `role` from the calling account. Roles are often managed via {grantRole} and {revokeRole}: this function's purpose is to provide a mechanism for accounts to lose their privileges if they are compromised (such as when a trusted device is misplaced). If the calling account had been granted `role`, emits a {RoleRevoked} event. Requirements: - the caller must be `account`."
      },
      "revokeRole(bytes32,address)": {
        "details": "Revokes `role` from `account`. If `account` had been granted `role`, emits a {RoleRevoked} event. Requirements: - the caller must have ``role``'s admin role."
      },
      "safeTransferFrom(address,address,uint256)": {
        "details": "See {IERC721-safeTransferFrom}."
      },
      "safeTransferFrom(address,address,uint256,bytes)": {
        "details": "See {IERC721-safeTransferFrom}."
      },
      "setApprovalForAll(address,bool)": {
        "details": "See {IERC721-setApprovalForAll}."
      },
      "supportsInterface(bytes4)": {
        "details": "See {IERC165-supportsInterface}. Time complexity O(1), guaranteed to always use less than 30 000 gas."
      },
      "symbol()": {
        "details": "See {IERC721Metadata-symbol}."
      },
      "tokenByIndex(uint256)": {
        "details": "See {IERC721Enumerable-tokenByIndex}."
      },
      "tokenOfOwnerByIndex(address,uint256)": {
        "details": "See {IERC721Enumerable-tokenOfOwnerByIndex}."
      },
      "tokenURI(uint256)": {
        "details": "See {IERC721Metadata-tokenURI}."
      },
      "totalSupply()": {
        "details": "See {IERC721Enumerable-totalSupply}."
      },
      "transferFrom(address,address,uint256)": {
        "details": "See {IERC721-transferFrom}."
      },
      "unpause()": {
        "details": "Unpauses all token transfers. See {ERC721Pausable} and {Pausable-_unpause}. Requirements: - the caller must have the `PAUSER_ROLE`."
      }
    },
    "version": 1
  },
  "userdoc": {
    "kind": "user",
    "methods": {},
    "version": 1
  }
}