{
  "contractName": "CryptoPlant",
  "abi": [
    {
      "inputs": [],
      "stateMutability": "nonpayable",
      "type": "constructor"
    },
    {
      "anonymous": false,
      "inputs": [
        {
          "indexed": true,
          "internalType": "address",
          "name": "owner",
          "type": "address"
        },
        {
          "indexed": true,
          "internalType": "address",
          "name": "approved",
          "type": "address"
        },
        {
          "indexed": true,
          "internalType": "uint256",
          "name": "tokenId",
          "type": "uint256"
        }
      ],
      "name": "Approval",
      "type": "event"
    },
    {
      "anonymous": false,
      "inputs": [
        {
          "indexed": true,
          "internalType": "address",
          "name": "owner",
          "type": "address"
        },
        {
          "indexed": true,
          "internalType": "address",
          "name": "operator",
          "type": "address"
        },
        {
          "indexed": false,
          "internalType": "bool",
          "name": "approved",
          "type": "bool"
        }
      ],
      "name": "ApprovalForAll",
      "type": "event"
    },
    {
      "anonymous": false,
      "inputs": [
        {
          "indexed": true,
          "internalType": "bytes32",
          "name": "id",
          "type": "bytes32"
        }
      ],
      "name": "ChainlinkCancelled",
      "type": "event"
    },
    {
      "anonymous": false,
      "inputs": [
        {
          "indexed": true,
          "internalType": "bytes32",
          "name": "id",
          "type": "bytes32"
        }
      ],
      "name": "ChainlinkFulfilled",
      "type": "event"
    },
    {
      "anonymous": false,
      "inputs": [
        {
          "indexed": true,
          "internalType": "bytes32",
          "name": "id",
          "type": "bytes32"
        }
      ],
      "name": "ChainlinkRequested",
      "type": "event"
    },
    {
      "anonymous": false,
      "inputs": [
        {
          "indexed": false,
          "internalType": "address",
          "name": "account",
          "type": "address"
        }
      ],
      "name": "Paused",
      "type": "event"
    },
    {
      "anonymous": false,
      "inputs": [
        {
          "indexed": true,
          "internalType": "bytes32",
          "name": "role",
          "type": "bytes32"
        },
        {
          "indexed": true,
          "internalType": "bytes32",
          "name": "previousAdminRole",
          "type": "bytes32"
        },
        {
          "indexed": true,
          "internalType": "bytes32",
          "name": "newAdminRole",
          "type": "bytes32"
        }
      ],
      "name": "RoleAdminChanged",
      "type": "event"
    },
    {
      "anonymous": false,
      "inputs": [
        {
          "indexed": true,
          "internalType": "bytes32",
          "name": "role",
          "type": "bytes32"
        },
        {
          "indexed": true,
          "internalType": "address",
          "name": "account",
          "type": "address"
        },
        {
          "indexed": true,
          "internalType": "address",
          "name": "sender",
          "type": "address"
        }
      ],
      "name": "RoleGranted",
      "type": "event"
    },
    {
      "anonymous": false,
      "inputs": [
        {
          "indexed": true,
          "internalType": "bytes32",
          "name": "role",
          "type": "bytes32"
        },
        {
          "indexed": true,
          "internalType": "address",
          "name": "account",
          "type": "address"
        },
        {
          "indexed": true,
          "internalType": "address",
          "name": "sender",
          "type": "address"
        }
      ],
      "name": "RoleRevoked",
      "type": "event"
    },
    {
      "anonymous": false,
      "inputs": [
        {
          "indexed": true,
          "internalType": "address",
          "name": "from",
          "type": "address"
        },
        {
          "indexed": true,
          "internalType": "address",
          "name": "to",
          "type": "address"
        },
        {
          "indexed": true,
          "internalType": "uint256",
          "name": "tokenId",
          "type": "uint256"
        }
      ],
      "name": "Transfer",
      "type": "event"
    },
    {
      "anonymous": false,
      "inputs": [
        {
          "indexed": false,
          "internalType": "address",
          "name": "account",
          "type": "address"
        }
      ],
      "name": "Unpaused",
      "type": "event"
    },
    {
      "inputs": [],
      "name": "DEFAULT_ADMIN_ROLE",
      "outputs": [
        {
          "internalType": "bytes32",
          "name": "",
          "type": "bytes32"
        }
      ],
      "stateMutability": "view",
      "type": "function",
      "constant": true
    },
    {
      "inputs": [],
      "name": "MINTER_ROLE",
      "outputs": [
        {
          "internalType": "bytes32",
          "name": "",
          "type": "bytes32"
        }
      ],
      "stateMutability": "view",
      "type": "function",
      "constant": true
    },
    {
      "inputs": [],
      "name": "PAUSER_ROLE",
      "outputs": [
        {
          "internalType": "bytes32",
          "name": "",
          "type": "bytes32"
        }
      ],
      "stateMutability": "view",
      "type": "function",
      "constant": true
    },
    {
      "inputs": [
        {
          "internalType": "address",
          "name": "to",
          "type": "address"
        },
        {
          "internalType": "uint256",
          "name": "tokenId",
          "type": "uint256"
        }
      ],
      "name": "approve",
      "outputs": [],
      "stateMutability": "nonpayable",
      "type": "function"
    },
    {
      "inputs": [
        {
          "internalType": "address",
          "name": "owner",
          "type": "address"
        }
      ],
      "name": "balanceOf",
      "outputs": [
        {
          "internalType": "uint256",
          "name": "",
          "type": "uint256"
        }
      ],
      "stateMutability": "view",
      "type": "function",
      "constant": true
    },
    {
      "inputs": [],
      "name": "baseURI",
      "outputs": [
        {
          "internalType": "string",
          "name": "",
          "type": "string"
        }
      ],
      "stateMutability": "view",
      "type": "function",
      "constant": true
    },
    {
      "inputs": [
        {
          "internalType": "uint256",
          "name": "tokenId",
          "type": "uint256"
        }
      ],
      "name": "burn",
      "outputs": [],
      "stateMutability": "nonpayable",
      "type": "function"
    },
    {
      "inputs": [
        {
          "internalType": "uint256",
          "name": "tokenId",
          "type": "uint256"
        }
      ],
      "name": "getApproved",
      "outputs": [
        {
          "internalType": "address",
          "name": "",
          "type": "address"
        }
      ],
      "stateMutability": "view",
      "type": "function",
      "constant": true
    },
    {
      "inputs": [
        {
          "internalType": "bytes32",
          "name": "role",
          "type": "bytes32"
        }
      ],
      "name": "getRoleAdmin",
      "outputs": [
        {
          "internalType": "bytes32",
          "name": "",
          "type": "bytes32"
        }
      ],
      "stateMutability": "view",
      "type": "function",
      "constant": true
    },
    {
      "inputs": [
        {
          "internalType": "bytes32",
          "name": "role",
          "type": "bytes32"
        },
        {
          "internalType": "uint256",
          "name": "index",
          "type": "uint256"
        }
      ],
      "name": "getRoleMember",
      "outputs": [
        {
          "internalType": "address",
          "name": "",
          "type": "address"
        }
      ],
      "stateMutability": "view",
      "type": "function",
      "constant": true
    },
    {
      "inputs": [
        {
          "internalType": "bytes32",
          "name": "role",
          "type": "bytes32"
        }
      ],
      "name": "getRoleMemberCount",
      "outputs": [
        {
          "internalType": "uint256",
          "name": "",
          "type": "uint256"
        }
      ],
      "stateMutability": "view",
      "type": "function",
      "constant": true
    },
    {
      "inputs": [
        {
          "internalType": "bytes32",
          "name": "role",
          "type": "bytes32"
        },
        {
          "internalType": "address",
          "name": "account",
          "type": "address"
        }
      ],
      "name": "grantRole",
      "outputs": [],
      "stateMutability": "nonpayable",
      "type": "function"
    },
    {
      "inputs": [
        {
          "internalType": "bytes32",
          "name": "role",
          "type": "bytes32"
        },
        {
          "internalType": "address",
          "name": "account",
          "type": "address"
        }
      ],
      "name": "hasRole",
      "outputs": [
        {
          "internalType": "bool",
          "name": "",
          "type": "bool"
        }
      ],
      "stateMutability": "view",
      "type": "function",
      "constant": true
    },
    {
      "inputs": [
        {
          "internalType": "address",
          "name": "owner",
          "type": "address"
        },
        {
          "internalType": "address",
          "name": "operator",
          "type": "address"
        }
      ],
      "name": "isApprovedForAll",
      "outputs": [
        {
          "internalType": "bool",
          "name": "",
          "type": "bool"
        }
      ],
      "stateMutability": "view",
      "type": "function",
      "constant": true
    },
    {
      "inputs": [
        {
          "internalType": "address",
          "name": "forwarder",
          "type": "address"
        }
      ],
      "name": "isTrustedForwarder",
      "outputs": [
        {
          "internalType": "bool",
          "name": "",
          "type": "bool"
        }
      ],
      "stateMutability": "view",
      "type": "function",
      "constant": true
    },
    {
      "inputs": [
        {
          "internalType": "address",
          "name": "to",
          "type": "address"
        }
      ],
      "name": "mint",
      "outputs": [],
      "stateMutability": "nonpayable",
      "type": "function"
    },
    {
      "inputs": [],
      "name": "name",
      "outputs": [
        {
          "internalType": "string",
          "name": "",
          "type": "string"
        }
      ],
      "stateMutability": "view",
      "type": "function",
      "constant": true
    },
    {
      "inputs": [],
      "name": "orgAddress",
      "outputs": [
        {
          "internalType": "address payable",
          "name": "",
          "type": "address"
        }
      ],
      "stateMutability": "view",
      "type": "function",
      "constant": true
    },
    {
      "inputs": [
        {
          "internalType": "uint256",
          "name": "tokenId",
          "type": "uint256"
        }
      ],
      "name": "ownerOf",
      "outputs": [
        {
          "internalType": "address",
          "name": "",
          "type": "address"
        }
      ],
      "stateMutability": "view",
      "type": "function",
      "constant": true
    },
    {
      "inputs": [],
      "name": "pause",
      "outputs": [],
      "stateMutability": "nonpayable",
      "type": "function"
    },
    {
      "inputs": [],
      "name": "paused",
      "outputs": [
        {
          "internalType": "bool",
          "name": "",
          "type": "bool"
        }
      ],
      "stateMutability": "view",
      "type": "function",
      "constant": true
    },
    {
      "inputs": [
        {
          "internalType": "bytes32",
          "name": "role",
          "type": "bytes32"
        },
        {
          "internalType": "address",
          "name": "account",
          "type": "address"
        }
      ],
      "name": "renounceRole",
      "outputs": [],
      "stateMutability": "nonpayable",
      "type": "function"
    },
    {
      "inputs": [
        {
          "internalType": "bytes32",
          "name": "role",
          "type": "bytes32"
        },
        {
          "internalType": "address",
          "name": "account",
          "type": "address"
        }
      ],
      "name": "revokeRole",
      "outputs": [],
      "stateMutability": "nonpayable",
      "type": "function"
    },
    {
      "inputs": [
        {
          "internalType": "address",
          "name": "from",
          "type": "address"
        },
        {
          "internalType": "address",
          "name": "to",
          "type": "address"
        },
        {
          "internalType": "uint256",
          "name": "tokenId",
          "type": "uint256"
        }
      ],
      "name": "safeTransferFrom",
      "outputs": [],
      "stateMutability": "nonpayable",
      "type": "function"
    },
    {
      "inputs": [
        {
          "internalType": "address",
          "name": "from",
          "type": "address"
        },
        {
          "internalType": "address",
          "name": "to",
          "type": "address"
        },
        {
          "internalType": "uint256",
          "name": "tokenId",
          "type": "uint256"
        },
        {
          "internalType": "bytes",
          "name": "_data",
          "type": "bytes"
        }
      ],
      "name": "safeTransferFrom",
      "outputs": [],
      "stateMutability": "nonpayable",
      "type": "function"
    },
    {
      "inputs": [
        {
          "internalType": "address",
          "name": "operator",
          "type": "address"
        },
        {
          "internalType": "bool",
          "name": "approved",
          "type": "bool"
        }
      ],
      "name": "setApprovalForAll",
      "outputs": [],
      "stateMutability": "nonpayable",
      "type": "function"
    },
    {
      "inputs": [
        {
          "internalType": "bytes4",
          "name": "interfaceId",
          "type": "bytes4"
        }
      ],
      "name": "supportsInterface",
      "outputs": [
        {
          "internalType": "bool",
          "name": "",
          "type": "bool"
        }
      ],
      "stateMutability": "view",
      "type": "function",
      "constant": true
    },
    {
      "inputs": [],
      "name": "symbol",
      "outputs": [
        {
          "internalType": "string",
          "name": "",
          "type": "string"
        }
      ],
      "stateMutability": "view",
      "type": "function",
      "constant": true
    },
    {
      "inputs": [
        {
          "internalType": "uint256",
          "name": "index",
          "type": "uint256"
        }
      ],
      "name": "tokenByIndex",
      "outputs": [
        {
          "internalType": "uint256",
          "name": "",
          "type": "uint256"
        }
      ],
      "stateMutability": "view",
      "type": "function",
      "constant": true
    },
    {
      "inputs": [
        {
          "internalType": "address",
          "name": "owner",
          "type": "address"
        },
        {
          "internalType": "uint256",
          "name": "index",
          "type": "uint256"
        }
      ],
      "name": "tokenOfOwnerByIndex",
      "outputs": [
        {
          "internalType": "uint256",
          "name": "",
          "type": "uint256"
        }
      ],
      "stateMutability": "view",
      "type": "function",
      "constant": true
    },
    {
      "inputs": [
        {
          "internalType": "uint256",
          "name": "tokenId",
          "type": "uint256"
        }
      ],
      "name": "tokenURI",
      "outputs": [
        {
          "internalType": "string",
          "name": "",
          "type": "string"
        }
      ],
      "stateMutability": "view",
      "type": "function",
      "constant": true
    },
    {
      "inputs": [],
      "name": "totalSupply",
      "outputs": [
        {
          "internalType": "uint256",
          "name": "",
          "type": "uint256"
        }
      ],
      "stateMutability": "view",
      "type": "function",
      "constant": true
    },
    {
      "inputs": [
        {
          "internalType": "address",
          "name": "from",
          "type": "address"
        },
        {
          "internalType": "address",
          "name": "to",
          "type": "address"
        },
        {
          "internalType": "uint256",
          "name": "tokenId",
          "type": "uint256"
        }
      ],
      "name": "transferFrom",
      "outputs": [],
      "stateMutability": "nonpayable",
      "type": "function"
    },
    {
      "inputs": [],
      "name": "trustedForwarder",
      "outputs": [
        {
          "internalType": "address",
          "name": "",
          "type": "address"
        }
      ],
      "stateMutability": "view",
      "type": "function",
      "constant": true
    },
    {
      "inputs": [],
      "name": "unpause",
      "outputs": [],
      "stateMutability": "nonpayable",
      "type": "function"
    },
    {
      "stateMutability": "payable",
      "type": "receive",
      "payable": true
    },
    {
      "inputs": [],
      "name": "sendEther",
      "outputs": [],
      "stateMutability": "payable",
      "type": "function",
      "payable": true
    },
    {
      "inputs": [],
      "name": "purchaseSeed",
      "outputs": [],
      "stateMutability": "payable",
      "type": "function",
      "payable": true
    },
    {
      "inputs": [],
      "name": "purchaseSubscription",
      "outputs": [],
      "stateMutability": "nonpayable",
      "type": "function"
    },
    {
      "inputs": [
        {
          "internalType": "bytes32",
          "name": "_requestId",
          "type": "bytes32"
        },
        {
          "internalType": "uint256",
          "name": "_volume",
          "type": "uint256"
        }
      ],
      "name": "fulfill",
      "outputs": [],
      "stateMutability": "nonpayable",
      "type": "function"
    },
    {
      "inputs": [
        {
          "internalType": "address",
          "name": "_forwarder",
          "type": "address"
        }
      ],
      "name": "setTrustedForwarder",
      "outputs": [],
      "stateMutability": "nonpayable",
      "type": "function"
    },
    {
      "inputs": [],
      "name": "versionRecipient",
      "outputs": [
        {
          "internalType": "string",
          "name": "",
          "type": "string"
        }
      ],
      "stateMutability": "view",
      "type": "function",
      "constant": true
    }
  ],
  "bytecode": "0x608060405260016011553480156200001657600080fd5b506040518060400160405280600b81526020017f43727970746f506c616e740000000000000000000000000000000000000000008152506040518060400160405280600381526020017f43505400000000000000000000000000000000000000000000000000000000008152506040518060600160405280603b815260200162004a0b603b91398282620000b76301ffc9a760e01b6200034360201b60201c565b8160079080519060200190620000cf929190620006b4565b508060089080519060200190620000e8929190620006b4565b50620001016380ac58cd60e01b6200034360201b60201c565b62000119635b5e139f60e01b6200034360201b60201c565b6200013163780e9d6360e01b6200034360201b60201c565b50506000600b60006101000a81548160ff021916908315150217905550620001726000801b620001666200044c60201b60201c565b6200046860201b60201c565b620001b37f9f2df0fed2c77648de5860a4cc508cd0818c85b8b8a1ab4ceeef8d981c8956a6620001a76200044c60201b60201c565b6200046860201b60201c565b620001f47f65d7a28e3265b37a6474929f336521b332c1681b933f6cb9f3376673440d862a620001e86200044c60201b60201c565b6200046860201b60201c565b62000205816200047e60201b60201c565b5050507342f323c617c0a6d18547b8a2aaf8bcd1abe617c9601560006101000a81548173ffffffffffffffffffffffffffffffffffffffff021916908373ffffffffffffffffffffffffffffffffffffffff160217905550732f90a6d021db21e1b2a077c5a37b3c7e75d15b7e601660006101000a81548173ffffffffffffffffffffffffffffffffffffffff021916908373ffffffffffffffffffffffffffffffffffffffff1602179055507f323966613961613133626631343638373838623763633461353030613435623860178190555067016345785d8a00006018819055507358697867383da03cba35617bfbb3c0f6f91074d8601360006101000a81548173ffffffffffffffffffffffffffffffffffffffff021916908373ffffffffffffffffffffffffffffffffffffffff1602179055506200075a565b63ffffffff60e01b817bffffffffffffffffffffffffffffffffffffffffffffffffffffffff19161415620003e0576040517f08c379a000000000000000000000000000000000000000000000000000000000815260040180806020018281038252601c8152602001807f4552433136353a20696e76616c696420696e746572666163652069640000000081525060200191505060405180910390fd5b6001806000837bffffffffffffffffffffffffffffffffffffffffffffffffffffffff19167bffffffffffffffffffffffffffffffffffffffffffffffffffffffff1916815260200190815260200160002060006101000a81548160ff02191690831515021790555050565b6000620004636200049a60201b6200249f1760201c565b905090565b6200047a8282620004e260201b60201c565b5050565b80600a908051906020019062000496929190620006b4565b5050565b60006018600036905010158015620004bf5750620004be336200058560201b60201c565b5b15620004d557601436033560601c9050620004de565b339050620004df565b5b90565b6200051081600080858152602001908152602001600020600001620005df60201b620024db1790919060201c565b156200058157620005266200044c60201b60201c565b73ffffffffffffffffffffffffffffffffffffffff168173ffffffffffffffffffffffffffffffffffffffff16837f2f8788117e7eff1d82e926ec794901d17c78024a50270940304540a733656f0d60405160405180910390a45b5050565b6000601360009054906101000a900473ffffffffffffffffffffffffffffffffffffffff1673ffffffffffffffffffffffffffffffffffffffff168273ffffffffffffffffffffffffffffffffffffffff16149050919050565b60006200060f836000018373ffffffffffffffffffffffffffffffffffffffff1660001b6200061760201b60201c565b905092915050565b60006200062b83836200069160201b60201c565b620006865782600001829080600181540180825580915050600190039060005260206000200160009091909190915055826000018054905083600101600084815260200190815260200160002081905550600190506200068b565b600090505b92915050565b600080836001016000848152602001908152602001600020541415905092915050565b828054600181600116156101000203166002900490600052602060002090601f016020900481019282601f10620006f757805160ff191683800117855562000728565b8280016001018555821562000728579182015b82811115620007275782518255916020019190600101906200070a565b5b5090506200073791906200073b565b5090565b5b80821115620007565760008160009055506001016200073c565b5090565b6142a1806200076a6000396000f3fe60806040526004361061024a5760003560e01c80636352211e11610139578063a217fddf116100b6578063d53913931161007a578063d539139314610f1a578063d547741f14610f45578063da74222814610fa0578063db1bed2214610ff1578063e63ab1e914611008578063e985e9c51461103357610251565b8063a217fddf14610c7d578063a22cb46514610ca8578063b88d4fde14610d05578063c87b56dd14610e17578063ca15c87314610ecb57610251565b80637da0a877116100fd5780637da0a87714610ab55780638456cb5914610af65780639010d07c14610b0d57806391d1485414610b7c57806395d89b4114610bed57610251565b80636352211e146108c95780636a6278421461092e5780636c0360eb1461097f57806370a0823114610a0f578063797ea25d14610a7457610251565b806336568abe116101c75780634357855e1161018b5780634357855e14610711578063486ff0cd146107565780634f6ccce7146107e6578063572b6c05146108355780635c975abb1461089c57610251565b806336568abe146105df5780633f4ba83a1461063a57806340e55f9b1461065157806342842e0e1461065b57806342966c68146106d657610251565b806318160ddd1161020e57806318160ddd1461042057806323b872dd1461044b578063248a9ca3146104c65780632f2ff15d146105155780632f745c591461057057610251565b806301ffc9a71461025657806306fdde03146102c6578063081812fc14610356578063095ea7b3146103bb5780630e29df221461041657610251565b3661025157005b600080fd5b34801561026257600080fd5b506102ae6004803603602081101561027957600080fd5b8101908080357bffffffffffffffffffffffffffffffffffffffffffffffffffffffff191690602001909291905050506110ba565b60405180821515815260200191505060405180910390f35b3480156102d257600080fd5b506102db611122565b6040518080602001828103825283818151815260200191508051906020019080838360005b8381101561031b578082015181840152602081019050610300565b50505050905090810190601f1680156103485780820380516001836020036101000a031916815260200191505b509250505060405180910390f35b34801561036257600080fd5b5061038f6004803603602081101561037957600080fd5b81019080803590602001909291905050506111c4565b604051808273ffffffffffffffffffffffffffffffffffffffff16815260200191505060405180910390f35b3480156103c757600080fd5b50610414600480360360408110156103de57600080fd5b81019080803573ffffffffffffffffffffffffffffffffffffffff1690602001909291908035906020019092919050505061125f565b005b61041e6113a3565b005b34801561042c57600080fd5b506104356113a5565b6040518082815260200191505060405180910390f35b34801561045757600080fd5b506104c46004803603606081101561046e57600080fd5b81019080803573ffffffffffffffffffffffffffffffffffffffff169060200190929190803573ffffffffffffffffffffffffffffffffffffffff169060200190929190803590602001909291905050506113b6565b005b3480156104d257600080fd5b506104ff600480360360208110156104e957600080fd5b810190808035906020019092919050505061142c565b6040518082815260200191505060405180910390f35b34801561052157600080fd5b5061056e6004803603604081101561053857600080fd5b8101908080359060200190929190803573ffffffffffffffffffffffffffffffffffffffff16906020019092919050505061144b565b005b34801561057c57600080fd5b506105c96004803603604081101561059357600080fd5b81019080803573ffffffffffffffffffffffffffffffffffffffff169060200190929190803590602001909291905050506114d4565b6040518082815260200191505060405180910390f35b3480156105eb57600080fd5b506106386004803603604081101561060257600080fd5b8101908080359060200190929190803573ffffffffffffffffffffffffffffffffffffffff16906020019092919050505061152f565b005b34801561064657600080fd5b5061064f6115c8565b005b610659611658565b005b34801561066757600080fd5b506106d46004803603606081101561067e57600080fd5b81019080803573ffffffffffffffffffffffffffffffffffffffff169060200190929190803573ffffffffffffffffffffffffffffffffffffffff169060200190929190803590602001909291905050506116ed565b005b3480156106e257600080fd5b5061070f600480360360208110156106f957600080fd5b810190808035906020019092919050505061170d565b005b34801561071d57600080fd5b506107546004803603604081101561073457600080fd5b81019080803590602001909291908035906020019092919050505061177f565b005b34801561076257600080fd5b5061076b61189f565b6040518080602001828103825283818151815260200191508051906020019080838360005b838110156107ab578082015181840152602081019050610790565b50505050905090810190601f1680156107d85780820380516001836020036101000a031916815260200191505b509250505060405180910390f35b3480156107f257600080fd5b5061081f6004803603602081101561080957600080fd5b81019080803590602001909291905050506118dc565b6040518082815260200191505060405180910390f35b34801561084157600080fd5b506108846004803603602081101561085857600080fd5b81019080803573ffffffffffffffffffffffffffffffffffffffff1690602001909291905050506118ff565b60405180821515815260200191505060405180910390f35b3480156108a857600080fd5b506108b1611959565b60405180821515815260200191505060405180910390f35b3480156108d557600080fd5b50610902600480360360208110156108ec57600080fd5b8101908080359060200190929190505050611970565b604051808273ffffffffffffffffffffffffffffffffffffffff16815260200191505060405180910390f35b34801561093a57600080fd5b5061097d6004803603602081101561095157600080fd5b81019080803573ffffffffffffffffffffffffffffffffffffffff1690602001909291905050506119a7565b005b34801561098b57600080fd5b50610994611a4d565b6040518080602001828103825283818151815260200191508051906020019080838360005b838110156109d45780820151818401526020810190506109b9565b50505050905090810190601f168015610a015780820380516001836020036101000a031916815260200191505b509250505060405180910390f35b348015610a1b57600080fd5b50610a5e60048036036020811015610a3257600080fd5b81019080803573ffffffffffffffffffffffffffffffffffffffff169060200190929190505050611aef565b6040518082815260200191505060405180910390f35b348015610a8057600080fd5b50610a89611bc4565b604051808273ffffffffffffffffffffffffffffffffffffffff16815260200191505060405180910390f35b348015610ac157600080fd5b50610aca611bea565b604051808273ffffffffffffffffffffffffffffffffffffffff16815260200191505060405180910390f35b348015610b0257600080fd5b50610b0b611c10565b005b348015610b1957600080fd5b50610b5060048036036040811015610b3057600080fd5b810190808035906020019092919080359060200190929190505050611ca0565b604051808273ffffffffffffffffffffffffffffffffffffffff16815260200191505060405180910390f35b348015610b8857600080fd5b50610bd560048036036040811015610b9f57600080fd5b8101908080359060200190929190803573ffffffffffffffffffffffffffffffffffffffff169060200190929190505050611cd1565b60405180821515815260200191505060405180910390f35b348015610bf957600080fd5b50610c02611d02565b6040518080602001828103825283818151815260200191508051906020019080838360005b83811015610c42578082015181840152602081019050610c27565b50505050905090810190601f168015610c6f5780820380516001836020036101000a031916815260200191505b509250505060405180910390f35b348015610c8957600080fd5b50610c92611da4565b6040518082815260200191505060405180910390f35b348015610cb457600080fd5b50610d0360048036036040811015610ccb57600080fd5b81019080803573ffffffffffffffffffffffffffffffffffffffff169060200190929190803515159060200190929190505050611dab565b005b348015610d1157600080fd5b50610e1560048036036080811015610d2857600080fd5b81019080803573ffffffffffffffffffffffffffffffffffffffff169060200190929190803573ffffffffffffffffffffffffffffffffffffffff1690602001909291908035906020019092919080359060200190640100000000811115610d8f57600080fd5b820183602082011115610da157600080fd5b80359060200191846001830284011164010000000083111715610dc357600080fd5b91908080601f016020809104026020016040519081016040528093929190818152602001838380828437600081840152601f19601f820116905080830192505050505050509192919290505050611f61565b005b348015610e2357600080fd5b50610e5060048036036020811015610e3a57600080fd5b8101908080359060200190929190505050611fd9565b6040518080602001828103825283818151815260200191508051906020019080838360005b83811015610e90578082015181840152602081019050610e75565b50505050905090810190601f168015610ebd5780820380516001836020036101000a031916815260200191505b509250505060405180910390f35b348015610ed757600080fd5b50610f0460048036036020811015610eee57600080fd5b81019080803590602001909291905050506122aa565b6040518082815260200191505060405180910390f35b348015610f2657600080fd5b50610f2f6122d0565b6040518082815260200191505060405180910390f35b348015610f5157600080fd5b50610f9e60048036036040811015610f6857600080fd5b8101908080359060200190929190803573ffffffffffffffffffffffffffffffffffffffff1690602001909291905050506122f4565b005b348015610fac57600080fd5b50610fef60048036036020811015610fc357600080fd5b81019080803573ffffffffffffffffffffffffffffffffffffffff16906020019092919050505061237d565b005b348015610ffd57600080fd5b506110066123c1565b005b34801561101457600080fd5b5061101d6123e7565b6040518082815260200191505060405180910390f35b34801561103f57600080fd5b506110a26004803603604081101561105657600080fd5b81019080803573ffffffffffffffffffffffffffffffffffffffff169060200190929190803573ffffffffffffffffffffffffffffffffffffffff16906020019092919050505061240b565b60405180821515815260200191505060405180910390f35b600060016000837bffffffffffffffffffffffffffffffffffffffffffffffffffffffff19167bffffffffffffffffffffffffffffffffffffffffffffffffffffffff1916815260200190815260200160002060009054906101000a900460ff169050919050565b606060078054600181600116156101000203166002900480601f0160208091040260200160405190810160405280929190818152602001828054600181600116156101000203166002900480156111ba5780601f1061118f576101008083540402835291602001916111ba565b820191906000526020600020905b81548152906001019060200180831161119d57829003601f168201915b5050505050905090565b60006111cf8261250b565b611224576040517f08c379a000000000000000000000000000000000000000000000000000000000815260040180806020018281038252602c815260200180614092602c913960400191505060405180910390fd5b6005600083815260200190815260200160002060009054906101000a900473ffffffffffffffffffffffffffffffffffffffff169050919050565b600061126a82611970565b90508073ffffffffffffffffffffffffffffffffffffffff168373ffffffffffffffffffffffffffffffffffffffff1614156112f1576040517f08c379a00000000000000000000000000000000000000000000000000000000081526004018080602001828103825260218152602001806141166021913960400191505060405180910390fd5b8073ffffffffffffffffffffffffffffffffffffffff16611310612528565b73ffffffffffffffffffffffffffffffffffffffff16148061133f575061133e81611339612528565b61240b565b5b611394576040517f08c379a0000000000000000000000000000000000000000000000000000000008152600401808060200182810382526038815260200180613fe56038913960400191505060405180910390fd5b61139e8383612537565b505050565b565b60006113b160036125f0565b905090565b6113c76113c1612528565b82612605565b61141c576040517f08c379a00000000000000000000000000000000000000000000000000000000081526004018080602001828103825260318152602001806141376031913960400191505060405180910390fd5b6114278383836126f9565b505050565b6000806000838152602001908152602001600020600201549050919050565b6114716000808481526020019081526020016000206002015461146c612528565b611cd1565b6114c6576040517f08c379a000000000000000000000000000000000000000000000000000000000815260040180806020018281038252602f815260200180613ea0602f913960400191505060405180910390fd5b6114d0828261293c565b5050565b600061152782600260008673ffffffffffffffffffffffffffffffffffffffff1673ffffffffffffffffffffffffffffffffffffffff1681526020019081526020016000206129cf90919063ffffffff16565b905092915050565b611537612528565b73ffffffffffffffffffffffffffffffffffffffff168173ffffffffffffffffffffffffffffffffffffffff16146115ba576040517f08c379a000000000000000000000000000000000000000000000000000000000815260040180806020018281038252602f81526020018061423d602f913960400191505060405180910390fd5b6115c482826129e9565b5050565b6115f97f65d7a28e3265b37a6474929f336521b332c1681b933f6cb9f3376673440d862a6115f4612528565b611cd1565b61164e576040517f08c379a00000000000000000000000000000000000000000000000000000000081526004018080602001828103825260408152602001806141fd6040913960400191505060405180910390fd5b611656612a7c565b565b601560009054906101000a900473ffffffffffffffffffffffffffffffffffffffff1673ffffffffffffffffffffffffffffffffffffffff166108fc6508a3e42018009081150290604051600060405180830381858888f193505050501580156116c6573d6000803e3d6000fd5b506116e16116d2612528565b6116dc6014612b67565b612b75565b6116eb6014612d69565b565b61170883838360405180602001604052806000815250611f61565b505050565b61171e611718612528565b82612605565b611773576040517f08c379a00000000000000000000000000000000000000000000000000000000081526004018080602001828103825260308152602001806141cd6030913960400191505060405180910390fd5b61177c81612d7f565b50565b816012600082815260200190815260200160002060009054906101000a900473ffffffffffffffffffffffffffffffffffffffff1673ffffffffffffffffffffffffffffffffffffffff163373ffffffffffffffffffffffffffffffffffffffff1614611837576040517f08c379a00000000000000000000000000000000000000000000000000000000081526004018080602001828103825260288152602001806141686028913960400191505060405180910390fd5b6012600082815260200190815260200160002060006101000a81549073ffffffffffffffffffffffffffffffffffffffff0219169055807f7cc135e0cebb02c3480ae5d74d377283180a2601f8f644edf7987b009316c63a60405160405180910390a2505050565b60606040518060400160405280600381526020017f302e310000000000000000000000000000000000000000000000000000000000815250905090565b6000806118f3836003612eb990919063ffffffff16565b50905080915050919050565b6000601360009054906101000a900473ffffffffffffffffffffffffffffffffffffffff1673ffffffffffffffffffffffffffffffffffffffff168273ffffffffffffffffffffffffffffffffffffffff16149050919050565b6000600b60009054906101000a900460ff16905090565b60006119a082604051806060016040528060298152602001614047602991396003612ee59092919063ffffffff16565b9050919050565b6119d87f9f2df0fed2c77648de5860a4cc508cd0818c85b8b8a1ab4ceeef8d981c8956a66119d3612528565b611cd1565b611a2d576040517f08c379a000000000000000000000000000000000000000000000000000000000815260040180806020018281038252603d815260200180614190603d913960400191505060405180910390fd5b611a4081611a3b600c612b67565b612b75565b611a4a600c612d69565b50565b6060600a8054600181600116156101000203166002900480601f016020809104026020016040519081016040528092919081815260200182805460018160011615610100020316600290048015611ae55780601f10611aba57610100808354040283529160200191611ae5565b820191906000526020600020905b815481529060010190602001808311611ac857829003601f168201915b5050505050905090565b60008073ffffffffffffffffffffffffffffffffffffffff168273ffffffffffffffffffffffffffffffffffffffff161415611b76576040517f08c379a000000000000000000000000000000000000000000000000000000000815260040180806020018281038252602a81526020018061401d602a913960400191505060405180910390fd5b611bbd600260008473ffffffffffffffffffffffffffffffffffffffff1673ffffffffffffffffffffffffffffffffffffffff168152602001908152602001600020612f04565b9050919050565b601560009054906101000a900473ffffffffffffffffffffffffffffffffffffffff1681565b601360009054906101000a900473ffffffffffffffffffffffffffffffffffffffff1681565b611c417f65d7a28e3265b37a6474929f336521b332c1681b933f6cb9f3376673440d862a611c3c612528565b611cd1565b611c96576040517f08c379a000000000000000000000000000000000000000000000000000000000815260040180806020018281038252603e815260200180613f01603e913960400191505060405180910390fd5b611c9e612f19565b565b6000611cc98260008086815260200190815260200160002060000161300590919063ffffffff16565b905092915050565b6000611cfa8260008086815260200190815260200160002060000161301f90919063ffffffff16565b905092915050565b606060088054600181600116156101000203166002900480601f016020809104026020016040519081016040528092919081815260200182805460018160011615610100020316600290048015611d9a5780601f10611d6f57610100808354040283529160200191611d9a565b820191906000526020600020905b815481529060010190602001808311611d7d57829003601f168201915b5050505050905090565b6000801b81565b611db3612528565b73ffffffffffffffffffffffffffffffffffffffff168273ffffffffffffffffffffffffffffffffffffffff161415611e54576040517f08c379a00000000000000000000000000000000000000000000000000000000081526004018080602001828103825260198152602001807f4552433732313a20617070726f766520746f2063616c6c65720000000000000081525060200191505060405180910390fd5b8060066000611e61612528565b73ffffffffffffffffffffffffffffffffffffffff1673ffffffffffffffffffffffffffffffffffffffff16815260200190815260200160002060008473ffffffffffffffffffffffffffffffffffffffff1673ffffffffffffffffffffffffffffffffffffffff16815260200190815260200160002060006101000a81548160ff0219169083151502179055508173ffffffffffffffffffffffffffffffffffffffff16611f0e612528565b73ffffffffffffffffffffffffffffffffffffffff167f17307eab39ab6107e8899845ad3d59bd9653f200f220920489ca2b5937696c318360405180821515815260200191505060405180910390a35050565b611f72611f6c612528565b83612605565b611fc7576040517f08c379a00000000000000000000000000000000000000000000000000000000081526004018080602001828103825260318152602001806141376031913960400191505060405180910390fd5b611fd38484848461304f565b50505050565b6060611fe48261250b565b612039576040517f08c379a000000000000000000000000000000000000000000000000000000000815260040180806020018281038252602f8152602001806140e7602f913960400191505060405180910390fd5b6060600960008481526020019081526020016000208054600181600116156101000203166002900480601f0160208091040260200160405190810160405280929190818152602001828054600181600116156101000203166002900480156120e25780601f106120b7576101008083540402835291602001916120e2565b820191906000526020600020905b8154815290600101906020018083116120c557829003601f168201915b5050505050905060606120f3611a4d565b90506000815114156121095781925050506122a5565b6000825111156121da5780826040516020018083805190602001908083835b6020831061214b5780518252602082019150602081019050602083039250612128565b6001836020036101000a03801982511681845116808217855250505050505090500182805190602001908083835b6020831061219c5780518252602082019150602081019050602083039250612179565b6001836020036101000a03801982511681845116808217855250505050505090500192505050604051602081830303815290604052925050506122a5565b806121e4856130c1565b6040516020018083805190602001908083835b6020831061221a57805182526020820191506020810190506020830392506121f7565b6001836020036101000a03801982511681845116808217855250505050505090500182805190602001908083835b6020831061226b5780518252602082019150602081019050602083039250612248565b6001836020036101000a03801982511681845116808217855250505050505090500192505050604051602081830303815290604052925050505b919050565b60006122c9600080848152602001908152602001600020600001613208565b9050919050565b7f9f2df0fed2c77648de5860a4cc508cd0818c85b8b8a1ab4ceeef8d981c8956a681565b61231a60008084815260200190815260200160002060020154612315612528565b611cd1565b61236f576040517f08c379a0000000000000000000000000000000000000000000000000000000008152600401808060200182810382526030815260200180613fb56030913960400191505060405180910390fd5b61237982826129e9565b5050565b80601360006101000a81548173ffffffffffffffffffffffffffffffffffffffff021916908373ffffffffffffffffffffffffffffffffffffffff16021790555050565b6123db6123cc612528565b6123d66014612b67565b612b75565b6123e56014612d69565b565b7f65d7a28e3265b37a6474929f336521b332c1681b933f6cb9f3376673440d862a81565b6000600660008473ffffffffffffffffffffffffffffffffffffffff1673ffffffffffffffffffffffffffffffffffffffff16815260200190815260200160002060008373ffffffffffffffffffffffffffffffffffffffff1673ffffffffffffffffffffffffffffffffffffffff16815260200190815260200160002060009054906101000a900460ff16905092915050565b600060186000369050101580156124bb57506124ba336118ff565b5b156124cf57601436033560601c90506124d7565b3390506124d8565b5b90565b6000612503836000018373ffffffffffffffffffffffffffffffffffffffff1660001b61321d565b905092915050565b600061252182600361328d90919063ffffffff16565b9050919050565b600061253261249f565b905090565b816005600083815260200190815260200160002060006101000a81548173ffffffffffffffffffffffffffffffffffffffff021916908373ffffffffffffffffffffffffffffffffffffffff160217905550808273ffffffffffffffffffffffffffffffffffffffff166125aa83611970565b73ffffffffffffffffffffffffffffffffffffffff167f8c5be1e5ebec7d5bd14f71427d1e84f3dd0314c0f7b2291e5b200ac8c7c3b92560405160405180910390a45050565b60006125fe826000016132a7565b9050919050565b60006126108261250b565b612665576040517f08c379a000000000000000000000000000000000000000000000000000000000815260040180806020018281038252602c815260200180613f89602c913960400191505060405180910390fd5b600061267083611970565b90508073ffffffffffffffffffffffffffffffffffffffff168473ffffffffffffffffffffffffffffffffffffffff1614806126df57508373ffffffffffffffffffffffffffffffffffffffff166126c7846111c4565b73ffffffffffffffffffffffffffffffffffffffff16145b806126f057506126ef818561240b565b5b91505092915050565b8273ffffffffffffffffffffffffffffffffffffffff1661271982611970565b73ffffffffffffffffffffffffffffffffffffffff1614612785576040517f08c379a00000000000000000000000000000000000000000000000000000000081526004018080602001828103825260298152602001806140be6029913960400191505060405180910390fd5b600073ffffffffffffffffffffffffffffffffffffffff168273ffffffffffffffffffffffffffffffffffffffff16141561280b576040517f08c379a0000000000000000000000000000000000000000000000000000000008152600401808060200182810382526024815260200180613f3f6024913960400191505060405180910390fd5b6128168383836132b8565b612821600082612537565b61287281600260008673ffffffffffffffffffffffffffffffffffffffff1673ffffffffffffffffffffffffffffffffffffffff1681526020019081526020016000206132c890919063ffffffff16565b506128c481600260008573ffffffffffffffffffffffffffffffffffffffff1673ffffffffffffffffffffffffffffffffffffffff1681526020019081526020016000206132e290919063ffffffff16565b506128db818360036132fc9092919063ffffffff16565b50808273ffffffffffffffffffffffffffffffffffffffff168473ffffffffffffffffffffffffffffffffffffffff167fddf252ad1be2c89b69c2b068fc378daa952ba7f163c4a11628f55a4df523b3ef60405160405180910390a4505050565b612963816000808581526020019081526020016000206000016124db90919063ffffffff16565b156129cb57612970612528565b73ffffffffffffffffffffffffffffffffffffffff168173ffffffffffffffffffffffffffffffffffffffff16837f2f8788117e7eff1d82e926ec794901d17c78024a50270940304540a733656f0d60405160405180910390a45b5050565b60006129de8360000183613331565b60001c905092915050565b612a10816000808581526020019081526020016000206000016133b490919063ffffffff16565b15612a7857612a1d612528565b73ffffffffffffffffffffffffffffffffffffffff168173ffffffffffffffffffffffffffffffffffffffff16837ff6391f5c32d9c69d2a47ea670b442974b53935d1edc7fd64eb21e047a839171b60405160405180910390a45b5050565b612a84611959565b612af6576040517f08c379a00000000000000000000000000000000000000000000000000000000081526004018080602001828103825260148152602001807f5061757361626c653a206e6f742070617573656400000000000000000000000081525060200191505060405180910390fd5b6000600b60006101000a81548160ff0219169083151502179055507f5db9ee0a495bf2e6ff9c91a7834c1ba4fdd244a5e8aa4e537bd38aeae4b073aa612b3a612528565b604051808273ffffffffffffffffffffffffffffffffffffffff16815260200191505060405180910390a1565b600081600001549050919050565b600073ffffffffffffffffffffffffffffffffffffffff168273ffffffffffffffffffffffffffffffffffffffff161415612c18576040517f08c379a00000000000000000000000000000000000000000000000000000000081526004018080602001828103825260208152602001807f4552433732313a206d696e7420746f20746865207a65726f206164647265737381525060200191505060405180910390fd5b612c218161250b565b15612c94576040517f08c379a000000000000000000000000000000000000000000000000000000000815260040180806020018281038252601c8152602001807f4552433732313a20746f6b656e20616c7265616479206d696e7465640000000081525060200191505060405180910390fd5b612ca0600083836132b8565b612cf181600260008573ffffffffffffffffffffffffffffffffffffffff1673ffffffffffffffffffffffffffffffffffffffff1681526020019081526020016000206132e290919063ffffffff16565b50612d08818360036132fc9092919063ffffffff16565b50808273ffffffffffffffffffffffffffffffffffffffff16600073ffffffffffffffffffffffffffffffffffffffff167fddf252ad1be2c89b69c2b068fc378daa952ba7f163c4a11628f55a4df523b3ef60405160405180910390a45050565b6001816000016000828254019250508190555050565b6000612d8a82611970565b9050612d98816000846132b8565b612da3600083612537565b60006009600084815260200190815260200160002080546001816001161561010002031660029004905014612df257600960008381526020019081526020016000206000612df19190613ded565b5b612e4382600260008473ffffffffffffffffffffffffffffffffffffffff1673ffffffffffffffffffffffffffffffffffffffff1681526020019081526020016000206132c890919063ffffffff16565b50612e588260036133e490919063ffffffff16565b5081600073ffffffffffffffffffffffffffffffffffffffff168273ffffffffffffffffffffffffffffffffffffffff167fddf252ad1be2c89b69c2b068fc378daa952ba7f163c4a11628f55a4df523b3ef60405160405180910390a45050565b600080600080612ecc86600001866133fe565b915091508160001c8160001c9350935050509250929050565b6000612ef8846000018460001b84613497565b60001c90509392505050565b6000612f128260000161358d565b9050919050565b612f21611959565b15612f94576040517f08c379a00000000000000000000000000000000000000000000000000000000081526004018080602001828103825260108152602001807f5061757361626c653a207061757365640000000000000000000000000000000081525060200191505060405180910390fd5b6001600b60006101000a81548160ff0219169083151502179055507f62e78cea01bee320cd4e420270b5ea74000d11b0c9f74754ebdbfc544b05a258612fd8612528565b604051808273ffffffffffffffffffffffffffffffffffffffff16815260200191505060405180910390a1565b60006130148360000183613331565b60001c905092915050565b6000613047836000018373ffffffffffffffffffffffffffffffffffffffff1660001b61359e565b905092915050565b61305a8484846126f9565b613066848484846135c1565b6130bb576040517f08c379a0000000000000000000000000000000000000000000000000000000008152600401808060200182810382526032815260200180613ecf6032913960400191505060405180910390fd5b50505050565b60606000821415613109576040518060400160405280600181526020017f30000000000000000000000000000000000000000000000000000000000000008152509050613203565b600082905060005b60008214613133578080600101915050600a828161312b57fe5b049150613111565b60608167ffffffffffffffff8111801561314c57600080fd5b506040519080825280601f01601f19166020018201604052801561317f5781602001600182028036833780820191505090505b50905060006001830390508593505b600084146131fb57600a84816131a057fe5b0660300160f81b828280600190039350815181106131ba57fe5b60200101907effffffffffffffffffffffffffffffffffffffffffffffffffffffffffffff1916908160001a905350600a84816131f357fe5b04935061318e565b819450505050505b919050565b60006132168260000161358d565b9050919050565b6000613229838361359e565b613282578260000182908060018154018082558091505060019003906000526020600020016000909190919091505582600001805490508360010160008481526020019081526020016000208190555060019050613287565b600090505b92915050565b600061329f836000018360001b6137da565b905092915050565b600081600001805490509050919050565b6132c38383836137fd565b505050565b60006132da836000018360001b61386b565b905092915050565b60006132f4836000018360001b61321d565b905092915050565b6000613328846000018460001b8473ffffffffffffffffffffffffffffffffffffffff1660001b613953565b90509392505050565b600081836000018054905011613392576040517f08c379a0000000000000000000000000000000000000000000000000000000008152600401808060200182810382526022815260200180613e536022913960400191505060405180910390fd5b8260000182815481106133a157fe5b9060005260206000200154905092915050565b60006133dc836000018373ffffffffffffffffffffffffffffffffffffffff1660001b61386b565b905092915050565b60006133f6836000018360001b613a2f565b905092915050565b60008082846000018054905011613460576040517f08c379a00000000000000000000000000000000000000000000000000000000081526004018080602001828103825260228152602001806140706022913960400191505060405180910390fd5b600084600001848154811061347157fe5b906000526020600020906002020190508060000154816001015492509250509250929050565b6000808460010160008581526020019081526020016000205490506000811415839061355e576040517f08c379a00000000000000000000000000000000000000000000000000000000081526004018080602001828103825283818151815260200191508051906020019080838360005b83811015613523578082015181840152602081019050613508565b50505050905090810190601f1680156135505780820380516001836020036101000a031916815260200191505b509250505060405180910390fd5b5084600001600182038154811061357157fe5b9060005260206000209060020201600101549150509392505050565b600081600001805490509050919050565b600080836001016000848152602001908152602001600020541415905092915050565b60006135e28473ffffffffffffffffffffffffffffffffffffffff16613b48565b6135ef57600190506137d2565b606061375963150b7a0260e01b613604612528565b888787604051602401808573ffffffffffffffffffffffffffffffffffffffff1681526020018473ffffffffffffffffffffffffffffffffffffffff16815260200183815260200180602001828103825283818151815260200191508051906020019080838360005b8381101561368857808201518184015260208101905061366d565b50505050905090810190601f1680156136b55780820380516001836020036101000a031916815260200191505b5095505050505050604051602081830303815290604052907bffffffffffffffffffffffffffffffffffffffffffffffffffffffff19166020820180517bffffffffffffffffffffffffffffffffffffffffffffffffffffffff8381831617835250505050604051806060016040528060328152602001613ecf603291398773ffffffffffffffffffffffffffffffffffffffff16613b5b9092919063ffffffff16565b9050600081806020019051602081101561377257600080fd5b8101908080519060200190929190505050905063150b7a0260e01b7bffffffffffffffffffffffffffffffffffffffffffffffffffffffff1916817bffffffffffffffffffffffffffffffffffffffffffffffffffffffff191614925050505b949350505050565b600080836001016000848152602001908152602001600020541415905092915050565b613808838383613b73565b613810611959565b15613866576040517f08c379a000000000000000000000000000000000000000000000000000000000815260040180806020018281038252602b815260200180613e75602b913960400191505060405180910390fd5b505050565b6000808360010160008481526020019081526020016000205490506000811461394757600060018203905060006001866000018054905003905060008660000182815481106138b657fe5b90600052602060002001549050808760000184815481106138d357fe5b906000526020600020018190555060018301876001016000838152602001908152602001600020819055508660000180548061390b57fe5b6001900381819060005260206000200160009055905586600101600087815260200190815260200160002060009055600194505050505061394d565b60009150505b92915050565b60008084600101600085815260200190815260200160002054905060008114156139fa57846000016040518060400160405280868152602001858152509080600181540180825580915050600190039060005260206000209060020201600090919091909150600082015181600001556020820151816001015550508460000180549050856001016000868152602001908152602001600020819055506001915050613a28565b82856000016001830381548110613a0d57fe5b90600052602060002090600202016001018190555060009150505b9392505050565b60008083600101600084815260200190815260200160002054905060008114613b3c5760006001820390506000600186600001805490500390506000866000018281548110613a7a57fe5b9060005260206000209060020201905080876000018481548110613a9a57fe5b9060005260206000209060020201600082015481600001556001820154816001015590505060018301876001016000836000015481526020019081526020016000208190555086600001805480613aed57fe5b6001900381819060005260206000209060020201600080820160009055600182016000905550509055866001016000878152602001908152602001600020600090556001945050505050613b42565b60009150505b92915050565b600080823b905060008111915050919050565b6060613b6a8484600085613b78565b90509392505050565b505050565b606082471015613bd3576040517f08c379a0000000000000000000000000000000000000000000000000000000008152600401808060200182810382526026815260200180613f636026913960400191505060405180910390fd5b613bdc85613b48565b613c4e576040517f08c379a000000000000000000000000000000000000000000000000000000000815260040180806020018281038252601d8152602001807f416464726573733a2063616c6c20746f206e6f6e2d636f6e747261637400000081525060200191505060405180910390fd5b600060608673ffffffffffffffffffffffffffffffffffffffff1685876040518082805190602001908083835b60208310613c9e5780518252602082019150602081019050602083039250613c7b565b6001836020036101000a03801982511681845116808217855250505050505090500191505060006040518083038185875af1925050503d8060008114613d00576040519150601f19603f3d011682016040523d82523d6000602084013e613d05565b606091505b5091509150613d15828286613d21565b92505050949350505050565b60608315613d3157829050613de6565b600083511115613d445782518084602001fd5b816040517f08c379a00000000000000000000000000000000000000000000000000000000081526004018080602001828103825283818151815260200191508051906020019080838360005b83811015613dab578082015181840152602081019050613d90565b50505050905090810190601f168015613dd85780820380516001836020036101000a031916815260200191505b509250505060405180910390fd5b9392505050565b50805460018160011615610100020316600290046000825580601f10613e135750613e32565b601f016020900490600052602060002090810190613e319190613e35565b5b50565b5b80821115613e4e576000816000905550600101613e36565b509056fe456e756d657261626c655365743a20696e646578206f7574206f6620626f756e64734552433732315061757361626c653a20746f6b656e207472616e73666572207768696c6520706175736564416363657373436f6e74726f6c3a2073656e646572206d75737420626520616e2061646d696e20746f206772616e744552433732313a207472616e7366657220746f206e6f6e20455243373231526563656976657220696d706c656d656e7465724552433732315072657365744d696e7465725061757365724175746f49643a206d75737420686176652070617573657220726f6c6520746f2070617573654552433732313a207472616e7366657220746f20746865207a65726f2061646472657373416464726573733a20696e73756666696369656e742062616c616e636520666f722063616c6c4552433732313a206f70657261746f7220717565727920666f72206e6f6e6578697374656e7420746f6b656e416363657373436f6e74726f6c3a2073656e646572206d75737420626520616e2061646d696e20746f207265766f6b654552433732313a20617070726f76652063616c6c6572206973206e6f74206f776e6572206e6f7220617070726f76656420666f7220616c6c4552433732313a2062616c616e636520717565727920666f7220746865207a65726f20616464726573734552433732313a206f776e657220717565727920666f72206e6f6e6578697374656e7420746f6b656e456e756d657261626c654d61703a20696e646578206f7574206f6620626f756e64734552433732313a20617070726f76656420717565727920666f72206e6f6e6578697374656e7420746f6b656e4552433732313a207472616e73666572206f6620746f6b656e2074686174206973206e6f74206f776e4552433732314d657461646174613a2055524920717565727920666f72206e6f6e6578697374656e7420746f6b656e4552433732313a20617070726f76616c20746f2063757272656e74206f776e65724552433732313a207472616e736665722063616c6c6572206973206e6f74206f776e6572206e6f7220617070726f766564536f75726365206d75737420626520746865206f7261636c65206f662074686520726571756573744552433732315072657365744d696e7465725061757365724175746f49643a206d7573742068617665206d696e74657220726f6c6520746f206d696e744552433732314275726e61626c653a2063616c6c6572206973206e6f74206f776e6572206e6f7220617070726f7665644552433732315072657365744d696e7465725061757365724175746f49643a206d75737420686176652070617573657220726f6c6520746f20756e7061757365416363657373436f6e74726f6c3a2063616e206f6e6c792072656e6f756e636520726f6c657320666f722073656c66a26469706673582212200ad741c538b06640b9e933db30f5361c0db7f9b1a1b3f6f3befd92293cd8dfe864736f6c634300060c003368747470733a2f2f63727970746f2d706c616e74732d6d657461646174612d6261636b656e642e6865726f6b756170702e636f6d2f706c616e742f",
  "immutableReferences": {},
  "source": "// SPDX-License-Identifier: MIT\npragma solidity ^0.6;\n\nimport \"../client/node_modules/@openzeppelin/contracts/utils/Counters.sol\";\nimport \"../client/node_modules/@openzeppelin/contracts/presets/ERC721PresetMinterPauserAutoId.sol\";\nimport \"../client/node_modules/@chainlink/contracts/src/v0.6/ChainlinkClient.sol\";\nimport \"../client/node_modules/@chainlink/contracts/src/v0.6/Chainlink.sol\";\nimport \"../client/node_modules/@opengsn/gsn/contracts/BaseRelayRecipient.sol\";\n\ncontract CryptoPlant is ERC721PresetMinterPauserAutoId, ChainlinkClient, BaseRelayRecipient {\n    using Counters for Counters.Counter;\n    Counters.Counter private _tokenIdTracker;\n    address payable public orgAddress;\n\n    address private oracle;\n    bytes32 private jobId;\n    uint256 private fee;\n\n    constructor()\n        public\n        ERC721PresetMinterPauserAutoId(\n            \"CryptoPlant\",\n            \"CPT\",\n            \"https://crypto-plants-metadata-backend.herokuapp.com/plant/\"\n        )\n    {\n        orgAddress = 0x42F323c617c0a6d18547B8a2AaF8BcD1Abe617c9;\n\n        //chainlink\n        oracle = 0x2f90A6D021db21e1B2A077c5a37B3C7E75D15b7e;\n        jobId = \"29fa9aa13bf1468788b7cc4a500a45b8\";\n        fee = 0.1 * 10**18; // 0.1 LINK\n\n        // ERC20 forwarder\n        trustedForwarder = 0x58697867383da03CBA35617BFbb3c0f6f91074d8;\n    }\n\n    receive() external payable {}\n\n    function sendEther() public payable {}\n\n    // function purchaseSeed() public payable returns (bytes32 requestId) {\n    function purchaseSeed() public payable {\n        // require(msg.value == 0.00001 ether);\n        orgAddress.transfer(0.0000095 ether); // 5% comission\n\n        // Mint token\n        _mint(_msgSender(), _tokenIdTracker.current());\n        _tokenIdTracker.increment();\n\n        // // API call to create metadata using Chainlink\n        // Chainlink.Request memory request =\n        //     buildChainlinkRequest(jobId, address(this), this.fulfill.selector);\n\n        // request.add(\n        //     \"get\",\n        //     \"https://crypto-plants-metadata-backend.herokuapp.com/newplant/\"\n        // );\n        // int256 timesAmount = 10**18;\n        // request.addInt(\"times\", timesAmount);\n\n        // return sendChainlinkRequestTo(oracle, request, fee);\n    }\n\n    // TODO add access control\n    // Call after starting superflow stream\n    function purchaseSubscription() public {\n        _mint(_msgSender(), _tokenIdTracker.current());\n        _tokenIdTracker.increment();\n    }\n\n    function fulfill(bytes32 _requestId, uint256 _volume)\n        public\n        recordChainlinkFulfillment(_requestId)\n    {\n    }\n\n    /** Biconomy setup **/\n\n    function _msgSender() internal view override(Context, BaseRelayRecipient) returns (address payable ret) {\n        return BaseRelayRecipient._msgSender();\n    }\n\n    function _msgData() internal view override(Context, BaseRelayRecipient) returns (bytes memory ret) {\n    return BaseRelayRecipient._msgData();\n    }\n\n    // TODO access control: only owner can set\n    function setTrustedForwarder(address _forwarder) public {\n        trustedForwarder = _forwarder;\n    }\n\n    function versionRecipient() external override view returns (string memory) {\n        return \"0.1\";\n    }\n\n}\n",
  "sourcePath": "/Users/hp/Documents/denver-hack/crypto-plants/contracts/CryptoPlant.sol",
  "compiler": {
    "name": "solc",
    "version": "0.6.12+commit.27d51765.Emscripten.clang"
  },
  "schemaVersion": "3.3.4",
  "updatedAt": "2021-02-24T13:00:40.239Z",
  "networkType": "ethereum",
  "devdoc": {
    "kind": "dev",
    "methods": {
      "approve(address,uint256)": {
        "details": "See {IERC721-approve}."
      },
      "balanceOf(address)": {
        "details": "See {IERC721-balanceOf}."
      },
      "baseURI()": {
        "details": "Returns the base URI set via {_setBaseURI}. This will be automatically added as a prefix in {tokenURI} to each token's URI, or to the token ID if no specific URI is set for that token ID."
      },
      "burn(uint256)": {
        "details": "Burns `tokenId`. See {ERC721-_burn}. Requirements: - The caller must own `tokenId` or be an approved operator."
      },
      "getApproved(uint256)": {
        "details": "See {IERC721-getApproved}."
      },
      "getRoleAdmin(bytes32)": {
        "details": "Returns the admin role that controls `role`. See {grantRole} and {revokeRole}. To change a role's admin, use {_setRoleAdmin}."
      },
      "getRoleMember(bytes32,uint256)": {
        "details": "Returns one of the accounts that have `role`. `index` must be a value between 0 and {getRoleMemberCount}, non-inclusive. Role bearers are not sorted in any particular way, and their ordering may change at any point. WARNING: When using {getRoleMember} and {getRoleMemberCount}, make sure you perform all queries on the same block. See the following https://forum.openzeppelin.com/t/iterating-over-elements-on-enumerableset-in-openzeppelin-contracts/2296[forum post] for more information."
      },
      "getRoleMemberCount(bytes32)": {
        "details": "Returns the number of accounts that have `role`. Can be used together with {getRoleMember} to enumerate all bearers of a role."
      },
      "grantRole(bytes32,address)": {
        "details": "Grants `role` to `account`. If `account` had not been already granted `role`, emits a {RoleGranted} event. Requirements: - the caller must have ``role``'s admin role."
      },
      "hasRole(bytes32,address)": {
        "details": "Returns `true` if `account` has been granted `role`."
      },
      "isApprovedForAll(address,address)": {
        "details": "See {IERC721-isApprovedForAll}."
      },
      "mint(address)": {
        "details": "Creates a new token for `to`. Its token ID will be automatically assigned (and available on the emitted {IERC721-Transfer} event), and the token URI autogenerated based on the base URI passed at construction. See {ERC721-_mint}. Requirements: - the caller must have the `MINTER_ROLE`."
      },
      "name()": {
        "details": "See {IERC721Metadata-name}."
      },
      "ownerOf(uint256)": {
        "details": "See {IERC721-ownerOf}."
      },
      "pause()": {
        "details": "Pauses all token transfers. See {ERC721Pausable} and {Pausable-_pause}. Requirements: - the caller must have the `PAUSER_ROLE`."
      },
      "paused()": {
        "details": "Returns true if the contract is paused, and false otherwise."
      },
      "renounceRole(bytes32,address)": {
        "details": "Revokes `role` from the calling account. Roles are often managed via {grantRole} and {revokeRole}: this function's purpose is to provide a mechanism for accounts to lose their privileges if they are compromised (such as when a trusted device is misplaced). If the calling account had been granted `role`, emits a {RoleRevoked} event. Requirements: - the caller must be `account`."
      },
      "revokeRole(bytes32,address)": {
        "details": "Revokes `role` from `account`. If `account` had been granted `role`, emits a {RoleRevoked} event. Requirements: - the caller must have ``role``'s admin role."
      },
      "safeTransferFrom(address,address,uint256)": {
        "details": "See {IERC721-safeTransferFrom}."
      },
      "safeTransferFrom(address,address,uint256,bytes)": {
        "details": "See {IERC721-safeTransferFrom}."
      },
      "setApprovalForAll(address,bool)": {
        "details": "See {IERC721-setApprovalForAll}."
      },
      "supportsInterface(bytes4)": {
        "details": "See {IERC165-supportsInterface}. Time complexity O(1), guaranteed to always use less than 30 000 gas."
      },
      "symbol()": {
        "details": "See {IERC721Metadata-symbol}."
      },
      "tokenByIndex(uint256)": {
        "details": "See {IERC721Enumerable-tokenByIndex}."
      },
      "tokenOfOwnerByIndex(address,uint256)": {
        "details": "See {IERC721Enumerable-tokenOfOwnerByIndex}."
      },
      "tokenURI(uint256)": {
        "details": "See {IERC721Metadata-tokenURI}."
      },
      "totalSupply()": {
        "details": "See {IERC721Enumerable-totalSupply}."
      },
      "transferFrom(address,address,uint256)": {
        "details": "See {IERC721-transferFrom}."
      },
      "unpause()": {
        "details": "Unpauses all token transfers. See {ERC721Pausable} and {Pausable-_unpause}. Requirements: - the caller must have the `PAUSER_ROLE`."
      }
    },
    "version": 1
  },
  "userdoc": {
    "kind": "user",
    "methods": {
      "isTrustedForwarder(address)": {
        "notice": "return if the forwarder is trusted to forward relayed transactions to us. the forwarder is required to verify the sender's signature, and verify the call is not a replay."
      }
    },
    "version": 1
  }
}