{
  "contractName": "CryptoPlant",
  "abi": [
    {
      "inputs": [],
      "stateMutability": "nonpayable",
      "type": "constructor"
    },
    {
      "anonymous": false,
      "inputs": [
        {
          "indexed": true,
          "internalType": "address",
          "name": "owner",
          "type": "address"
        },
        {
          "indexed": true,
          "internalType": "address",
          "name": "approved",
          "type": "address"
        },
        {
          "indexed": true,
          "internalType": "uint256",
          "name": "tokenId",
          "type": "uint256"
        }
      ],
      "name": "Approval",
      "type": "event"
    },
    {
      "anonymous": false,
      "inputs": [
        {
          "indexed": true,
          "internalType": "address",
          "name": "owner",
          "type": "address"
        },
        {
          "indexed": true,
          "internalType": "address",
          "name": "operator",
          "type": "address"
        },
        {
          "indexed": false,
          "internalType": "bool",
          "name": "approved",
          "type": "bool"
        }
      ],
      "name": "ApprovalForAll",
      "type": "event"
    },
    {
      "anonymous": false,
      "inputs": [
        {
          "indexed": true,
          "internalType": "bytes32",
          "name": "id",
          "type": "bytes32"
        }
      ],
      "name": "ChainlinkCancelled",
      "type": "event"
    },
    {
      "anonymous": false,
      "inputs": [
        {
          "indexed": true,
          "internalType": "bytes32",
          "name": "id",
          "type": "bytes32"
        }
      ],
      "name": "ChainlinkFulfilled",
      "type": "event"
    },
    {
      "anonymous": false,
      "inputs": [
        {
          "indexed": true,
          "internalType": "bytes32",
          "name": "id",
          "type": "bytes32"
        }
      ],
      "name": "ChainlinkRequested",
      "type": "event"
    },
    {
      "anonymous": false,
      "inputs": [
        {
          "indexed": false,
          "internalType": "address",
          "name": "account",
          "type": "address"
        }
      ],
      "name": "Paused",
      "type": "event"
    },
    {
      "anonymous": false,
      "inputs": [
        {
          "indexed": true,
          "internalType": "bytes32",
          "name": "role",
          "type": "bytes32"
        },
        {
          "indexed": true,
          "internalType": "bytes32",
          "name": "previousAdminRole",
          "type": "bytes32"
        },
        {
          "indexed": true,
          "internalType": "bytes32",
          "name": "newAdminRole",
          "type": "bytes32"
        }
      ],
      "name": "RoleAdminChanged",
      "type": "event"
    },
    {
      "anonymous": false,
      "inputs": [
        {
          "indexed": true,
          "internalType": "bytes32",
          "name": "role",
          "type": "bytes32"
        },
        {
          "indexed": true,
          "internalType": "address",
          "name": "account",
          "type": "address"
        },
        {
          "indexed": true,
          "internalType": "address",
          "name": "sender",
          "type": "address"
        }
      ],
      "name": "RoleGranted",
      "type": "event"
    },
    {
      "anonymous": false,
      "inputs": [
        {
          "indexed": true,
          "internalType": "bytes32",
          "name": "role",
          "type": "bytes32"
        },
        {
          "indexed": true,
          "internalType": "address",
          "name": "account",
          "type": "address"
        },
        {
          "indexed": true,
          "internalType": "address",
          "name": "sender",
          "type": "address"
        }
      ],
      "name": "RoleRevoked",
      "type": "event"
    },
    {
      "anonymous": false,
      "inputs": [
        {
          "indexed": true,
          "internalType": "address",
          "name": "from",
          "type": "address"
        },
        {
          "indexed": true,
          "internalType": "address",
          "name": "to",
          "type": "address"
        },
        {
          "indexed": true,
          "internalType": "uint256",
          "name": "tokenId",
          "type": "uint256"
        }
      ],
      "name": "Transfer",
      "type": "event"
    },
    {
      "anonymous": false,
      "inputs": [
        {
          "indexed": false,
          "internalType": "address",
          "name": "account",
          "type": "address"
        }
      ],
      "name": "Unpaused",
      "type": "event"
    },
    {
      "inputs": [],
      "name": "DEFAULT_ADMIN_ROLE",
      "outputs": [
        {
          "internalType": "bytes32",
          "name": "",
          "type": "bytes32"
        }
      ],
      "stateMutability": "view",
      "type": "function",
      "constant": true
    },
    {
      "inputs": [],
      "name": "MINTER_ROLE",
      "outputs": [
        {
          "internalType": "bytes32",
          "name": "",
          "type": "bytes32"
        }
      ],
      "stateMutability": "view",
      "type": "function",
      "constant": true
    },
    {
      "inputs": [],
      "name": "PAUSER_ROLE",
      "outputs": [
        {
          "internalType": "bytes32",
          "name": "",
          "type": "bytes32"
        }
      ],
      "stateMutability": "view",
      "type": "function",
      "constant": true
    },
    {
      "inputs": [
        {
          "internalType": "address",
          "name": "to",
          "type": "address"
        },
        {
          "internalType": "uint256",
          "name": "tokenId",
          "type": "uint256"
        }
      ],
      "name": "approve",
      "outputs": [],
      "stateMutability": "nonpayable",
      "type": "function"
    },
    {
      "inputs": [
        {
          "internalType": "address",
          "name": "owner",
          "type": "address"
        }
      ],
      "name": "balanceOf",
      "outputs": [
        {
          "internalType": "uint256",
          "name": "",
          "type": "uint256"
        }
      ],
      "stateMutability": "view",
      "type": "function",
      "constant": true
    },
    {
      "inputs": [],
      "name": "baseURI",
      "outputs": [
        {
          "internalType": "string",
          "name": "",
          "type": "string"
        }
      ],
      "stateMutability": "view",
      "type": "function",
      "constant": true
    },
    {
      "inputs": [
        {
          "internalType": "uint256",
          "name": "tokenId",
          "type": "uint256"
        }
      ],
      "name": "burn",
      "outputs": [],
      "stateMutability": "nonpayable",
      "type": "function"
    },
    {
      "inputs": [
        {
          "internalType": "uint256",
          "name": "tokenId",
          "type": "uint256"
        }
      ],
      "name": "getApproved",
      "outputs": [
        {
          "internalType": "address",
          "name": "",
          "type": "address"
        }
      ],
      "stateMutability": "view",
      "type": "function",
      "constant": true
    },
    {
      "inputs": [
        {
          "internalType": "bytes32",
          "name": "role",
          "type": "bytes32"
        }
      ],
      "name": "getRoleAdmin",
      "outputs": [
        {
          "internalType": "bytes32",
          "name": "",
          "type": "bytes32"
        }
      ],
      "stateMutability": "view",
      "type": "function",
      "constant": true
    },
    {
      "inputs": [
        {
          "internalType": "bytes32",
          "name": "role",
          "type": "bytes32"
        },
        {
          "internalType": "uint256",
          "name": "index",
          "type": "uint256"
        }
      ],
      "name": "getRoleMember",
      "outputs": [
        {
          "internalType": "address",
          "name": "",
          "type": "address"
        }
      ],
      "stateMutability": "view",
      "type": "function",
      "constant": true
    },
    {
      "inputs": [
        {
          "internalType": "bytes32",
          "name": "role",
          "type": "bytes32"
        }
      ],
      "name": "getRoleMemberCount",
      "outputs": [
        {
          "internalType": "uint256",
          "name": "",
          "type": "uint256"
        }
      ],
      "stateMutability": "view",
      "type": "function",
      "constant": true
    },
    {
      "inputs": [
        {
          "internalType": "bytes32",
          "name": "role",
          "type": "bytes32"
        },
        {
          "internalType": "address",
          "name": "account",
          "type": "address"
        }
      ],
      "name": "grantRole",
      "outputs": [],
      "stateMutability": "nonpayable",
      "type": "function"
    },
    {
      "inputs": [
        {
          "internalType": "bytes32",
          "name": "role",
          "type": "bytes32"
        },
        {
          "internalType": "address",
          "name": "account",
          "type": "address"
        }
      ],
      "name": "hasRole",
      "outputs": [
        {
          "internalType": "bool",
          "name": "",
          "type": "bool"
        }
      ],
      "stateMutability": "view",
      "type": "function",
      "constant": true
    },
    {
      "inputs": [
        {
          "internalType": "address",
          "name": "owner",
          "type": "address"
        },
        {
          "internalType": "address",
          "name": "operator",
          "type": "address"
        }
      ],
      "name": "isApprovedForAll",
      "outputs": [
        {
          "internalType": "bool",
          "name": "",
          "type": "bool"
        }
      ],
      "stateMutability": "view",
      "type": "function",
      "constant": true
    },
    {
      "inputs": [
        {
          "internalType": "address",
          "name": "forwarder",
          "type": "address"
        }
      ],
      "name": "isTrustedForwarder",
      "outputs": [
        {
          "internalType": "bool",
          "name": "",
          "type": "bool"
        }
      ],
      "stateMutability": "view",
      "type": "function",
      "constant": true
    },
    {
      "inputs": [
        {
          "internalType": "address",
          "name": "to",
          "type": "address"
        }
      ],
      "name": "mint",
      "outputs": [],
      "stateMutability": "nonpayable",
      "type": "function"
    },
    {
      "inputs": [],
      "name": "name",
      "outputs": [
        {
          "internalType": "string",
          "name": "",
          "type": "string"
        }
      ],
      "stateMutability": "view",
      "type": "function",
      "constant": true
    },
    {
      "inputs": [],
      "name": "orgAddress",
      "outputs": [
        {
          "internalType": "address payable",
          "name": "",
          "type": "address"
        }
      ],
      "stateMutability": "view",
      "type": "function",
      "constant": true
    },
    {
      "inputs": [
        {
          "internalType": "uint256",
          "name": "tokenId",
          "type": "uint256"
        }
      ],
      "name": "ownerOf",
      "outputs": [
        {
          "internalType": "address",
          "name": "",
          "type": "address"
        }
      ],
      "stateMutability": "view",
      "type": "function",
      "constant": true
    },
    {
      "inputs": [],
      "name": "pause",
      "outputs": [],
      "stateMutability": "nonpayable",
      "type": "function"
    },
    {
      "inputs": [],
      "name": "paused",
      "outputs": [
        {
          "internalType": "bool",
          "name": "",
          "type": "bool"
        }
      ],
      "stateMutability": "view",
      "type": "function",
      "constant": true
    },
    {
      "inputs": [
        {
          "internalType": "bytes32",
          "name": "role",
          "type": "bytes32"
        },
        {
          "internalType": "address",
          "name": "account",
          "type": "address"
        }
      ],
      "name": "renounceRole",
      "outputs": [],
      "stateMutability": "nonpayable",
      "type": "function"
    },
    {
      "inputs": [
        {
          "internalType": "bytes32",
          "name": "role",
          "type": "bytes32"
        },
        {
          "internalType": "address",
          "name": "account",
          "type": "address"
        }
      ],
      "name": "revokeRole",
      "outputs": [],
      "stateMutability": "nonpayable",
      "type": "function"
    },
    {
      "inputs": [
        {
          "internalType": "address",
          "name": "from",
          "type": "address"
        },
        {
          "internalType": "address",
          "name": "to",
          "type": "address"
        },
        {
          "internalType": "uint256",
          "name": "tokenId",
          "type": "uint256"
        }
      ],
      "name": "safeTransferFrom",
      "outputs": [],
      "stateMutability": "nonpayable",
      "type": "function"
    },
    {
      "inputs": [
        {
          "internalType": "address",
          "name": "from",
          "type": "address"
        },
        {
          "internalType": "address",
          "name": "to",
          "type": "address"
        },
        {
          "internalType": "uint256",
          "name": "tokenId",
          "type": "uint256"
        },
        {
          "internalType": "bytes",
          "name": "_data",
          "type": "bytes"
        }
      ],
      "name": "safeTransferFrom",
      "outputs": [],
      "stateMutability": "nonpayable",
      "type": "function"
    },
    {
      "inputs": [
        {
          "internalType": "address",
          "name": "operator",
          "type": "address"
        },
        {
          "internalType": "bool",
          "name": "approved",
          "type": "bool"
        }
      ],
      "name": "setApprovalForAll",
      "outputs": [],
      "stateMutability": "nonpayable",
      "type": "function"
    },
    {
      "inputs": [
        {
          "internalType": "bytes4",
          "name": "interfaceId",
          "type": "bytes4"
        }
      ],
      "name": "supportsInterface",
      "outputs": [
        {
          "internalType": "bool",
          "name": "",
          "type": "bool"
        }
      ],
      "stateMutability": "view",
      "type": "function",
      "constant": true
    },
    {
      "inputs": [],
      "name": "symbol",
      "outputs": [
        {
          "internalType": "string",
          "name": "",
          "type": "string"
        }
      ],
      "stateMutability": "view",
      "type": "function",
      "constant": true
    },
    {
      "inputs": [
        {
          "internalType": "uint256",
          "name": "index",
          "type": "uint256"
        }
      ],
      "name": "tokenByIndex",
      "outputs": [
        {
          "internalType": "uint256",
          "name": "",
          "type": "uint256"
        }
      ],
      "stateMutability": "view",
      "type": "function",
      "constant": true
    },
    {
      "inputs": [
        {
          "internalType": "address",
          "name": "owner",
          "type": "address"
        },
        {
          "internalType": "uint256",
          "name": "index",
          "type": "uint256"
        }
      ],
      "name": "tokenOfOwnerByIndex",
      "outputs": [
        {
          "internalType": "uint256",
          "name": "",
          "type": "uint256"
        }
      ],
      "stateMutability": "view",
      "type": "function",
      "constant": true
    },
    {
      "inputs": [
        {
          "internalType": "uint256",
          "name": "tokenId",
          "type": "uint256"
        }
      ],
      "name": "tokenURI",
      "outputs": [
        {
          "internalType": "string",
          "name": "",
          "type": "string"
        }
      ],
      "stateMutability": "view",
      "type": "function",
      "constant": true
    },
    {
      "inputs": [],
      "name": "totalSupply",
      "outputs": [
        {
          "internalType": "uint256",
          "name": "",
          "type": "uint256"
        }
      ],
      "stateMutability": "view",
      "type": "function",
      "constant": true
    },
    {
      "inputs": [
        {
          "internalType": "address",
          "name": "from",
          "type": "address"
        },
        {
          "internalType": "address",
          "name": "to",
          "type": "address"
        },
        {
          "internalType": "uint256",
          "name": "tokenId",
          "type": "uint256"
        }
      ],
      "name": "transferFrom",
      "outputs": [],
      "stateMutability": "nonpayable",
      "type": "function"
    },
    {
      "inputs": [],
      "name": "trustedForwarder",
      "outputs": [
        {
          "internalType": "address",
          "name": "",
          "type": "address"
        }
      ],
      "stateMutability": "view",
      "type": "function",
      "constant": true
    },
    {
      "inputs": [],
      "name": "unpause",
      "outputs": [],
      "stateMutability": "nonpayable",
      "type": "function"
    },
    {
      "stateMutability": "payable",
      "type": "receive",
      "payable": true
    },
    {
      "inputs": [],
      "name": "purchaseSeed",
      "outputs": [],
      "stateMutability": "payable",
      "type": "function",
      "payable": true
    },
    {
      "inputs": [
        {
          "internalType": "bytes32",
          "name": "_requestId",
          "type": "bytes32"
        },
        {
          "internalType": "uint256",
          "name": "_volume",
          "type": "uint256"
        }
      ],
      "name": "fulfill",
      "outputs": [],
      "stateMutability": "nonpayable",
      "type": "function"
    },
    {
      "inputs": [
        {
          "internalType": "address",
          "name": "_forwarder",
          "type": "address"
        }
      ],
      "name": "setTrustedForwarder",
      "outputs": [],
      "stateMutability": "nonpayable",
      "type": "function"
    },
    {
      "inputs": [],
      "name": "versionRecipient",
      "outputs": [
        {
          "internalType": "string",
          "name": "",
          "type": "string"
        }
      ],
      "stateMutability": "view",
      "type": "function",
      "constant": true
    }
  ],
  "bytecode": "0x608060405260016011553480156200001657600080fd5b506040518060400160405280600b81526020017f43727970746f506c616e740000000000000000000000000000000000000000008152506040518060400160405280600381526020017f43505400000000000000000000000000000000000000000000000000000000008152506040518060600160405280603b8152602001620051f0603b91398282620000b76301ffc9a760e01b6200034360201b60201c565b8160079080519060200190620000cf929190620006b4565b508060089080519060200190620000e8929190620006b4565b50620001016380ac58cd60e01b6200034360201b60201c565b62000119635b5e139f60e01b6200034360201b60201c565b6200013163780e9d6360e01b6200034360201b60201c565b50506000600b60006101000a81548160ff021916908315150217905550620001726000801b620001666200044c60201b60201c565b6200046860201b60201c565b620001b37f9f2df0fed2c77648de5860a4cc508cd0818c85b8b8a1ab4ceeef8d981c8956a6620001a76200044c60201b60201c565b6200046860201b60201c565b620001f47f65d7a28e3265b37a6474929f336521b332c1681b933f6cb9f3376673440d862a620001e86200044c60201b60201c565b6200046860201b60201c565b62000205816200047e60201b60201c565b5050507342f323c617c0a6d18547b8a2aaf8bcd1abe617c9601560006101000a81548173ffffffffffffffffffffffffffffffffffffffff021916908373ffffffffffffffffffffffffffffffffffffffff160217905550732f90a6d021db21e1b2a077c5a37b3c7e75d15b7e601660006101000a81548173ffffffffffffffffffffffffffffffffffffffff021916908373ffffffffffffffffffffffffffffffffffffffff1602179055507f323966613961613133626631343638373838623763633461353030613435623860178190555067016345785d8a0000601881905550732b99251ec9650e507936fa9530d11de4d6c9c05c601360006101000a81548173ffffffffffffffffffffffffffffffffffffffff021916908373ffffffffffffffffffffffffffffffffffffffff1602179055506200075a565b63ffffffff60e01b817bffffffffffffffffffffffffffffffffffffffffffffffffffffffff19161415620003e0576040517f08c379a000000000000000000000000000000000000000000000000000000000815260040180806020018281038252601c8152602001807f4552433136353a20696e76616c696420696e746572666163652069640000000081525060200191505060405180910390fd5b6001806000837bffffffffffffffffffffffffffffffffffffffffffffffffffffffff19167bffffffffffffffffffffffffffffffffffffffffffffffffffffffff1916815260200190815260200160002060006101000a81548160ff02191690831515021790555050565b6000620004636200049a60201b6200252b1760201c565b905090565b6200047a8282620004e260201b60201c565b5050565b80600a908051906020019062000496929190620006b4565b5050565b60006018600036905010158015620004bf5750620004be336200058560201b60201c565b5b15620004d557601436033560601c9050620004de565b339050620004df565b5b90565b6200051081600080858152602001908152602001600020600001620005df60201b620025671790919060201c565b156200058157620005266200044c60201b60201c565b73ffffffffffffffffffffffffffffffffffffffff168173ffffffffffffffffffffffffffffffffffffffff16837f2f8788117e7eff1d82e926ec794901d17c78024a50270940304540a733656f0d60405160405180910390a45b5050565b6000601360009054906101000a900473ffffffffffffffffffffffffffffffffffffffff1673ffffffffffffffffffffffffffffffffffffffff168273ffffffffffffffffffffffffffffffffffffffff16149050919050565b60006200060f836000018373ffffffffffffffffffffffffffffffffffffffff1660001b6200061760201b60201c565b905092915050565b60006200062b83836200069160201b60201c565b620006865782600001829080600181540180825580915050600190039060005260206000200160009091909190915055826000018054905083600101600084815260200190815260200160002081905550600190506200068b565b600090505b92915050565b600080836001016000848152602001908152602001600020541415905092915050565b828054600181600116156101000203166002900490600052602060002090601f016020900481019282601f10620006f757805160ff191683800117855562000728565b8280016001018555821562000728579182015b82811115620007275782518255916020019190600101906200070a565b5b5090506200073791906200073b565b5090565b5b80821115620007565760008160009055506001016200073c565b5090565b614a86806200076a6000396000f3fe6080604052600436106102345760003560e01c80636352211e1161012e578063a217fddf116100ab578063d53913931161006f578063d539139314610efa578063d547741f14610f25578063da74222814610f80578063e63ab1e914610fd1578063e985e9c514610ffc5761023b565b8063a217fddf14610c5d578063a22cb46514610c88578063b88d4fde14610ce5578063c87b56dd14610df7578063ca15c87314610eab5761023b565b80637da0a877116100f25780637da0a87714610a955780638456cb5914610ad65780639010d07c14610aed57806391d1485414610b5c57806395d89b4114610bcd5761023b565b80636352211e146108a95780636a6278421461090e5780636c0360eb1461095f57806370a08231146109ef578063797ea25d14610a545761023b565b806336568abe116101bc5780634357855e116101805780634357855e146106f1578063486ff0cd146107365780634f6ccce7146107c6578063572b6c05146108155780635c975abb1461087c5761023b565b806336568abe146105bf5780633f4ba83a1461061a57806340e55f9b1461063157806342842e0e1461063b57806342966c68146106b65761023b565b806318160ddd1161020357806318160ddd1461040057806323b872dd1461042b578063248a9ca3146104a65780632f2ff15d146104f55780632f745c59146105505761023b565b806301ffc9a71461024057806306fdde03146102b0578063081812fc14610340578063095ea7b3146103a55761023b565b3661023b57005b600080fd5b34801561024c57600080fd5b506102986004803603602081101561026357600080fd5b8101908080357bffffffffffffffffffffffffffffffffffffffffffffffffffffffff19169060200190929190505050611083565b60405180821515815260200191505060405180910390f35b3480156102bc57600080fd5b506102c56110eb565b6040518080602001828103825283818151815260200191508051906020019080838360005b838110156103055780820151818401526020810190506102ea565b50505050905090810190601f1680156103325780820380516001836020036101000a031916815260200191505b509250505060405180910390f35b34801561034c57600080fd5b506103796004803603602081101561036357600080fd5b810190808035906020019092919050505061118d565b604051808273ffffffffffffffffffffffffffffffffffffffff16815260200191505060405180910390f35b3480156103b157600080fd5b506103fe600480360360408110156103c857600080fd5b81019080803573ffffffffffffffffffffffffffffffffffffffff16906020019092919080359060200190929190505050611228565b005b34801561040c57600080fd5b5061041561136c565b6040518082815260200191505060405180910390f35b34801561043757600080fd5b506104a46004803603606081101561044e57600080fd5b81019080803573ffffffffffffffffffffffffffffffffffffffff169060200190929190803573ffffffffffffffffffffffffffffffffffffffff1690602001909291908035906020019092919050505061137d565b005b3480156104b257600080fd5b506104df600480360360208110156104c957600080fd5b81019080803590602001909291905050506113f3565b6040518082815260200191505060405180910390f35b34801561050157600080fd5b5061054e6004803603604081101561051857600080fd5b8101908080359060200190929190803573ffffffffffffffffffffffffffffffffffffffff169060200190929190505050611412565b005b34801561055c57600080fd5b506105a96004803603604081101561057357600080fd5b81019080803573ffffffffffffffffffffffffffffffffffffffff1690602001909291908035906020019092919050505061149b565b6040518082815260200191505060405180910390f35b3480156105cb57600080fd5b50610618600480360360408110156105e257600080fd5b8101908080359060200190929190803573ffffffffffffffffffffffffffffffffffffffff1690602001909291905050506114f6565b005b34801561062657600080fd5b5061062f61158f565b005b61063961161f565b005b34801561064757600080fd5b506106b46004803603606081101561065e57600080fd5b81019080803573ffffffffffffffffffffffffffffffffffffffff169060200190929190803573ffffffffffffffffffffffffffffffffffffffff1690602001909291908035906020019092919050505061179f565b005b3480156106c257600080fd5b506106ef600480360360208110156106d957600080fd5b81019080803590602001909291905050506117bf565b005b3480156106fd57600080fd5b506107346004803603604081101561071457600080fd5b810190808035906020019092919080359060200190929190505050611831565b005b34801561074257600080fd5b5061074b611951565b6040518080602001828103825283818151815260200191508051906020019080838360005b8381101561078b578082015181840152602081019050610770565b50505050905090810190601f1680156107b85780820380516001836020036101000a031916815260200191505b509250505060405180910390f35b3480156107d257600080fd5b506107ff600480360360208110156107e957600080fd5b810190808035906020019092919050505061198e565b6040518082815260200191505060405180910390f35b34801561082157600080fd5b506108646004803603602081101561083857600080fd5b81019080803573ffffffffffffffffffffffffffffffffffffffff1690602001909291905050506119b1565b60405180821515815260200191505060405180910390f35b34801561088857600080fd5b50610891611a0b565b60405180821515815260200191505060405180910390f35b3480156108b557600080fd5b506108e2600480360360208110156108cc57600080fd5b8101908080359060200190929190505050611a22565b604051808273ffffffffffffffffffffffffffffffffffffffff16815260200191505060405180910390f35b34801561091a57600080fd5b5061095d6004803603602081101561093157600080fd5b81019080803573ffffffffffffffffffffffffffffffffffffffff169060200190929190505050611a59565b005b34801561096b57600080fd5b50610974611aff565b6040518080602001828103825283818151815260200191508051906020019080838360005b838110156109b4578082015181840152602081019050610999565b50505050905090810190601f1680156109e15780820380516001836020036101000a031916815260200191505b509250505060405180910390f35b3480156109fb57600080fd5b50610a3e60048036036020811015610a1257600080fd5b81019080803573ffffffffffffffffffffffffffffffffffffffff169060200190929190505050611ba1565b6040518082815260200191505060405180910390f35b348015610a6057600080fd5b50610a69611c76565b604051808273ffffffffffffffffffffffffffffffffffffffff16815260200191505060405180910390f35b348015610aa157600080fd5b50610aaa611c9c565b604051808273ffffffffffffffffffffffffffffffffffffffff16815260200191505060405180910390f35b348015610ae257600080fd5b50610aeb611cc2565b005b348015610af957600080fd5b50610b3060048036036040811015610b1057600080fd5b810190808035906020019092919080359060200190929190505050611d52565b604051808273ffffffffffffffffffffffffffffffffffffffff16815260200191505060405180910390f35b348015610b6857600080fd5b50610bb560048036036040811015610b7f57600080fd5b8101908080359060200190929190803573ffffffffffffffffffffffffffffffffffffffff169060200190929190505050611d83565b60405180821515815260200191505060405180910390f35b348015610bd957600080fd5b50610be2611db4565b6040518080602001828103825283818151815260200191508051906020019080838360005b83811015610c22578082015181840152602081019050610c07565b50505050905090810190601f168015610c4f5780820380516001836020036101000a031916815260200191505b509250505060405180910390f35b348015610c6957600080fd5b50610c72611e56565b6040518082815260200191505060405180910390f35b348015610c9457600080fd5b50610ce360048036036040811015610cab57600080fd5b81019080803573ffffffffffffffffffffffffffffffffffffffff169060200190929190803515159060200190929190505050611e5d565b005b348015610cf157600080fd5b50610df560048036036080811015610d0857600080fd5b81019080803573ffffffffffffffffffffffffffffffffffffffff169060200190929190803573ffffffffffffffffffffffffffffffffffffffff1690602001909291908035906020019092919080359060200190640100000000811115610d6f57600080fd5b820183602082011115610d8157600080fd5b80359060200191846001830284011164010000000083111715610da357600080fd5b91908080601f016020809104026020016040519081016040528093929190818152602001838380828437600081840152601f19601f820116905080830192505050505050509192919290505050612013565b005b348015610e0357600080fd5b50610e3060048036036020811015610e1a57600080fd5b810190808035906020019092919050505061208b565b6040518080602001828103825283818151815260200191508051906020019080838360005b83811015610e70578082015181840152602081019050610e55565b50505050905090810190601f168015610e9d5780820380516001836020036101000a031916815260200191505b509250505060405180910390f35b348015610eb757600080fd5b50610ee460048036036020811015610ece57600080fd5b810190808035906020019092919050505061235c565b6040518082815260200191505060405180910390f35b348015610f0657600080fd5b50610f0f612382565b6040518082815260200191505060405180910390f35b348015610f3157600080fd5b50610f7e60048036036040811015610f4857600080fd5b8101908080359060200190929190803573ffffffffffffffffffffffffffffffffffffffff1690602001909291905050506123a6565b005b348015610f8c57600080fd5b50610fcf60048036036020811015610fa357600080fd5b81019080803573ffffffffffffffffffffffffffffffffffffffff16906020019092919050505061242f565b005b348015610fdd57600080fd5b50610fe6612473565b6040518082815260200191505060405180910390f35b34801561100857600080fd5b5061106b6004803603604081101561101f57600080fd5b81019080803573ffffffffffffffffffffffffffffffffffffffff169060200190929190803573ffffffffffffffffffffffffffffffffffffffff169060200190929190505050612497565b60405180821515815260200191505060405180910390f35b600060016000837bffffffffffffffffffffffffffffffffffffffffffffffffffffffff19167bffffffffffffffffffffffffffffffffffffffffffffffffffffffff1916815260200190815260200160002060009054906101000a900460ff169050919050565b606060078054600181600116156101000203166002900480601f0160208091040260200160405190810160405280929190818152602001828054600181600116156101000203166002900480156111835780601f1061115857610100808354040283529160200191611183565b820191906000526020600020905b81548152906001019060200180831161116657829003601f168201915b5050505050905090565b600061119882612597565b6111ed576040517f08c379a000000000000000000000000000000000000000000000000000000000815260040180806020018281038252602c815260200180614877602c913960400191505060405180910390fd5b6005600083815260200190815260200160002060009054906101000a900473ffffffffffffffffffffffffffffffffffffffff169050919050565b600061123382611a22565b90508073ffffffffffffffffffffffffffffffffffffffff168373ffffffffffffffffffffffffffffffffffffffff1614156112ba576040517f08c379a00000000000000000000000000000000000000000000000000000000081526004018080602001828103825260218152602001806148fb6021913960400191505060405180910390fd5b8073ffffffffffffffffffffffffffffffffffffffff166112d96125b4565b73ffffffffffffffffffffffffffffffffffffffff1614806113085750611307816113026125b4565b612497565b5b61135d576040517f08c379a000000000000000000000000000000000000000000000000000000000815260040180806020018281038252603881526020018061478c6038913960400191505060405180910390fd5b61136783836125c3565b505050565b6000611378600361267c565b905090565b61138e6113886125b4565b82612691565b6113e3576040517f08c379a000000000000000000000000000000000000000000000000000000000815260040180806020018281038252603181526020018061491c6031913960400191505060405180910390fd5b6113ee838383612785565b505050565b6000806000838152602001908152602001600020600201549050919050565b611438600080848152602001908152602001600020600201546114336125b4565b611d83565b61148d576040517f08c379a000000000000000000000000000000000000000000000000000000000815260040180806020018281038252602f815260200180614647602f913960400191505060405180910390fd5b61149782826129c8565b5050565b60006114ee82600260008673ffffffffffffffffffffffffffffffffffffffff1673ffffffffffffffffffffffffffffffffffffffff168152602001908152602001600020612a5b90919063ffffffff16565b905092915050565b6114fe6125b4565b73ffffffffffffffffffffffffffffffffffffffff168173ffffffffffffffffffffffffffffffffffffffff1614611581576040517f08c379a000000000000000000000000000000000000000000000000000000000815260040180806020018281038252602f815260200180614a22602f913960400191505060405180910390fd5b61158b8282612a75565b5050565b6115c07f65d7a28e3265b37a6474929f336521b332c1681b933f6cb9f3376673440d862a6115bb6125b4565b611d83565b611615576040517f08c379a00000000000000000000000000000000000000000000000000000000081526004018080602001828103825260408152602001806149e26040913960400191505060405180910390fd5b61161d612b08565b565b6509184e72a000341461163157600080fd5b601560009054906101000a900473ffffffffffffffffffffffffffffffffffffffff1673ffffffffffffffffffffffffffffffffffffffff166108fc6508a3e42018009081150290604051600060405180830381858888f1935050505015801561169f573d6000803e3d6000fd5b506116ba6116ab6125b4565b6116b56014612bf3565b612c01565b6116c46014612df5565b6116cc61450d565b6116e060175430634357855e60e01b612e0b565b90506117446040518060400160405280600381526020017f67657400000000000000000000000000000000000000000000000000000000008152506040518060600160405280603e81526020016147ee603e913983612e3c9092919063ffffffff16565b6000670de0b6b3a7640000905061179b6040518060400160405280600581526020017f74696d65730000000000000000000000000000000000000000000000000000008152508284612e6f9092919063ffffffff16565b5050565b6117ba83838360405180602001604052806000815250612013565b505050565b6117d06117ca6125b4565b82612691565b611825576040517f08c379a00000000000000000000000000000000000000000000000000000000081526004018080602001828103825260308152602001806149b26030913960400191505060405180910390fd5b61182e81612ea2565b50565b816012600082815260200190815260200160002060009054906101000a900473ffffffffffffffffffffffffffffffffffffffff1673ffffffffffffffffffffffffffffffffffffffff163373ffffffffffffffffffffffffffffffffffffffff16146118e9576040517f08c379a000000000000000000000000000000000000000000000000000000000815260040180806020018281038252602881526020018061494d6028913960400191505060405180910390fd5b6012600082815260200190815260200160002060006101000a81549073ffffffffffffffffffffffffffffffffffffffff0219169055807f7cc135e0cebb02c3480ae5d74d377283180a2601f8f644edf7987b009316c63a60405160405180910390a2505050565b60606040518060400160405280600381526020017f302e310000000000000000000000000000000000000000000000000000000000815250905090565b6000806119a5836003612fdc90919063ffffffff16565b50905080915050919050565b6000601360009054906101000a900473ffffffffffffffffffffffffffffffffffffffff1673ffffffffffffffffffffffffffffffffffffffff168273ffffffffffffffffffffffffffffffffffffffff16149050919050565b6000600b60009054906101000a900460ff16905090565b6000611a528260405180606001604052806029815260200161482c6029913960036130089092919063ffffffff16565b9050919050565b611a8a7f9f2df0fed2c77648de5860a4cc508cd0818c85b8b8a1ab4ceeef8d981c8956a6611a856125b4565b611d83565b611adf576040517f08c379a000000000000000000000000000000000000000000000000000000000815260040180806020018281038252603d815260200180614975603d913960400191505060405180910390fd5b611af281611aed600c612bf3565b612c01565b611afc600c612df5565b50565b6060600a8054600181600116156101000203166002900480601f016020809104026020016040519081016040528092919081815260200182805460018160011615610100020316600290048015611b975780601f10611b6c57610100808354040283529160200191611b97565b820191906000526020600020905b815481529060010190602001808311611b7a57829003601f168201915b5050505050905090565b60008073ffffffffffffffffffffffffffffffffffffffff168273ffffffffffffffffffffffffffffffffffffffff161415611c28576040517f08c379a000000000000000000000000000000000000000000000000000000000815260040180806020018281038252602a8152602001806147c4602a913960400191505060405180910390fd5b611c6f600260008473ffffffffffffffffffffffffffffffffffffffff1673ffffffffffffffffffffffffffffffffffffffff168152602001908152602001600020613027565b9050919050565b601560009054906101000a900473ffffffffffffffffffffffffffffffffffffffff1681565b601360009054906101000a900473ffffffffffffffffffffffffffffffffffffffff1681565b611cf37f65d7a28e3265b37a6474929f336521b332c1681b933f6cb9f3376673440d862a611cee6125b4565b611d83565b611d48576040517f08c379a000000000000000000000000000000000000000000000000000000000815260040180806020018281038252603e8152602001806146a8603e913960400191505060405180910390fd5b611d5061303c565b565b6000611d7b8260008086815260200190815260200160002060000161312890919063ffffffff16565b905092915050565b6000611dac8260008086815260200190815260200160002060000161314290919063ffffffff16565b905092915050565b606060088054600181600116156101000203166002900480601f016020809104026020016040519081016040528092919081815260200182805460018160011615610100020316600290048015611e4c5780601f10611e2157610100808354040283529160200191611e4c565b820191906000526020600020905b815481529060010190602001808311611e2f57829003601f168201915b5050505050905090565b6000801b81565b611e656125b4565b73ffffffffffffffffffffffffffffffffffffffff168273ffffffffffffffffffffffffffffffffffffffff161415611f06576040517f08c379a00000000000000000000000000000000000000000000000000000000081526004018080602001828103825260198152602001807f4552433732313a20617070726f766520746f2063616c6c65720000000000000081525060200191505060405180910390fd5b8060066000611f136125b4565b73ffffffffffffffffffffffffffffffffffffffff1673ffffffffffffffffffffffffffffffffffffffff16815260200190815260200160002060008473ffffffffffffffffffffffffffffffffffffffff1673ffffffffffffffffffffffffffffffffffffffff16815260200190815260200160002060006101000a81548160ff0219169083151502179055508173ffffffffffffffffffffffffffffffffffffffff16611fc06125b4565b73ffffffffffffffffffffffffffffffffffffffff167f17307eab39ab6107e8899845ad3d59bd9653f200f220920489ca2b5937696c318360405180821515815260200191505060405180910390a35050565b61202461201e6125b4565b83612691565b612079576040517f08c379a000000000000000000000000000000000000000000000000000000000815260040180806020018281038252603181526020018061491c6031913960400191505060405180910390fd5b61208584848484613172565b50505050565b606061209682612597565b6120eb576040517f08c379a000000000000000000000000000000000000000000000000000000000815260040180806020018281038252602f8152602001806148cc602f913960400191505060405180910390fd5b6060600960008481526020019081526020016000208054600181600116156101000203166002900480601f0160208091040260200160405190810160405280929190818152602001828054600181600116156101000203166002900480156121945780601f1061216957610100808354040283529160200191612194565b820191906000526020600020905b81548152906001019060200180831161217757829003601f168201915b5050505050905060606121a5611aff565b90506000815114156121bb578192505050612357565b60008251111561228c5780826040516020018083805190602001908083835b602083106121fd57805182526020820191506020810190506020830392506121da565b6001836020036101000a03801982511681845116808217855250505050505090500182805190602001908083835b6020831061224e578051825260208201915060208101905060208303925061222b565b6001836020036101000a0380198251168184511680821785525050505050509050019250505060405160208183030381529060405292505050612357565b80612296856131e4565b6040516020018083805190602001908083835b602083106122cc57805182526020820191506020810190506020830392506122a9565b6001836020036101000a03801982511681845116808217855250505050505090500182805190602001908083835b6020831061231d57805182526020820191506020810190506020830392506122fa565b6001836020036101000a03801982511681845116808217855250505050505090500192505050604051602081830303815290604052925050505b919050565b600061237b60008084815260200190815260200160002060000161332b565b9050919050565b7f9f2df0fed2c77648de5860a4cc508cd0818c85b8b8a1ab4ceeef8d981c8956a681565b6123cc600080848152602001908152602001600020600201546123c76125b4565b611d83565b612421576040517f08c379a000000000000000000000000000000000000000000000000000000000815260040180806020018281038252603081526020018061475c6030913960400191505060405180910390fd5b61242b8282612a75565b5050565b80601360006101000a81548173ffffffffffffffffffffffffffffffffffffffff021916908373ffffffffffffffffffffffffffffffffffffffff16021790555050565b7f65d7a28e3265b37a6474929f336521b332c1681b933f6cb9f3376673440d862a81565b6000600660008473ffffffffffffffffffffffffffffffffffffffff1673ffffffffffffffffffffffffffffffffffffffff16815260200190815260200160002060008373ffffffffffffffffffffffffffffffffffffffff1673ffffffffffffffffffffffffffffffffffffffff16815260200190815260200160002060009054906101000a900460ff16905092915050565b600060186000369050101580156125475750612546336119b1565b5b1561255b57601436033560601c9050612563565b339050612564565b5b90565b600061258f836000018373ffffffffffffffffffffffffffffffffffffffff1660001b613340565b905092915050565b60006125ad8260036133b090919063ffffffff16565b9050919050565b60006125be61252b565b905090565b816005600083815260200190815260200160002060006101000a81548173ffffffffffffffffffffffffffffffffffffffff021916908373ffffffffffffffffffffffffffffffffffffffff160217905550808273ffffffffffffffffffffffffffffffffffffffff1661263683611a22565b73ffffffffffffffffffffffffffffffffffffffff167f8c5be1e5ebec7d5bd14f71427d1e84f3dd0314c0f7b2291e5b200ac8c7c3b92560405160405180910390a45050565b600061268a826000016133ca565b9050919050565b600061269c82612597565b6126f1576040517f08c379a000000000000000000000000000000000000000000000000000000000815260040180806020018281038252602c815260200180614730602c913960400191505060405180910390fd5b60006126fc83611a22565b90508073ffffffffffffffffffffffffffffffffffffffff168473ffffffffffffffffffffffffffffffffffffffff16148061276b57508373ffffffffffffffffffffffffffffffffffffffff166127538461118d565b73ffffffffffffffffffffffffffffffffffffffff16145b8061277c575061277b8185612497565b5b91505092915050565b8273ffffffffffffffffffffffffffffffffffffffff166127a582611a22565b73ffffffffffffffffffffffffffffffffffffffff1614612811576040517f08c379a00000000000000000000000000000000000000000000000000000000081526004018080602001828103825260298152602001806148a36029913960400191505060405180910390fd5b600073ffffffffffffffffffffffffffffffffffffffff168273ffffffffffffffffffffffffffffffffffffffff161415612897576040517f08c379a00000000000000000000000000000000000000000000000000000000081526004018080602001828103825260248152602001806146e66024913960400191505060405180910390fd5b6128a28383836133db565b6128ad6000826125c3565b6128fe81600260008673ffffffffffffffffffffffffffffffffffffffff1673ffffffffffffffffffffffffffffffffffffffff1681526020019081526020016000206133eb90919063ffffffff16565b5061295081600260008573ffffffffffffffffffffffffffffffffffffffff1673ffffffffffffffffffffffffffffffffffffffff16815260200190815260200160002061340590919063ffffffff16565b506129678183600361341f9092919063ffffffff16565b50808273ffffffffffffffffffffffffffffffffffffffff168473ffffffffffffffffffffffffffffffffffffffff167fddf252ad1be2c89b69c2b068fc378daa952ba7f163c4a11628f55a4df523b3ef60405160405180910390a4505050565b6129ef8160008085815260200190815260200160002060000161256790919063ffffffff16565b15612a57576129fc6125b4565b73ffffffffffffffffffffffffffffffffffffffff168173ffffffffffffffffffffffffffffffffffffffff16837f2f8788117e7eff1d82e926ec794901d17c78024a50270940304540a733656f0d60405160405180910390a45b5050565b6000612a6a8360000183613454565b60001c905092915050565b612a9c816000808581526020019081526020016000206000016134d790919063ffffffff16565b15612b0457612aa96125b4565b73ffffffffffffffffffffffffffffffffffffffff168173ffffffffffffffffffffffffffffffffffffffff16837ff6391f5c32d9c69d2a47ea670b442974b53935d1edc7fd64eb21e047a839171b60405160405180910390a45b5050565b612b10611a0b565b612b82576040517f08c379a00000000000000000000000000000000000000000000000000000000081526004018080602001828103825260148152602001807f5061757361626c653a206e6f742070617573656400000000000000000000000081525060200191505060405180910390fd5b6000600b60006101000a81548160ff0219169083151502179055507f5db9ee0a495bf2e6ff9c91a7834c1ba4fdd244a5e8aa4e537bd38aeae4b073aa612bc66125b4565b604051808273ffffffffffffffffffffffffffffffffffffffff16815260200191505060405180910390a1565b600081600001549050919050565b600073ffffffffffffffffffffffffffffffffffffffff168273ffffffffffffffffffffffffffffffffffffffff161415612ca4576040517f08c379a00000000000000000000000000000000000000000000000000000000081526004018080602001828103825260208152602001807f4552433732313a206d696e7420746f20746865207a65726f206164647265737381525060200191505060405180910390fd5b612cad81612597565b15612d20576040517f08c379a000000000000000000000000000000000000000000000000000000000815260040180806020018281038252601c8152602001807f4552433732313a20746f6b656e20616c7265616479206d696e7465640000000081525060200191505060405180910390fd5b612d2c600083836133db565b612d7d81600260008573ffffffffffffffffffffffffffffffffffffffff1673ffffffffffffffffffffffffffffffffffffffff16815260200190815260200160002061340590919063ffffffff16565b50612d948183600361341f9092919063ffffffff16565b50808273ffffffffffffffffffffffffffffffffffffffff16600073ffffffffffffffffffffffffffffffffffffffff167fddf252ad1be2c89b69c2b068fc378daa952ba7f163c4a11628f55a4df523b3ef60405160405180910390a45050565b6001816000016000828254019250508190555050565b612e1361450d565b612e1b61450d565b612e3285858584613507909392919063ffffffff16565b9150509392505050565b612e538284608001516135b790919063ffffffff16565b612e6a8184608001516135b790919063ffffffff16565b505050565b612e868284608001516135b790919063ffffffff16565b612e9d8184608001516135dc90919063ffffffff16565b505050565b6000612ead82611a22565b9050612ebb816000846133db565b612ec66000836125c3565b60006009600084815260200190815260200160002080546001816001161561010002031660029004905014612f1557600960008381526020019081526020016000206000612f14919061457a565b5b612f6682600260008473ffffffffffffffffffffffffffffffffffffffff1673ffffffffffffffffffffffffffffffffffffffff1681526020019081526020016000206133eb90919063ffffffff16565b50612f7b82600361368090919063ffffffff16565b5081600073ffffffffffffffffffffffffffffffffffffffff168273ffffffffffffffffffffffffffffffffffffffff167fddf252ad1be2c89b69c2b068fc378daa952ba7f163c4a11628f55a4df523b3ef60405160405180910390a45050565b600080600080612fef866000018661369a565b915091508160001c8160001c9350935050509250929050565b600061301b846000018460001b84613733565b60001c90509392505050565b600061303582600001613829565b9050919050565b613044611a0b565b156130b7576040517f08c379a00000000000000000000000000000000000000000000000000000000081526004018080602001828103825260108152602001807f5061757361626c653a207061757365640000000000000000000000000000000081525060200191505060405180910390fd5b6001600b60006101000a81548160ff0219169083151502179055507f62e78cea01bee320cd4e420270b5ea74000d11b0c9f74754ebdbfc544b05a2586130fb6125b4565b604051808273ffffffffffffffffffffffffffffffffffffffff16815260200191505060405180910390a1565b60006131378360000183613454565b60001c905092915050565b600061316a836000018373ffffffffffffffffffffffffffffffffffffffff1660001b61383a565b905092915050565b61317d848484612785565b6131898484848461385d565b6131de576040517f08c379a00000000000000000000000000000000000000000000000000000000081526004018080602001828103825260328152602001806146766032913960400191505060405180910390fd5b50505050565b6060600082141561322c576040518060400160405280600181526020017f30000000000000000000000000000000000000000000000000000000000000008152509050613326565b600082905060005b60008214613256578080600101915050600a828161324e57fe5b049150613234565b60608167ffffffffffffffff8111801561326f57600080fd5b506040519080825280601f01601f1916602001820160405280156132a25781602001600182028036833780820191505090505b50905060006001830390508593505b6000841461331e57600a84816132c357fe5b0660300160f81b828280600190039350815181106132dd57fe5b60200101907effffffffffffffffffffffffffffffffffffffffffffffffffffffffffffff1916908160001a905350600a848161331657fe5b0493506132b1565b819450505050505b919050565b600061333982600001613829565b9050919050565b600061334c838361383a565b6133a55782600001829080600181540180825580915050600190039060005260206000200160009091909190915055826000018054905083600101600084815260200190815260200160002081905550600190506133aa565b600090505b92915050565b60006133c2836000018360001b613a76565b905092915050565b600081600001805490509050919050565b6133e6838383613a99565b505050565b60006133fd836000018360001b613b07565b905092915050565b6000613417836000018360001b613340565b905092915050565b600061344b846000018460001b8473ffffffffffffffffffffffffffffffffffffffff1660001b613bef565b90509392505050565b6000818360000180549050116134b5576040517f08c379a00000000000000000000000000000000000000000000000000000000081526004018080602001828103825260228152602001806145fa6022913960400191505060405180910390fd5b8260000182815481106134c457fe5b9060005260206000200154905092915050565b60006134ff836000018373ffffffffffffffffffffffffffffffffffffffff1660001b613b07565b905092915050565b61350f61450d565b61351f8560800151610100613ccb565b508385600001818152505082856020019073ffffffffffffffffffffffffffffffffffffffff16908173ffffffffffffffffffffffffffffffffffffffff16815250508185604001907bffffffffffffffffffffffffffffffffffffffffffffffffffffffff191690817bffffffffffffffffffffffffffffffffffffffffffffffffffffffff191681525050849050949350505050565b6135c48260038351613d1f565b6135d78183613e6490919063ffffffff16565b505050565b7fffffffffffffffffffffffffffffffffffffffffffffffff00000000000000008112156136135761360e8282613e86565b61367c565b67ffffffffffffffff8113156136325761362d8282613ef4565b61367b565b6000811261364b5761364682600083613d1f565b61367a565b613679826001837fffffffffffffffffffffffffffffffffffffffffffffffffffffffffffffffff03613d1f565b5b5b5b5050565b6000613692836000018360001b613f40565b905092915050565b600080828460000180549050116136fc576040517f08c379a00000000000000000000000000000000000000000000000000000000081526004018080602001828103825260228152602001806148556022913960400191505060405180910390fd5b600084600001848154811061370d57fe5b906000526020600020906002020190508060000154816001015492509250509250929050565b600080846001016000858152602001908152602001600020549050600081141583906137fa576040517f08c379a00000000000000000000000000000000000000000000000000000000081526004018080602001828103825283818151815260200191508051906020019080838360005b838110156137bf5780820151818401526020810190506137a4565b50505050905090810190601f1680156137ec5780820380516001836020036101000a031916815260200191505b509250505060405180910390fd5b5084600001600182038154811061380d57fe5b9060005260206000209060020201600101549150509392505050565b600081600001805490509050919050565b600080836001016000848152602001908152602001600020541415905092915050565b600061387e8473ffffffffffffffffffffffffffffffffffffffff16614059565b61388b5760019050613a6e565b60606139f563150b7a0260e01b6138a06125b4565b888787604051602401808573ffffffffffffffffffffffffffffffffffffffff1681526020018473ffffffffffffffffffffffffffffffffffffffff16815260200183815260200180602001828103825283818151815260200191508051906020019080838360005b83811015613924578082015181840152602081019050613909565b50505050905090810190601f1680156139515780820380516001836020036101000a031916815260200191505b5095505050505050604051602081830303815290604052907bffffffffffffffffffffffffffffffffffffffffffffffffffffffff19166020820180517bffffffffffffffffffffffffffffffffffffffffffffffffffffffff8381831617835250505050604051806060016040528060328152602001614676603291398773ffffffffffffffffffffffffffffffffffffffff1661406c9092919063ffffffff16565b90506000818060200190516020811015613a0e57600080fd5b8101908080519060200190929190505050905063150b7a0260e01b7bffffffffffffffffffffffffffffffffffffffffffffffffffffffff1916817bffffffffffffffffffffffffffffffffffffffffffffffffffffffff191614925050505b949350505050565b600080836001016000848152602001908152602001600020541415905092915050565b613aa4838383614084565b613aac611a0b565b15613b02576040517f08c379a000000000000000000000000000000000000000000000000000000000815260040180806020018281038252602b81526020018061461c602b913960400191505060405180910390fd5b505050565b60008083600101600084815260200190815260200160002054905060008114613be35760006001820390506000600186600001805490500390506000866000018281548110613b5257fe5b9060005260206000200154905080876000018481548110613b6f57fe5b9060005260206000200181905550600183018760010160008381526020019081526020016000208190555086600001805480613ba757fe5b60019003818190600052602060002001600090559055866001016000878152602001908152602001600020600090556001945050505050613be9565b60009150505b92915050565b6000808460010160008581526020019081526020016000205490506000811415613c9657846000016040518060400160405280868152602001858152509080600181540180825580915050600190039060005260206000209060020201600090919091909150600082015181600001556020820151816001015550508460000180549050856001016000868152602001908152602001600020819055506001915050613cc4565b82856000016001830381548110613ca957fe5b90600052602060002090600202016001018190555060009150505b9392505050565b613cd36145c2565b600060208381613cdf57fe5b0614613cf85760208281613cef57fe5b06602003820191505b81836020018181525050604051808452600081528281016020016040525082905092915050565b60178111613d4c57613d468160058460ff16901b60ff16178461408990919063ffffffff16565b50613e5f565b60ff8111613d8e57613d71601860058460ff16901b178461408990919063ffffffff16565b50613d88816001856140a99092919063ffffffff16565b50613e5e565b61ffff8111613dd157613db4601960058460ff16901b178461408990919063ffffffff16565b50613dcb816002856140a99092919063ffffffff16565b50613e5d565b63ffffffff8111613e1657613df9601a60058460ff16901b178461408990919063ffffffff16565b50613e10816004856140a99092919063ffffffff16565b50613e5c565b67ffffffffffffffff8111613e5b57613e42601b60058460ff16901b178461408990919063ffffffff16565b50613e59816008856140a99092919063ffffffff16565b505b5b5b5b5b505050565b613e6c6145c2565b613e7e838460000151518485516140cb565b905092915050565b613ea460036005600660ff16901b178361408990919063ffffffff16565b50613ef082827fffffffffffffffffffffffffffffffffffffffffffffffffffffffffffffffff0360405160200180828152602001915050604051602081830303815290604052614184565b5050565b613f1260026005600660ff16901b178361408990919063ffffffff16565b50613f3c828260405160200180828152602001915050604051602081830303815290604052614184565b5050565b6000808360010160008481526020019081526020016000205490506000811461404d5760006001820390506000600186600001805490500390506000866000018281548110613f8b57fe5b9060005260206000209060020201905080876000018481548110613fab57fe5b9060005260206000209060020201600082015481600001556001820154816001015590505060018301876001016000836000015481526020019081526020016000208190555086600001805480613ffe57fe5b6001900381819060005260206000209060020201600080820160009055600182016000905550509055866001016000878152602001908152602001600020600090556001945050505050614053565b60009150505b92915050565b600080823b905060008111915050919050565b606061407b84846000856141a9565b90509392505050565b505050565b6140916145c2565b6140a18384600001515184614352565b905092915050565b6140b16145c2565b6140c28485600001515185856143a0565b90509392505050565b6140d36145c2565b82518211156140e157600080fd5b8460200151828501111561410c5761410b8560026141058860200151888701614401565b0261441d565b5b60008086518051876020830101935080888701111561412b5787860182525b60208701925050505b602084106141575780518252602082019150602081019050602084039350614134565b60006001856020036101000a03905080198251168184511681811785525050879350505050949350505050565b6141918260028351613d1f565b6141a48183613e6490919063ffffffff16565b505050565b606082471015614204576040517f08c379a000000000000000000000000000000000000000000000000000000000815260040180806020018281038252602681526020018061470a6026913960400191505060405180910390fd5b61420d85614059565b61427f576040517f08c379a000000000000000000000000000000000000000000000000000000000815260040180806020018281038252601d8152602001807f416464726573733a2063616c6c20746f206e6f6e2d636f6e747261637400000081525060200191505060405180910390fd5b600060608673ffffffffffffffffffffffffffffffffffffffff1685876040518082805190602001908083835b602083106142cf57805182526020820191506020810190506020830392506142ac565b6001836020036101000a03801982511681845116808217855250505050505090500191505060006040518083038185875af1925050503d8060008114614331576040519150601f19603f3d011682016040523d82523d6000602084013e614336565b606091505b5091509150614346828286614441565b92505050949350505050565b61435a6145c2565b836020015183106143775761437684600286602001510261441d565b5b8351805160208583010184815381861415614393576001820183525b5050508390509392505050565b6143a86145c2565b846020015184830111156143c6576143c58560028685010261441d565b5b60006001836101000a03905085518386820101858319825116178152815185880111156143f35784870182525b505085915050949350505050565b60008183111561441357829050614417565b8190505b92915050565b6060826000015190506144308383613ccb565b5061443b8382613e64565b50505050565b6060831561445157829050614506565b6000835111156144645782518084602001fd5b816040517f08c379a00000000000000000000000000000000000000000000000000000000081526004018080602001828103825283818151815260200191508051906020019080838360005b838110156144cb5780820151818401526020810190506144b0565b50505050905090810190601f1680156144f85780820380516001836020036101000a031916815260200191505b509250505060405180910390fd5b9392505050565b6040518060a0016040528060008019168152602001600073ffffffffffffffffffffffffffffffffffffffff16815260200160007bffffffffffffffffffffffffffffffffffffffffffffffffffffffff19168152602001600081526020016145746145c2565b81525090565b50805460018160011615610100020316600290046000825580601f106145a057506145bf565b601f0160209004906000526020600020908101906145be91906145dc565b5b50565b604051806040016040528060608152602001600081525090565b5b808211156145f55760008160009055506001016145dd565b509056fe456e756d657261626c655365743a20696e646578206f7574206f6620626f756e64734552433732315061757361626c653a20746f6b656e207472616e73666572207768696c6520706175736564416363657373436f6e74726f6c3a2073656e646572206d75737420626520616e2061646d696e20746f206772616e744552433732313a207472616e7366657220746f206e6f6e20455243373231526563656976657220696d706c656d656e7465724552433732315072657365744d696e7465725061757365724175746f49643a206d75737420686176652070617573657220726f6c6520746f2070617573654552433732313a207472616e7366657220746f20746865207a65726f2061646472657373416464726573733a20696e73756666696369656e742062616c616e636520666f722063616c6c4552433732313a206f70657261746f7220717565727920666f72206e6f6e6578697374656e7420746f6b656e416363657373436f6e74726f6c3a2073656e646572206d75737420626520616e2061646d696e20746f207265766f6b654552433732313a20617070726f76652063616c6c6572206973206e6f74206f776e6572206e6f7220617070726f76656420666f7220616c6c4552433732313a2062616c616e636520717565727920666f7220746865207a65726f206164647265737368747470733a2f2f63727970746f2d706c616e74732d6d657461646174612d6261636b656e642e6865726f6b756170702e636f6d2f6e6577706c616e742f4552433732313a206f776e657220717565727920666f72206e6f6e6578697374656e7420746f6b656e456e756d657261626c654d61703a20696e646578206f7574206f6620626f756e64734552433732313a20617070726f76656420717565727920666f72206e6f6e6578697374656e7420746f6b656e4552433732313a207472616e73666572206f6620746f6b656e2074686174206973206e6f74206f776e4552433732314d657461646174613a2055524920717565727920666f72206e6f6e6578697374656e7420746f6b656e4552433732313a20617070726f76616c20746f2063757272656e74206f776e65724552433732313a207472616e736665722063616c6c6572206973206e6f74206f776e6572206e6f7220617070726f766564536f75726365206d75737420626520746865206f7261636c65206f662074686520726571756573744552433732315072657365744d696e7465725061757365724175746f49643a206d7573742068617665206d696e74657220726f6c6520746f206d696e744552433732314275726e61626c653a2063616c6c6572206973206e6f74206f776e6572206e6f7220617070726f7665644552433732315072657365744d696e7465725061757365724175746f49643a206d75737420686176652070617573657220726f6c6520746f20756e7061757365416363657373436f6e74726f6c3a2063616e206f6e6c792072656e6f756e636520726f6c657320666f722073656c66a2646970667358221220937dadac1ad5d8411495461b7c977db63b988b51337234aed824c42b8439c77e64736f6c634300060c003368747470733a2f2f63727970746f2d706c616e74732d6d657461646174612d6261636b656e642e6865726f6b756170702e636f6d2f706c616e742f",
  "immutableReferences": {},
  "source": "// SPDX-License-Identifier: MIT\npragma solidity ^0.6;\n\nimport \"../client/node_modules/@openzeppelin/contracts/utils/Counters.sol\";\nimport \"../client/node_modules/@openzeppelin/contracts/presets/ERC721PresetMinterPauserAutoId.sol\";\nimport \"../client/node_modules/@chainlink/contracts/src/v0.6/ChainlinkClient.sol\";\nimport \"../client/node_modules/@chainlink/contracts/src/v0.6/Chainlink.sol\";\nimport \"../client/node_modules/@opengsn/gsn/contracts/BaseRelayRecipient.sol\";\n\ncontract CryptoPlant is ERC721PresetMinterPauserAutoId, ChainlinkClient, BaseRelayRecipient {\n    using Counters for Counters.Counter;\n    Counters.Counter private _tokenIdTracker;\n    address payable public orgAddress;\n\n    address private oracle;\n    bytes32 private jobId;\n    uint256 private fee;\n\n    constructor()\n        public\n        ERC721PresetMinterPauserAutoId(\n            \"CryptoPlant\",\n            \"CPT\",\n            \"https://crypto-plants-metadata-backend.herokuapp.com/plant/\"\n        )\n    {\n        orgAddress = 0x42F323c617c0a6d18547B8a2AaF8BcD1Abe617c9;\n\n        //chainlink\n        oracle = 0x2f90A6D021db21e1B2A077c5a37B3C7E75D15b7e;\n        jobId = \"29fa9aa13bf1468788b7cc4a500a45b8\";\n        fee = 0.1 * 10**18; // 0.1 LINK\n\n        // Biconomy\n        trustedForwarder = 0x2B99251eC9650e507936fa9530D11dE4d6C9C05c;\n    }\n\n    receive() external payable {}\n\n    // function purchaseSeed() public payable returns (bytes32 requestId) {\n    function purchaseSeed() public payable {\n        require(msg.value == 0.00001 ether);\n        orgAddress.transfer(0.0000095 ether); // 5% comission\n\n        // Mint token\n        _mint(_msgSender(), _tokenIdTracker.current());\n        _tokenIdTracker.increment();\n\n        // API call to create metadata using Chainlink\n        Chainlink.Request memory request =\n            buildChainlinkRequest(jobId, address(this), this.fulfill.selector);\n\n        request.add(\n            \"get\",\n            \"https://crypto-plants-metadata-backend.herokuapp.com/newplant/\"\n        );\n        int256 timesAmount = 10**18;\n        request.addInt(\"times\", timesAmount);\n\n        // return sendChainlinkRequestTo(oracle, request, fee);\n    }\n\n    function fulfill(bytes32 _requestId, uint256 _volume)\n        public\n        recordChainlinkFulfillment(_requestId)\n    {\n    }\n\n    /** Biconomy setup **/\n\n    function _msgSender() internal view override(Context, BaseRelayRecipient) returns (address payable ret) {\n        return BaseRelayRecipient._msgSender();\n    }\n\n    function _msgData() internal view override(Context, BaseRelayRecipient) returns (bytes memory ret) {\n    return BaseRelayRecipient._msgData();\n    }\n\n    // TODO access control: only owner can set\n    function setTrustedForwarder(address _forwarder) public {\n        trustedForwarder = _forwarder;\n    }\n\n    function versionRecipient() external override view returns (string memory) {\n        return \"0.1\";\n    }\n\n}\n",
  "sourcePath": "/Users/hp/Documents/denver-hack/crypto-plants/contracts/CryptoPlant.sol",
  "compiler": {
    "name": "solc",
    "version": "0.6.12+commit.27d51765.Emscripten.clang"
  },
  "schemaVersion": "3.3.3",
  "updatedAt": "2021-02-20T12:53:29.288Z",
  "networkType": "ethereum",
  "devdoc": {
    "kind": "dev",
    "methods": {
      "approve(address,uint256)": {
        "details": "See {IERC721-approve}."
      },
      "balanceOf(address)": {
        "details": "See {IERC721-balanceOf}."
      },
      "baseURI()": {
        "details": "Returns the base URI set via {_setBaseURI}. This will be automatically added as a prefix in {tokenURI} to each token's URI, or to the token ID if no specific URI is set for that token ID."
      },
      "burn(uint256)": {
        "details": "Burns `tokenId`. See {ERC721-_burn}. Requirements: - The caller must own `tokenId` or be an approved operator."
      },
      "getApproved(uint256)": {
        "details": "See {IERC721-getApproved}."
      },
      "getRoleAdmin(bytes32)": {
        "details": "Returns the admin role that controls `role`. See {grantRole} and {revokeRole}. To change a role's admin, use {_setRoleAdmin}."
      },
      "getRoleMember(bytes32,uint256)": {
        "details": "Returns one of the accounts that have `role`. `index` must be a value between 0 and {getRoleMemberCount}, non-inclusive. Role bearers are not sorted in any particular way, and their ordering may change at any point. WARNING: When using {getRoleMember} and {getRoleMemberCount}, make sure you perform all queries on the same block. See the following https://forum.openzeppelin.com/t/iterating-over-elements-on-enumerableset-in-openzeppelin-contracts/2296[forum post] for more information."
      },
      "getRoleMemberCount(bytes32)": {
        "details": "Returns the number of accounts that have `role`. Can be used together with {getRoleMember} to enumerate all bearers of a role."
      },
      "grantRole(bytes32,address)": {
        "details": "Grants `role` to `account`. If `account` had not been already granted `role`, emits a {RoleGranted} event. Requirements: - the caller must have ``role``'s admin role."
      },
      "hasRole(bytes32,address)": {
        "details": "Returns `true` if `account` has been granted `role`."
      },
      "isApprovedForAll(address,address)": {
        "details": "See {IERC721-isApprovedForAll}."
      },
      "mint(address)": {
        "details": "Creates a new token for `to`. Its token ID will be automatically assigned (and available on the emitted {IERC721-Transfer} event), and the token URI autogenerated based on the base URI passed at construction. See {ERC721-_mint}. Requirements: - the caller must have the `MINTER_ROLE`."
      },
      "name()": {
        "details": "See {IERC721Metadata-name}."
      },
      "ownerOf(uint256)": {
        "details": "See {IERC721-ownerOf}."
      },
      "pause()": {
        "details": "Pauses all token transfers. See {ERC721Pausable} and {Pausable-_pause}. Requirements: - the caller must have the `PAUSER_ROLE`."
      },
      "paused()": {
        "details": "Returns true if the contract is paused, and false otherwise."
      },
      "renounceRole(bytes32,address)": {
        "details": "Revokes `role` from the calling account. Roles are often managed via {grantRole} and {revokeRole}: this function's purpose is to provide a mechanism for accounts to lose their privileges if they are compromised (such as when a trusted device is misplaced). If the calling account had been granted `role`, emits a {RoleRevoked} event. Requirements: - the caller must be `account`."
      },
      "revokeRole(bytes32,address)": {
        "details": "Revokes `role` from `account`. If `account` had been granted `role`, emits a {RoleRevoked} event. Requirements: - the caller must have ``role``'s admin role."
      },
      "safeTransferFrom(address,address,uint256)": {
        "details": "See {IERC721-safeTransferFrom}."
      },
      "safeTransferFrom(address,address,uint256,bytes)": {
        "details": "See {IERC721-safeTransferFrom}."
      },
      "setApprovalForAll(address,bool)": {
        "details": "See {IERC721-setApprovalForAll}."
      },
      "supportsInterface(bytes4)": {
        "details": "See {IERC165-supportsInterface}. Time complexity O(1), guaranteed to always use less than 30 000 gas."
      },
      "symbol()": {
        "details": "See {IERC721Metadata-symbol}."
      },
      "tokenByIndex(uint256)": {
        "details": "See {IERC721Enumerable-tokenByIndex}."
      },
      "tokenOfOwnerByIndex(address,uint256)": {
        "details": "See {IERC721Enumerable-tokenOfOwnerByIndex}."
      },
      "tokenURI(uint256)": {
        "details": "See {IERC721Metadata-tokenURI}."
      },
      "totalSupply()": {
        "details": "See {IERC721Enumerable-totalSupply}."
      },
      "transferFrom(address,address,uint256)": {
        "details": "See {IERC721-transferFrom}."
      },
      "unpause()": {
        "details": "Unpauses all token transfers. See {ERC721Pausable} and {Pausable-_unpause}. Requirements: - the caller must have the `PAUSER_ROLE`."
      }
    },
    "version": 1
  },
  "userdoc": {
    "kind": "user",
    "methods": {
      "isTrustedForwarder(address)": {
        "notice": "return if the forwarder is trusted to forward relayed transactions to us. the forwarder is required to verify the sender's signature, and verify the call is not a replay."
      }
    },
    "version": 1
  }
}