{
  "contractName": "CryptoPlant",
  "abi": [
    {
      "inputs": [],
      "stateMutability": "nonpayable",
      "type": "constructor"
    },
    {
      "anonymous": false,
      "inputs": [
        {
          "indexed": true,
          "internalType": "address",
          "name": "owner",
          "type": "address"
        },
        {
          "indexed": true,
          "internalType": "address",
          "name": "approved",
          "type": "address"
        },
        {
          "indexed": true,
          "internalType": "uint256",
          "name": "tokenId",
          "type": "uint256"
        }
      ],
      "name": "Approval",
      "type": "event"
    },
    {
      "anonymous": false,
      "inputs": [
        {
          "indexed": true,
          "internalType": "address",
          "name": "owner",
          "type": "address"
        },
        {
          "indexed": true,
          "internalType": "address",
          "name": "operator",
          "type": "address"
        },
        {
          "indexed": false,
          "internalType": "bool",
          "name": "approved",
          "type": "bool"
        }
      ],
      "name": "ApprovalForAll",
      "type": "event"
    },
    {
      "anonymous": false,
      "inputs": [
        {
          "indexed": true,
          "internalType": "bytes32",
          "name": "id",
          "type": "bytes32"
        }
      ],
      "name": "ChainlinkCancelled",
      "type": "event"
    },
    {
      "anonymous": false,
      "inputs": [
        {
          "indexed": true,
          "internalType": "bytes32",
          "name": "id",
          "type": "bytes32"
        }
      ],
      "name": "ChainlinkFulfilled",
      "type": "event"
    },
    {
      "anonymous": false,
      "inputs": [
        {
          "indexed": true,
          "internalType": "bytes32",
          "name": "id",
          "type": "bytes32"
        }
      ],
      "name": "ChainlinkRequested",
      "type": "event"
    },
    {
      "anonymous": false,
      "inputs": [
        {
          "indexed": false,
          "internalType": "address",
          "name": "account",
          "type": "address"
        }
      ],
      "name": "Paused",
      "type": "event"
    },
    {
      "anonymous": false,
      "inputs": [
        {
          "indexed": true,
          "internalType": "bytes32",
          "name": "role",
          "type": "bytes32"
        },
        {
          "indexed": true,
          "internalType": "bytes32",
          "name": "previousAdminRole",
          "type": "bytes32"
        },
        {
          "indexed": true,
          "internalType": "bytes32",
          "name": "newAdminRole",
          "type": "bytes32"
        }
      ],
      "name": "RoleAdminChanged",
      "type": "event"
    },
    {
      "anonymous": false,
      "inputs": [
        {
          "indexed": true,
          "internalType": "bytes32",
          "name": "role",
          "type": "bytes32"
        },
        {
          "indexed": true,
          "internalType": "address",
          "name": "account",
          "type": "address"
        },
        {
          "indexed": true,
          "internalType": "address",
          "name": "sender",
          "type": "address"
        }
      ],
      "name": "RoleGranted",
      "type": "event"
    },
    {
      "anonymous": false,
      "inputs": [
        {
          "indexed": true,
          "internalType": "bytes32",
          "name": "role",
          "type": "bytes32"
        },
        {
          "indexed": true,
          "internalType": "address",
          "name": "account",
          "type": "address"
        },
        {
          "indexed": true,
          "internalType": "address",
          "name": "sender",
          "type": "address"
        }
      ],
      "name": "RoleRevoked",
      "type": "event"
    },
    {
      "anonymous": false,
      "inputs": [
        {
          "indexed": true,
          "internalType": "address",
          "name": "from",
          "type": "address"
        },
        {
          "indexed": true,
          "internalType": "address",
          "name": "to",
          "type": "address"
        },
        {
          "indexed": true,
          "internalType": "uint256",
          "name": "tokenId",
          "type": "uint256"
        }
      ],
      "name": "Transfer",
      "type": "event"
    },
    {
      "anonymous": false,
      "inputs": [
        {
          "indexed": false,
          "internalType": "address",
          "name": "account",
          "type": "address"
        }
      ],
      "name": "Unpaused",
      "type": "event"
    },
    {
      "inputs": [],
      "name": "DEFAULT_ADMIN_ROLE",
      "outputs": [
        {
          "internalType": "bytes32",
          "name": "",
          "type": "bytes32"
        }
      ],
      "stateMutability": "view",
      "type": "function",
      "constant": true
    },
    {
      "inputs": [],
      "name": "MINTER_ROLE",
      "outputs": [
        {
          "internalType": "bytes32",
          "name": "",
          "type": "bytes32"
        }
      ],
      "stateMutability": "view",
      "type": "function",
      "constant": true
    },
    {
      "inputs": [],
      "name": "PAUSER_ROLE",
      "outputs": [
        {
          "internalType": "bytes32",
          "name": "",
          "type": "bytes32"
        }
      ],
      "stateMutability": "view",
      "type": "function",
      "constant": true
    },
    {
      "inputs": [
        {
          "internalType": "address",
          "name": "to",
          "type": "address"
        },
        {
          "internalType": "uint256",
          "name": "tokenId",
          "type": "uint256"
        }
      ],
      "name": "approve",
      "outputs": [],
      "stateMutability": "nonpayable",
      "type": "function"
    },
    {
      "inputs": [
        {
          "internalType": "address",
          "name": "owner",
          "type": "address"
        }
      ],
      "name": "balanceOf",
      "outputs": [
        {
          "internalType": "uint256",
          "name": "",
          "type": "uint256"
        }
      ],
      "stateMutability": "view",
      "type": "function",
      "constant": true
    },
    {
      "inputs": [],
      "name": "baseURI",
      "outputs": [
        {
          "internalType": "string",
          "name": "",
          "type": "string"
        }
      ],
      "stateMutability": "view",
      "type": "function",
      "constant": true
    },
    {
      "inputs": [
        {
          "internalType": "uint256",
          "name": "tokenId",
          "type": "uint256"
        }
      ],
      "name": "burn",
      "outputs": [],
      "stateMutability": "nonpayable",
      "type": "function"
    },
    {
      "inputs": [
        {
          "internalType": "uint256",
          "name": "tokenId",
          "type": "uint256"
        }
      ],
      "name": "getApproved",
      "outputs": [
        {
          "internalType": "address",
          "name": "",
          "type": "address"
        }
      ],
      "stateMutability": "view",
      "type": "function",
      "constant": true
    },
    {
      "inputs": [
        {
          "internalType": "bytes32",
          "name": "role",
          "type": "bytes32"
        }
      ],
      "name": "getRoleAdmin",
      "outputs": [
        {
          "internalType": "bytes32",
          "name": "",
          "type": "bytes32"
        }
      ],
      "stateMutability": "view",
      "type": "function",
      "constant": true
    },
    {
      "inputs": [
        {
          "internalType": "bytes32",
          "name": "role",
          "type": "bytes32"
        },
        {
          "internalType": "uint256",
          "name": "index",
          "type": "uint256"
        }
      ],
      "name": "getRoleMember",
      "outputs": [
        {
          "internalType": "address",
          "name": "",
          "type": "address"
        }
      ],
      "stateMutability": "view",
      "type": "function",
      "constant": true
    },
    {
      "inputs": [
        {
          "internalType": "bytes32",
          "name": "role",
          "type": "bytes32"
        }
      ],
      "name": "getRoleMemberCount",
      "outputs": [
        {
          "internalType": "uint256",
          "name": "",
          "type": "uint256"
        }
      ],
      "stateMutability": "view",
      "type": "function",
      "constant": true
    },
    {
      "inputs": [
        {
          "internalType": "bytes32",
          "name": "role",
          "type": "bytes32"
        },
        {
          "internalType": "address",
          "name": "account",
          "type": "address"
        }
      ],
      "name": "grantRole",
      "outputs": [],
      "stateMutability": "nonpayable",
      "type": "function"
    },
    {
      "inputs": [
        {
          "internalType": "bytes32",
          "name": "role",
          "type": "bytes32"
        },
        {
          "internalType": "address",
          "name": "account",
          "type": "address"
        }
      ],
      "name": "hasRole",
      "outputs": [
        {
          "internalType": "bool",
          "name": "",
          "type": "bool"
        }
      ],
      "stateMutability": "view",
      "type": "function",
      "constant": true
    },
    {
      "inputs": [
        {
          "internalType": "address",
          "name": "owner",
          "type": "address"
        },
        {
          "internalType": "address",
          "name": "operator",
          "type": "address"
        }
      ],
      "name": "isApprovedForAll",
      "outputs": [
        {
          "internalType": "bool",
          "name": "",
          "type": "bool"
        }
      ],
      "stateMutability": "view",
      "type": "function",
      "constant": true
    },
    {
      "inputs": [
        {
          "internalType": "address",
          "name": "to",
          "type": "address"
        }
      ],
      "name": "mint",
      "outputs": [],
      "stateMutability": "nonpayable",
      "type": "function"
    },
    {
      "inputs": [],
      "name": "name",
      "outputs": [
        {
          "internalType": "string",
          "name": "",
          "type": "string"
        }
      ],
      "stateMutability": "view",
      "type": "function",
      "constant": true
    },
    {
      "inputs": [],
      "name": "orgAddress",
      "outputs": [
        {
          "internalType": "address payable",
          "name": "",
          "type": "address"
        }
      ],
      "stateMutability": "view",
      "type": "function",
      "constant": true
    },
    {
      "inputs": [
        {
          "internalType": "uint256",
          "name": "tokenId",
          "type": "uint256"
        }
      ],
      "name": "ownerOf",
      "outputs": [
        {
          "internalType": "address",
          "name": "",
          "type": "address"
        }
      ],
      "stateMutability": "view",
      "type": "function",
      "constant": true
    },
    {
      "inputs": [],
      "name": "pause",
      "outputs": [],
      "stateMutability": "nonpayable",
      "type": "function"
    },
    {
      "inputs": [],
      "name": "paused",
      "outputs": [
        {
          "internalType": "bool",
          "name": "",
          "type": "bool"
        }
      ],
      "stateMutability": "view",
      "type": "function",
      "constant": true
    },
    {
      "inputs": [
        {
          "internalType": "bytes32",
          "name": "role",
          "type": "bytes32"
        },
        {
          "internalType": "address",
          "name": "account",
          "type": "address"
        }
      ],
      "name": "renounceRole",
      "outputs": [],
      "stateMutability": "nonpayable",
      "type": "function"
    },
    {
      "inputs": [
        {
          "internalType": "bytes32",
          "name": "role",
          "type": "bytes32"
        },
        {
          "internalType": "address",
          "name": "account",
          "type": "address"
        }
      ],
      "name": "revokeRole",
      "outputs": [],
      "stateMutability": "nonpayable",
      "type": "function"
    },
    {
      "inputs": [
        {
          "internalType": "address",
          "name": "from",
          "type": "address"
        },
        {
          "internalType": "address",
          "name": "to",
          "type": "address"
        },
        {
          "internalType": "uint256",
          "name": "tokenId",
          "type": "uint256"
        }
      ],
      "name": "safeTransferFrom",
      "outputs": [],
      "stateMutability": "nonpayable",
      "type": "function"
    },
    {
      "inputs": [
        {
          "internalType": "address",
          "name": "from",
          "type": "address"
        },
        {
          "internalType": "address",
          "name": "to",
          "type": "address"
        },
        {
          "internalType": "uint256",
          "name": "tokenId",
          "type": "uint256"
        },
        {
          "internalType": "bytes",
          "name": "_data",
          "type": "bytes"
        }
      ],
      "name": "safeTransferFrom",
      "outputs": [],
      "stateMutability": "nonpayable",
      "type": "function"
    },
    {
      "inputs": [
        {
          "internalType": "address",
          "name": "operator",
          "type": "address"
        },
        {
          "internalType": "bool",
          "name": "approved",
          "type": "bool"
        }
      ],
      "name": "setApprovalForAll",
      "outputs": [],
      "stateMutability": "nonpayable",
      "type": "function"
    },
    {
      "inputs": [
        {
          "internalType": "bytes4",
          "name": "interfaceId",
          "type": "bytes4"
        }
      ],
      "name": "supportsInterface",
      "outputs": [
        {
          "internalType": "bool",
          "name": "",
          "type": "bool"
        }
      ],
      "stateMutability": "view",
      "type": "function",
      "constant": true
    },
    {
      "inputs": [],
      "name": "symbol",
      "outputs": [
        {
          "internalType": "string",
          "name": "",
          "type": "string"
        }
      ],
      "stateMutability": "view",
      "type": "function",
      "constant": true
    },
    {
      "inputs": [
        {
          "internalType": "uint256",
          "name": "index",
          "type": "uint256"
        }
      ],
      "name": "tokenByIndex",
      "outputs": [
        {
          "internalType": "uint256",
          "name": "",
          "type": "uint256"
        }
      ],
      "stateMutability": "view",
      "type": "function",
      "constant": true
    },
    {
      "inputs": [
        {
          "internalType": "address",
          "name": "owner",
          "type": "address"
        },
        {
          "internalType": "uint256",
          "name": "index",
          "type": "uint256"
        }
      ],
      "name": "tokenOfOwnerByIndex",
      "outputs": [
        {
          "internalType": "uint256",
          "name": "",
          "type": "uint256"
        }
      ],
      "stateMutability": "view",
      "type": "function",
      "constant": true
    },
    {
      "inputs": [
        {
          "internalType": "uint256",
          "name": "tokenId",
          "type": "uint256"
        }
      ],
      "name": "tokenURI",
      "outputs": [
        {
          "internalType": "string",
          "name": "",
          "type": "string"
        }
      ],
      "stateMutability": "view",
      "type": "function",
      "constant": true
    },
    {
      "inputs": [],
      "name": "totalSupply",
      "outputs": [
        {
          "internalType": "uint256",
          "name": "",
          "type": "uint256"
        }
      ],
      "stateMutability": "view",
      "type": "function",
      "constant": true
    },
    {
      "inputs": [
        {
          "internalType": "address",
          "name": "from",
          "type": "address"
        },
        {
          "internalType": "address",
          "name": "to",
          "type": "address"
        },
        {
          "internalType": "uint256",
          "name": "tokenId",
          "type": "uint256"
        }
      ],
      "name": "transferFrom",
      "outputs": [],
      "stateMutability": "nonpayable",
      "type": "function"
    },
    {
      "inputs": [],
      "name": "unpause",
      "outputs": [],
      "stateMutability": "nonpayable",
      "type": "function"
    },
    {
      "stateMutability": "payable",
      "type": "receive",
      "payable": true
    },
    {
      "inputs": [],
      "name": "purchaseSeed",
      "outputs": [],
      "stateMutability": "payable",
      "type": "function",
      "payable": true
    },
    {
      "inputs": [
        {
          "internalType": "bytes32",
          "name": "_requestId",
          "type": "bytes32"
        },
        {
          "internalType": "uint256",
          "name": "_volume",
          "type": "uint256"
        }
      ],
      "name": "fulfill",
      "outputs": [],
      "stateMutability": "nonpayable",
      "type": "function"
    }
  ],
  "bytecode": "0x608060405260016011553480156200001657600080fd5b506040518060400160405280600b81526020017f43727970746f506c616e740000000000000000000000000000000000000000008152506040518060400160405280600381526020017f43505400000000000000000000000000000000000000000000000000000000008152506040518060600160405280603b815260200162004de5603b91398282620000b76301ffc9a760e01b620002ee60201b60201c565b8160079080519060200190620000cf929190620005a9565b508060089080519060200190620000e8929190620005a9565b50620001016380ac58cd60e01b620002ee60201b60201c565b62000119635b5e139f60e01b620002ee60201b60201c565b6200013163780e9d6360e01b620002ee60201b60201c565b50506000600b60006101000a81548160ff021916908315150217905550620001726000801b62000166620003f760201b60201c565b620003ff60201b60201c565b620001b37f9f2df0fed2c77648de5860a4cc508cd0818c85b8b8a1ab4ceeef8d981c8956a6620001a7620003f760201b60201c565b620003ff60201b60201c565b620001f47f65d7a28e3265b37a6474929f336521b332c1681b933f6cb9f3376673440d862a620001e8620003f760201b60201c565b620003ff60201b60201c565b62000205816200041560201b60201c565b5050507342f323c617c0a6d18547b8a2aaf8bcd1abe617c9601460006101000a81548173ffffffffffffffffffffffffffffffffffffffff021916908373ffffffffffffffffffffffffffffffffffffffff160217905550732f90a6d021db21e1b2a077c5a37b3c7e75d15b7e601560006101000a81548173ffffffffffffffffffffffffffffffffffffffff021916908373ffffffffffffffffffffffffffffffffffffffff1602179055507f323966613961613133626631343638373838623763633461353030613435623860168190555067016345785d8a00006017819055506200064f565b63ffffffff60e01b817bffffffffffffffffffffffffffffffffffffffffffffffffffffffff191614156200038b576040517f08c379a000000000000000000000000000000000000000000000000000000000815260040180806020018281038252601c8152602001807f4552433136353a20696e76616c696420696e746572666163652069640000000081525060200191505060405180910390fd5b6001806000837bffffffffffffffffffffffffffffffffffffffffffffffffffffffff19167bffffffffffffffffffffffffffffffffffffffffffffffffffffffff1916815260200190815260200160002060006101000a81548160ff02191690831515021790555050565b600033905090565b6200041182826200043160201b60201c565b5050565b80600a90805190602001906200042d929190620005a9565b5050565b6200045f81600080858152602001908152602001600020600001620004d460201b6200226e1790919060201c565b15620004d05762000475620003f760201b60201c565b73ffffffffffffffffffffffffffffffffffffffff168173ffffffffffffffffffffffffffffffffffffffff16837f2f8788117e7eff1d82e926ec794901d17c78024a50270940304540a733656f0d60405160405180910390a45b5050565b600062000504836000018373ffffffffffffffffffffffffffffffffffffffff1660001b6200050c60201b60201c565b905092915050565b60006200052083836200058660201b60201c565b6200057b57826000018290806001815401808255809150506001900390600052602060002001600090919091909150558260000180549050836001016000848152602001908152602001600020819055506001905062000580565b600090505b92915050565b600080836001016000848152602001908152602001600020541415905092915050565b828054600181600116156101000203166002900490600052602060002090601f016020900481019282601f10620005ec57805160ff19168380011785556200061d565b828001600101855582156200061d579182015b828111156200061c578251825591602001919060010190620005ff565b5b5090506200062c919062000630565b5090565b5b808211156200064b57600081600090555060010162000631565b5090565b614786806200065f6000396000f3fe6080604052600436106102085760003560e01c80636352211e11610118578063a217fddf116100a0578063ca15c8731161006f578063ca15c87314610d47578063d539139314610d96578063d547741f14610dc1578063e63ab1e914610e1c578063e985e9c514610e475761020f565b8063a217fddf14610af9578063a22cb46514610b24578063b88d4fde14610b81578063c87b56dd14610c935761020f565b8063797ea25d116100e7578063797ea25d146109315780638456cb59146109725780639010d07c1461098957806391d14854146109f857806395d89b4114610a695761020f565b80636352211e146107865780636a627842146107eb5780636c0360eb1461083c57806370a08231146108cc5761020f565b80632f745c591161019b57806342842e0e1161016a57806342842e0e1461060f57806342966c681461068a5780634357855e146106c55780634f6ccce71461070a5780635c975abb146107595761020f565b80632f745c591461052457806336568abe146105935780633f4ba83a146105ee57806340e55f9b146106055761020f565b806318160ddd116101d757806318160ddd146103d457806323b872dd146103ff578063248a9ca31461047a5780632f2ff15d146104c95761020f565b806301ffc9a71461021457806306fdde0314610284578063081812fc14610314578063095ea7b3146103795761020f565b3661020f57005b600080fd5b34801561022057600080fd5b5061026c6004803603602081101561023757600080fd5b8101908080357bffffffffffffffffffffffffffffffffffffffffffffffffffffffff19169060200190929190505050610ece565b60405180821515815260200191505060405180910390f35b34801561029057600080fd5b50610299610f36565b6040518080602001828103825283818151815260200191508051906020019080838360005b838110156102d95780820151818401526020810190506102be565b50505050905090810190601f1680156103065780820380516001836020036101000a031916815260200191505b509250505060405180910390f35b34801561032057600080fd5b5061034d6004803603602081101561033757600080fd5b8101908080359060200190929190505050610fd8565b604051808273ffffffffffffffffffffffffffffffffffffffff16815260200191505060405180910390f35b34801561038557600080fd5b506103d26004803603604081101561039c57600080fd5b81019080803573ffffffffffffffffffffffffffffffffffffffff16906020019092919080359060200190929190505050611073565b005b3480156103e057600080fd5b506103e96111b7565b6040518082815260200191505060405180910390f35b34801561040b57600080fd5b506104786004803603606081101561042257600080fd5b81019080803573ffffffffffffffffffffffffffffffffffffffff169060200190929190803573ffffffffffffffffffffffffffffffffffffffff169060200190929190803590602001909291905050506111c8565b005b34801561048657600080fd5b506104b36004803603602081101561049d57600080fd5b810190808035906020019092919050505061123e565b6040518082815260200191505060405180910390f35b3480156104d557600080fd5b50610522600480360360408110156104ec57600080fd5b8101908080359060200190929190803573ffffffffffffffffffffffffffffffffffffffff16906020019092919050505061125d565b005b34801561053057600080fd5b5061057d6004803603604081101561054757600080fd5b81019080803573ffffffffffffffffffffffffffffffffffffffff169060200190929190803590602001909291905050506112e6565b6040518082815260200191505060405180910390f35b34801561059f57600080fd5b506105ec600480360360408110156105b657600080fd5b8101908080359060200190929190803573ffffffffffffffffffffffffffffffffffffffff169060200190929190505050611341565b005b3480156105fa57600080fd5b506106036113da565b005b61060d61146a565b005b34801561061b57600080fd5b506106886004803603606081101561063257600080fd5b81019080803573ffffffffffffffffffffffffffffffffffffffff169060200190929190803573ffffffffffffffffffffffffffffffffffffffff169060200190929190803590602001909291905050506115e3565b005b34801561069657600080fd5b506106c3600480360360208110156106ad57600080fd5b8101908080359060200190929190505050611603565b005b3480156106d157600080fd5b50610708600480360360408110156106e857600080fd5b810190808035906020019092919080359060200190929190505050611675565b005b34801561071657600080fd5b506107436004803603602081101561072d57600080fd5b8101908080359060200190929190505050611795565b6040518082815260200191505060405180910390f35b34801561076557600080fd5b5061076e6117b8565b60405180821515815260200191505060405180910390f35b34801561079257600080fd5b506107bf600480360360208110156107a957600080fd5b81019080803590602001909291905050506117cf565b604051808273ffffffffffffffffffffffffffffffffffffffff16815260200191505060405180910390f35b3480156107f757600080fd5b5061083a6004803603602081101561080e57600080fd5b81019080803573ffffffffffffffffffffffffffffffffffffffff169060200190929190505050611806565b005b34801561084857600080fd5b506108516118ac565b6040518080602001828103825283818151815260200191508051906020019080838360005b83811015610891578082015181840152602081019050610876565b50505050905090810190601f1680156108be5780820380516001836020036101000a031916815260200191505b509250505060405180910390f35b3480156108d857600080fd5b5061091b600480360360208110156108ef57600080fd5b81019080803573ffffffffffffffffffffffffffffffffffffffff16906020019092919050505061194e565b6040518082815260200191505060405180910390f35b34801561093d57600080fd5b50610946611a23565b604051808273ffffffffffffffffffffffffffffffffffffffff16815260200191505060405180910390f35b34801561097e57600080fd5b50610987611a49565b005b34801561099557600080fd5b506109cc600480360360408110156109ac57600080fd5b810190808035906020019092919080359060200190929190505050611ad9565b604051808273ffffffffffffffffffffffffffffffffffffffff16815260200191505060405180910390f35b348015610a0457600080fd5b50610a5160048036036040811015610a1b57600080fd5b8101908080359060200190929190803573ffffffffffffffffffffffffffffffffffffffff169060200190929190505050611b0a565b60405180821515815260200191505060405180910390f35b348015610a7557600080fd5b50610a7e611b3b565b6040518080602001828103825283818151815260200191508051906020019080838360005b83811015610abe578082015181840152602081019050610aa3565b50505050905090810190601f168015610aeb5780820380516001836020036101000a031916815260200191505b509250505060405180910390f35b348015610b0557600080fd5b50610b0e611bdd565b6040518082815260200191505060405180910390f35b348015610b3057600080fd5b50610b7f60048036036040811015610b4757600080fd5b81019080803573ffffffffffffffffffffffffffffffffffffffff169060200190929190803515159060200190929190505050611be4565b005b348015610b8d57600080fd5b50610c9160048036036080811015610ba457600080fd5b81019080803573ffffffffffffffffffffffffffffffffffffffff169060200190929190803573ffffffffffffffffffffffffffffffffffffffff1690602001909291908035906020019092919080359060200190640100000000811115610c0b57600080fd5b820183602082011115610c1d57600080fd5b80359060200191846001830284011164010000000083111715610c3f57600080fd5b91908080601f016020809104026020016040519081016040528093929190818152602001838380828437600081840152601f19601f820116905080830192505050505050509192919290505050611d9a565b005b348015610c9f57600080fd5b50610ccc60048036036020811015610cb657600080fd5b8101908080359060200190929190505050611e12565b6040518080602001828103825283818151815260200191508051906020019080838360005b83811015610d0c578082015181840152602081019050610cf1565b50505050905090810190601f168015610d395780820380516001836020036101000a031916815260200191505b509250505060405180910390f35b348015610d5357600080fd5b50610d8060048036036020811015610d6a57600080fd5b81019080803590602001909291905050506120e3565b6040518082815260200191505060405180910390f35b348015610da257600080fd5b50610dab612109565b6040518082815260200191505060405180910390f35b348015610dcd57600080fd5b50610e1a60048036036040811015610de457600080fd5b8101908080359060200190929190803573ffffffffffffffffffffffffffffffffffffffff16906020019092919050505061212d565b005b348015610e2857600080fd5b50610e316121b6565b6040518082815260200191505060405180910390f35b348015610e5357600080fd5b50610eb660048036036040811015610e6a57600080fd5b81019080803573ffffffffffffffffffffffffffffffffffffffff169060200190929190803573ffffffffffffffffffffffffffffffffffffffff1690602001909291905050506121da565b60405180821515815260200191505060405180910390f35b600060016000837bffffffffffffffffffffffffffffffffffffffffffffffffffffffff19167bffffffffffffffffffffffffffffffffffffffffffffffffffffffff1916815260200190815260200160002060009054906101000a900460ff169050919050565b606060078054600181600116156101000203166002900480601f016020809104026020016040519081016040528092919081815260200182805460018160011615610100020316600290048015610fce5780601f10610fa357610100808354040283529160200191610fce565b820191906000526020600020905b815481529060010190602001808311610fb157829003601f168201915b5050505050905090565b6000610fe38261229e565b611038576040517f08c379a000000000000000000000000000000000000000000000000000000000815260040180806020018281038252602c815260200180614577602c913960400191505060405180910390fd5b6005600083815260200190815260200160002060009054906101000a900473ffffffffffffffffffffffffffffffffffffffff169050919050565b600061107e826117cf565b90508073ffffffffffffffffffffffffffffffffffffffff168373ffffffffffffffffffffffffffffffffffffffff161415611105576040517f08c379a00000000000000000000000000000000000000000000000000000000081526004018080602001828103825260218152602001806145fb6021913960400191505060405180910390fd5b8073ffffffffffffffffffffffffffffffffffffffff166111246122bb565b73ffffffffffffffffffffffffffffffffffffffff16148061115357506111528161114d6122bb565b6121da565b5b6111a8576040517f08c379a000000000000000000000000000000000000000000000000000000000815260040180806020018281038252603881526020018061448c6038913960400191505060405180910390fd5b6111b283836122c3565b505050565b60006111c3600361237c565b905090565b6111d96111d36122bb565b82612391565b61122e576040517f08c379a000000000000000000000000000000000000000000000000000000000815260040180806020018281038252603181526020018061461c6031913960400191505060405180910390fd5b611239838383612485565b505050565b6000806000838152602001908152602001600020600201549050919050565b6112836000808481526020019081526020016000206002015461127e6122bb565b611b0a565b6112d8576040517f08c379a000000000000000000000000000000000000000000000000000000000815260040180806020018281038252602f815260200180614347602f913960400191505060405180910390fd5b6112e282826126c8565b5050565b600061133982600260008673ffffffffffffffffffffffffffffffffffffffff1673ffffffffffffffffffffffffffffffffffffffff16815260200190815260200160002061275b90919063ffffffff16565b905092915050565b6113496122bb565b73ffffffffffffffffffffffffffffffffffffffff168173ffffffffffffffffffffffffffffffffffffffff16146113cc576040517f08c379a000000000000000000000000000000000000000000000000000000000815260040180806020018281038252602f815260200180614722602f913960400191505060405180910390fd5b6113d68282612775565b5050565b61140b7f65d7a28e3265b37a6474929f336521b332c1681b933f6cb9f3376673440d862a6114066122bb565b611b0a565b611460576040517f08c379a00000000000000000000000000000000000000000000000000000000081526004018080602001828103825260408152602001806146e26040913960400191505060405180910390fd5b611468612808565b565b6509184e72a000341461147c57600080fd5b601460009054906101000a900473ffffffffffffffffffffffffffffffffffffffff1673ffffffffffffffffffffffffffffffffffffffff166108fc6508a3e42018009081150290604051600060405180830381858888f193505050501580156114ea573d6000803e3d6000fd5b506114fe336114f960136128f3565b612901565b6115086013612af5565b61151061420d565b61152460165430634357855e60e01b612b0b565b90506115886040518060400160405280600381526020017f67657400000000000000000000000000000000000000000000000000000000008152506040518060600160405280603e81526020016144ee603e913983612b3c9092919063ffffffff16565b6000670de0b6b3a764000090506115df6040518060400160405280600581526020017f74696d65730000000000000000000000000000000000000000000000000000008152508284612b6f9092919063ffffffff16565b5050565b6115fe83838360405180602001604052806000815250611d9a565b505050565b61161461160e6122bb565b82612391565b611669576040517f08c379a00000000000000000000000000000000000000000000000000000000081526004018080602001828103825260308152602001806146b26030913960400191505060405180910390fd5b61167281612ba2565b50565b816012600082815260200190815260200160002060009054906101000a900473ffffffffffffffffffffffffffffffffffffffff1673ffffffffffffffffffffffffffffffffffffffff163373ffffffffffffffffffffffffffffffffffffffff161461172d576040517f08c379a000000000000000000000000000000000000000000000000000000000815260040180806020018281038252602881526020018061464d6028913960400191505060405180910390fd5b6012600082815260200190815260200160002060006101000a81549073ffffffffffffffffffffffffffffffffffffffff0219169055807f7cc135e0cebb02c3480ae5d74d377283180a2601f8f644edf7987b009316c63a60405160405180910390a2505050565b6000806117ac836003612cdc90919063ffffffff16565b50905080915050919050565b6000600b60009054906101000a900460ff16905090565b60006117ff8260405180606001604052806029815260200161452c602991396003612d089092919063ffffffff16565b9050919050565b6118377f9f2df0fed2c77648de5860a4cc508cd0818c85b8b8a1ab4ceeef8d981c8956a66118326122bb565b611b0a565b61188c576040517f08c379a000000000000000000000000000000000000000000000000000000000815260040180806020018281038252603d815260200180614675603d913960400191505060405180910390fd5b61189f8161189a600c6128f3565b612901565b6118a9600c612af5565b50565b6060600a8054600181600116156101000203166002900480601f0160208091040260200160405190810160405280929190818152602001828054600181600116156101000203166002900480156119445780601f1061191957610100808354040283529160200191611944565b820191906000526020600020905b81548152906001019060200180831161192757829003601f168201915b5050505050905090565b60008073ffffffffffffffffffffffffffffffffffffffff168273ffffffffffffffffffffffffffffffffffffffff1614156119d5576040517f08c379a000000000000000000000000000000000000000000000000000000000815260040180806020018281038252602a8152602001806144c4602a913960400191505060405180910390fd5b611a1c600260008473ffffffffffffffffffffffffffffffffffffffff1673ffffffffffffffffffffffffffffffffffffffff168152602001908152602001600020612d27565b9050919050565b601460009054906101000a900473ffffffffffffffffffffffffffffffffffffffff1681565b611a7a7f65d7a28e3265b37a6474929f336521b332c1681b933f6cb9f3376673440d862a611a756122bb565b611b0a565b611acf576040517f08c379a000000000000000000000000000000000000000000000000000000000815260040180806020018281038252603e8152602001806143a8603e913960400191505060405180910390fd5b611ad7612d3c565b565b6000611b0282600080868152602001908152602001600020600001612e2890919063ffffffff16565b905092915050565b6000611b3382600080868152602001908152602001600020600001612e4290919063ffffffff16565b905092915050565b606060088054600181600116156101000203166002900480601f016020809104026020016040519081016040528092919081815260200182805460018160011615610100020316600290048015611bd35780601f10611ba857610100808354040283529160200191611bd3565b820191906000526020600020905b815481529060010190602001808311611bb657829003601f168201915b5050505050905090565b6000801b81565b611bec6122bb565b73ffffffffffffffffffffffffffffffffffffffff168273ffffffffffffffffffffffffffffffffffffffff161415611c8d576040517f08c379a00000000000000000000000000000000000000000000000000000000081526004018080602001828103825260198152602001807f4552433732313a20617070726f766520746f2063616c6c65720000000000000081525060200191505060405180910390fd5b8060066000611c9a6122bb565b73ffffffffffffffffffffffffffffffffffffffff1673ffffffffffffffffffffffffffffffffffffffff16815260200190815260200160002060008473ffffffffffffffffffffffffffffffffffffffff1673ffffffffffffffffffffffffffffffffffffffff16815260200190815260200160002060006101000a81548160ff0219169083151502179055508173ffffffffffffffffffffffffffffffffffffffff16611d476122bb565b73ffffffffffffffffffffffffffffffffffffffff167f17307eab39ab6107e8899845ad3d59bd9653f200f220920489ca2b5937696c318360405180821515815260200191505060405180910390a35050565b611dab611da56122bb565b83612391565b611e00576040517f08c379a000000000000000000000000000000000000000000000000000000000815260040180806020018281038252603181526020018061461c6031913960400191505060405180910390fd5b611e0c84848484612e72565b50505050565b6060611e1d8261229e565b611e72576040517f08c379a000000000000000000000000000000000000000000000000000000000815260040180806020018281038252602f8152602001806145cc602f913960400191505060405180910390fd5b6060600960008481526020019081526020016000208054600181600116156101000203166002900480601f016020809104026020016040519081016040528092919081815260200182805460018160011615610100020316600290048015611f1b5780601f10611ef057610100808354040283529160200191611f1b565b820191906000526020600020905b815481529060010190602001808311611efe57829003601f168201915b505050505090506060611f2c6118ac565b9050600081511415611f425781925050506120de565b6000825111156120135780826040516020018083805190602001908083835b60208310611f845780518252602082019150602081019050602083039250611f61565b6001836020036101000a03801982511681845116808217855250505050505090500182805190602001908083835b60208310611fd55780518252602082019150602081019050602083039250611fb2565b6001836020036101000a03801982511681845116808217855250505050505090500192505050604051602081830303815290604052925050506120de565b8061201d85612ee4565b6040516020018083805190602001908083835b602083106120535780518252602082019150602081019050602083039250612030565b6001836020036101000a03801982511681845116808217855250505050505090500182805190602001908083835b602083106120a45780518252602082019150602081019050602083039250612081565b6001836020036101000a03801982511681845116808217855250505050505090500192505050604051602081830303815290604052925050505b919050565b600061210260008084815260200190815260200160002060000161302b565b9050919050565b7f9f2df0fed2c77648de5860a4cc508cd0818c85b8b8a1ab4ceeef8d981c8956a681565b6121536000808481526020019081526020016000206002015461214e6122bb565b611b0a565b6121a8576040517f08c379a000000000000000000000000000000000000000000000000000000000815260040180806020018281038252603081526020018061445c6030913960400191505060405180910390fd5b6121b28282612775565b5050565b7f65d7a28e3265b37a6474929f336521b332c1681b933f6cb9f3376673440d862a81565b6000600660008473ffffffffffffffffffffffffffffffffffffffff1673ffffffffffffffffffffffffffffffffffffffff16815260200190815260200160002060008373ffffffffffffffffffffffffffffffffffffffff1673ffffffffffffffffffffffffffffffffffffffff16815260200190815260200160002060009054906101000a900460ff16905092915050565b6000612296836000018373ffffffffffffffffffffffffffffffffffffffff1660001b613040565b905092915050565b60006122b48260036130b090919063ffffffff16565b9050919050565b600033905090565b816005600083815260200190815260200160002060006101000a81548173ffffffffffffffffffffffffffffffffffffffff021916908373ffffffffffffffffffffffffffffffffffffffff160217905550808273ffffffffffffffffffffffffffffffffffffffff16612336836117cf565b73ffffffffffffffffffffffffffffffffffffffff167f8c5be1e5ebec7d5bd14f71427d1e84f3dd0314c0f7b2291e5b200ac8c7c3b92560405160405180910390a45050565b600061238a826000016130ca565b9050919050565b600061239c8261229e565b6123f1576040517f08c379a000000000000000000000000000000000000000000000000000000000815260040180806020018281038252602c815260200180614430602c913960400191505060405180910390fd5b60006123fc836117cf565b90508073ffffffffffffffffffffffffffffffffffffffff168473ffffffffffffffffffffffffffffffffffffffff16148061246b57508373ffffffffffffffffffffffffffffffffffffffff1661245384610fd8565b73ffffffffffffffffffffffffffffffffffffffff16145b8061247c575061247b81856121da565b5b91505092915050565b8273ffffffffffffffffffffffffffffffffffffffff166124a5826117cf565b73ffffffffffffffffffffffffffffffffffffffff1614612511576040517f08c379a00000000000000000000000000000000000000000000000000000000081526004018080602001828103825260298152602001806145a36029913960400191505060405180910390fd5b600073ffffffffffffffffffffffffffffffffffffffff168273ffffffffffffffffffffffffffffffffffffffff161415612597576040517f08c379a00000000000000000000000000000000000000000000000000000000081526004018080602001828103825260248152602001806143e66024913960400191505060405180910390fd5b6125a28383836130db565b6125ad6000826122c3565b6125fe81600260008673ffffffffffffffffffffffffffffffffffffffff1673ffffffffffffffffffffffffffffffffffffffff1681526020019081526020016000206130eb90919063ffffffff16565b5061265081600260008573ffffffffffffffffffffffffffffffffffffffff1673ffffffffffffffffffffffffffffffffffffffff16815260200190815260200160002061310590919063ffffffff16565b506126678183600361311f9092919063ffffffff16565b50808273ffffffffffffffffffffffffffffffffffffffff168473ffffffffffffffffffffffffffffffffffffffff167fddf252ad1be2c89b69c2b068fc378daa952ba7f163c4a11628f55a4df523b3ef60405160405180910390a4505050565b6126ef8160008085815260200190815260200160002060000161226e90919063ffffffff16565b15612757576126fc6122bb565b73ffffffffffffffffffffffffffffffffffffffff168173ffffffffffffffffffffffffffffffffffffffff16837f2f8788117e7eff1d82e926ec794901d17c78024a50270940304540a733656f0d60405160405180910390a45b5050565b600061276a8360000183613154565b60001c905092915050565b61279c816000808581526020019081526020016000206000016131d790919063ffffffff16565b15612804576127a96122bb565b73ffffffffffffffffffffffffffffffffffffffff168173ffffffffffffffffffffffffffffffffffffffff16837ff6391f5c32d9c69d2a47ea670b442974b53935d1edc7fd64eb21e047a839171b60405160405180910390a45b5050565b6128106117b8565b612882576040517f08c379a00000000000000000000000000000000000000000000000000000000081526004018080602001828103825260148152602001807f5061757361626c653a206e6f742070617573656400000000000000000000000081525060200191505060405180910390fd5b6000600b60006101000a81548160ff0219169083151502179055507f5db9ee0a495bf2e6ff9c91a7834c1ba4fdd244a5e8aa4e537bd38aeae4b073aa6128c66122bb565b604051808273ffffffffffffffffffffffffffffffffffffffff16815260200191505060405180910390a1565b600081600001549050919050565b600073ffffffffffffffffffffffffffffffffffffffff168273ffffffffffffffffffffffffffffffffffffffff1614156129a4576040517f08c379a00000000000000000000000000000000000000000000000000000000081526004018080602001828103825260208152602001807f4552433732313a206d696e7420746f20746865207a65726f206164647265737381525060200191505060405180910390fd5b6129ad8161229e565b15612a20576040517f08c379a000000000000000000000000000000000000000000000000000000000815260040180806020018281038252601c8152602001807f4552433732313a20746f6b656e20616c7265616479206d696e7465640000000081525060200191505060405180910390fd5b612a2c600083836130db565b612a7d81600260008573ffffffffffffffffffffffffffffffffffffffff1673ffffffffffffffffffffffffffffffffffffffff16815260200190815260200160002061310590919063ffffffff16565b50612a948183600361311f9092919063ffffffff16565b50808273ffffffffffffffffffffffffffffffffffffffff16600073ffffffffffffffffffffffffffffffffffffffff167fddf252ad1be2c89b69c2b068fc378daa952ba7f163c4a11628f55a4df523b3ef60405160405180910390a45050565b6001816000016000828254019250508190555050565b612b1361420d565b612b1b61420d565b612b3285858584613207909392919063ffffffff16565b9150509392505050565b612b538284608001516132b790919063ffffffff16565b612b6a8184608001516132b790919063ffffffff16565b505050565b612b868284608001516132b790919063ffffffff16565b612b9d8184608001516132dc90919063ffffffff16565b505050565b6000612bad826117cf565b9050612bbb816000846130db565b612bc66000836122c3565b60006009600084815260200190815260200160002080546001816001161561010002031660029004905014612c1557600960008381526020019081526020016000206000612c14919061427a565b5b612c6682600260008473ffffffffffffffffffffffffffffffffffffffff1673ffffffffffffffffffffffffffffffffffffffff1681526020019081526020016000206130eb90919063ffffffff16565b50612c7b82600361338090919063ffffffff16565b5081600073ffffffffffffffffffffffffffffffffffffffff168273ffffffffffffffffffffffffffffffffffffffff167fddf252ad1be2c89b69c2b068fc378daa952ba7f163c4a11628f55a4df523b3ef60405160405180910390a45050565b600080600080612cef866000018661339a565b915091508160001c8160001c9350935050509250929050565b6000612d1b846000018460001b84613433565b60001c90509392505050565b6000612d3582600001613529565b9050919050565b612d446117b8565b15612db7576040517f08c379a00000000000000000000000000000000000000000000000000000000081526004018080602001828103825260108152602001807f5061757361626c653a207061757365640000000000000000000000000000000081525060200191505060405180910390fd5b6001600b60006101000a81548160ff0219169083151502179055507f62e78cea01bee320cd4e420270b5ea74000d11b0c9f74754ebdbfc544b05a258612dfb6122bb565b604051808273ffffffffffffffffffffffffffffffffffffffff16815260200191505060405180910390a1565b6000612e378360000183613154565b60001c905092915050565b6000612e6a836000018373ffffffffffffffffffffffffffffffffffffffff1660001b61353a565b905092915050565b612e7d848484612485565b612e898484848461355d565b612ede576040517f08c379a00000000000000000000000000000000000000000000000000000000081526004018080602001828103825260328152602001806143766032913960400191505060405180910390fd5b50505050565b60606000821415612f2c576040518060400160405280600181526020017f30000000000000000000000000000000000000000000000000000000000000008152509050613026565b600082905060005b60008214612f56578080600101915050600a8281612f4e57fe5b049150612f34565b60608167ffffffffffffffff81118015612f6f57600080fd5b506040519080825280601f01601f191660200182016040528015612fa25781602001600182028036833780820191505090505b50905060006001830390508593505b6000841461301e57600a8481612fc357fe5b0660300160f81b82828060019003935081518110612fdd57fe5b60200101907effffffffffffffffffffffffffffffffffffffffffffffffffffffffffffff1916908160001a905350600a848161301657fe5b049350612fb1565b819450505050505b919050565b600061303982600001613529565b9050919050565b600061304c838361353a565b6130a55782600001829080600181540180825580915050600190039060005260206000200160009091909190915055826000018054905083600101600084815260200190815260200160002081905550600190506130aa565b600090505b92915050565b60006130c2836000018360001b613776565b905092915050565b600081600001805490509050919050565b6130e6838383613799565b505050565b60006130fd836000018360001b613807565b905092915050565b6000613117836000018360001b613040565b905092915050565b600061314b846000018460001b8473ffffffffffffffffffffffffffffffffffffffff1660001b6138ef565b90509392505050565b6000818360000180549050116131b5576040517f08c379a00000000000000000000000000000000000000000000000000000000081526004018080602001828103825260228152602001806142fa6022913960400191505060405180910390fd5b8260000182815481106131c457fe5b9060005260206000200154905092915050565b60006131ff836000018373ffffffffffffffffffffffffffffffffffffffff1660001b613807565b905092915050565b61320f61420d565b61321f85608001516101006139cb565b508385600001818152505082856020019073ffffffffffffffffffffffffffffffffffffffff16908173ffffffffffffffffffffffffffffffffffffffff16815250508185604001907bffffffffffffffffffffffffffffffffffffffffffffffffffffffff191690817bffffffffffffffffffffffffffffffffffffffffffffffffffffffff191681525050849050949350505050565b6132c48260038351613a1f565b6132d78183613b6490919063ffffffff16565b505050565b7fffffffffffffffffffffffffffffffffffffffffffffffff00000000000000008112156133135761330e8282613b86565b61337c565b67ffffffffffffffff8113156133325761332d8282613bf4565b61337b565b6000811261334b5761334682600083613a1f565b61337a565b613379826001837fffffffffffffffffffffffffffffffffffffffffffffffffffffffffffffffff03613a1f565b5b5b5b5050565b6000613392836000018360001b613c40565b905092915050565b600080828460000180549050116133fc576040517f08c379a00000000000000000000000000000000000000000000000000000000081526004018080602001828103825260228152602001806145556022913960400191505060405180910390fd5b600084600001848154811061340d57fe5b906000526020600020906002020190508060000154816001015492509250509250929050565b600080846001016000858152602001908152602001600020549050600081141583906134fa576040517f08c379a00000000000000000000000000000000000000000000000000000000081526004018080602001828103825283818151815260200191508051906020019080838360005b838110156134bf5780820151818401526020810190506134a4565b50505050905090810190601f1680156134ec5780820380516001836020036101000a031916815260200191505b509250505060405180910390fd5b5084600001600182038154811061350d57fe5b9060005260206000209060020201600101549150509392505050565b600081600001805490509050919050565b600080836001016000848152602001908152602001600020541415905092915050565b600061357e8473ffffffffffffffffffffffffffffffffffffffff16613d59565b61358b576001905061376e565b60606136f563150b7a0260e01b6135a06122bb565b888787604051602401808573ffffffffffffffffffffffffffffffffffffffff1681526020018473ffffffffffffffffffffffffffffffffffffffff16815260200183815260200180602001828103825283818151815260200191508051906020019080838360005b83811015613624578082015181840152602081019050613609565b50505050905090810190601f1680156136515780820380516001836020036101000a031916815260200191505b5095505050505050604051602081830303815290604052907bffffffffffffffffffffffffffffffffffffffffffffffffffffffff19166020820180517bffffffffffffffffffffffffffffffffffffffffffffffffffffffff8381831617835250505050604051806060016040528060328152602001614376603291398773ffffffffffffffffffffffffffffffffffffffff16613d6c9092919063ffffffff16565b9050600081806020019051602081101561370e57600080fd5b8101908080519060200190929190505050905063150b7a0260e01b7bffffffffffffffffffffffffffffffffffffffffffffffffffffffff1916817bffffffffffffffffffffffffffffffffffffffffffffffffffffffff191614925050505b949350505050565b600080836001016000848152602001908152602001600020541415905092915050565b6137a4838383613d84565b6137ac6117b8565b15613802576040517f08c379a000000000000000000000000000000000000000000000000000000000815260040180806020018281038252602b81526020018061431c602b913960400191505060405180910390fd5b505050565b600080836001016000848152602001908152602001600020549050600081146138e3576000600182039050600060018660000180549050039050600086600001828154811061385257fe5b906000526020600020015490508087600001848154811061386f57fe5b90600052602060002001819055506001830187600101600083815260200190815260200160002081905550866000018054806138a757fe5b600190038181906000526020600020016000905590558660010160008781526020019081526020016000206000905560019450505050506138e9565b60009150505b92915050565b6000808460010160008581526020019081526020016000205490506000811415613996578460000160405180604001604052808681526020018581525090806001815401808255809150506001900390600052602060002090600202016000909190919091506000820151816000015560208201518160010155505084600001805490508560010160008681526020019081526020016000208190555060019150506139c4565b828560000160018303815481106139a957fe5b90600052602060002090600202016001018190555060009150505b9392505050565b6139d36142c2565b6000602083816139df57fe5b06146139f857602082816139ef57fe5b06602003820191505b81836020018181525050604051808452600081528281016020016040525082905092915050565b60178111613a4c57613a468160058460ff16901b60ff161784613d8990919063ffffffff16565b50613b5f565b60ff8111613a8e57613a71601860058460ff16901b1784613d8990919063ffffffff16565b50613a8881600185613da99092919063ffffffff16565b50613b5e565b61ffff8111613ad157613ab4601960058460ff16901b1784613d8990919063ffffffff16565b50613acb81600285613da99092919063ffffffff16565b50613b5d565b63ffffffff8111613b1657613af9601a60058460ff16901b1784613d8990919063ffffffff16565b50613b1081600485613da99092919063ffffffff16565b50613b5c565b67ffffffffffffffff8111613b5b57613b42601b60058460ff16901b1784613d8990919063ffffffff16565b50613b5981600885613da99092919063ffffffff16565b505b5b5b5b5b505050565b613b6c6142c2565b613b7e83846000015151848551613dcb565b905092915050565b613ba460036005600660ff16901b1783613d8990919063ffffffff16565b50613bf082827fffffffffffffffffffffffffffffffffffffffffffffffffffffffffffffffff0360405160200180828152602001915050604051602081830303815290604052613e84565b5050565b613c1260026005600660ff16901b1783613d8990919063ffffffff16565b50613c3c828260405160200180828152602001915050604051602081830303815290604052613e84565b5050565b60008083600101600084815260200190815260200160002054905060008114613d4d5760006001820390506000600186600001805490500390506000866000018281548110613c8b57fe5b9060005260206000209060020201905080876000018481548110613cab57fe5b9060005260206000209060020201600082015481600001556001820154816001015590505060018301876001016000836000015481526020019081526020016000208190555086600001805480613cfe57fe5b6001900381819060005260206000209060020201600080820160009055600182016000905550509055866001016000878152602001908152602001600020600090556001945050505050613d53565b60009150505b92915050565b600080823b905060008111915050919050565b6060613d7b8484600085613ea9565b90509392505050565b505050565b613d916142c2565b613da18384600001515184614052565b905092915050565b613db16142c2565b613dc28485600001515185856140a0565b90509392505050565b613dd36142c2565b8251821115613de157600080fd5b84602001518285011115613e0c57613e0b856002613e058860200151888701614101565b0261411d565b5b600080865180518760208301019350808887011115613e2b5787860182525b60208701925050505b60208410613e575780518252602082019150602081019050602084039350613e34565b60006001856020036101000a03905080198251168184511681811785525050879350505050949350505050565b613e918260028351613a1f565b613ea48183613b6490919063ffffffff16565b505050565b606082471015613f04576040517f08c379a000000000000000000000000000000000000000000000000000000000815260040180806020018281038252602681526020018061440a6026913960400191505060405180910390fd5b613f0d85613d59565b613f7f576040517f08c379a000000000000000000000000000000000000000000000000000000000815260040180806020018281038252601d8152602001807f416464726573733a2063616c6c20746f206e6f6e2d636f6e747261637400000081525060200191505060405180910390fd5b600060608673ffffffffffffffffffffffffffffffffffffffff1685876040518082805190602001908083835b60208310613fcf5780518252602082019150602081019050602083039250613fac565b6001836020036101000a03801982511681845116808217855250505050505090500191505060006040518083038185875af1925050503d8060008114614031576040519150601f19603f3d011682016040523d82523d6000602084013e614036565b606091505b5091509150614046828286614141565b92505050949350505050565b61405a6142c2565b836020015183106140775761407684600286602001510261411d565b5b8351805160208583010184815381861415614093576001820183525b5050508390509392505050565b6140a86142c2565b846020015184830111156140c6576140c58560028685010261411d565b5b60006001836101000a03905085518386820101858319825116178152815185880111156140f35784870182525b505085915050949350505050565b60008183111561411357829050614117565b8190505b92915050565b60608260000151905061413083836139cb565b5061413b8382613b64565b50505050565b6060831561415157829050614206565b6000835111156141645782518084602001fd5b816040517f08c379a00000000000000000000000000000000000000000000000000000000081526004018080602001828103825283818151815260200191508051906020019080838360005b838110156141cb5780820151818401526020810190506141b0565b50505050905090810190601f1680156141f85780820380516001836020036101000a031916815260200191505b509250505060405180910390fd5b9392505050565b6040518060a0016040528060008019168152602001600073ffffffffffffffffffffffffffffffffffffffff16815260200160007bffffffffffffffffffffffffffffffffffffffffffffffffffffffff19168152602001600081526020016142746142c2565b81525090565b50805460018160011615610100020316600290046000825580601f106142a057506142bf565b601f0160209004906000526020600020908101906142be91906142dc565b5b50565b604051806040016040528060608152602001600081525090565b5b808211156142f55760008160009055506001016142dd565b509056fe456e756d657261626c655365743a20696e646578206f7574206f6620626f756e64734552433732315061757361626c653a20746f6b656e207472616e73666572207768696c6520706175736564416363657373436f6e74726f6c3a2073656e646572206d75737420626520616e2061646d696e20746f206772616e744552433732313a207472616e7366657220746f206e6f6e20455243373231526563656976657220696d706c656d656e7465724552433732315072657365744d696e7465725061757365724175746f49643a206d75737420686176652070617573657220726f6c6520746f2070617573654552433732313a207472616e7366657220746f20746865207a65726f2061646472657373416464726573733a20696e73756666696369656e742062616c616e636520666f722063616c6c4552433732313a206f70657261746f7220717565727920666f72206e6f6e6578697374656e7420746f6b656e416363657373436f6e74726f6c3a2073656e646572206d75737420626520616e2061646d696e20746f207265766f6b654552433732313a20617070726f76652063616c6c6572206973206e6f74206f776e6572206e6f7220617070726f76656420666f7220616c6c4552433732313a2062616c616e636520717565727920666f7220746865207a65726f206164647265737368747470733a2f2f63727970746f2d706c616e74732d6d657461646174612d6261636b656e642e6865726f6b756170702e636f6d2f6e6577706c616e742f4552433732313a206f776e657220717565727920666f72206e6f6e6578697374656e7420746f6b656e456e756d657261626c654d61703a20696e646578206f7574206f6620626f756e64734552433732313a20617070726f76656420717565727920666f72206e6f6e6578697374656e7420746f6b656e4552433732313a207472616e73666572206f6620746f6b656e2074686174206973206e6f74206f776e4552433732314d657461646174613a2055524920717565727920666f72206e6f6e6578697374656e7420746f6b656e4552433732313a20617070726f76616c20746f2063757272656e74206f776e65724552433732313a207472616e736665722063616c6c6572206973206e6f74206f776e6572206e6f7220617070726f766564536f75726365206d75737420626520746865206f7261636c65206f662074686520726571756573744552433732315072657365744d696e7465725061757365724175746f49643a206d7573742068617665206d696e74657220726f6c6520746f206d696e744552433732314275726e61626c653a2063616c6c6572206973206e6f74206f776e6572206e6f7220617070726f7665644552433732315072657365744d696e7465725061757365724175746f49643a206d75737420686176652070617573657220726f6c6520746f20756e7061757365416363657373436f6e74726f6c3a2063616e206f6e6c792072656e6f756e636520726f6c657320666f722073656c66a26469706673582212202dbad95c937004ec0e4083f2fac40e6a30e8747d2bc88ab4cd0f1d1120d36c5e64736f6c634300060c003368747470733a2f2f63727970746f2d706c616e74732d6d657461646174612d6261636b656e642e6865726f6b756170702e636f6d2f706c616e742f",
  "immutableReferences": {},
  "source": "// SPDX-License-Identifier: MIT\npragma solidity ^0.6;\n\nimport \"../client/node_modules/@openzeppelin/contracts/utils/Counters.sol\";\nimport \"../client/node_modules/@openzeppelin/contracts/presets/ERC721PresetMinterPauserAutoId.sol\";\nimport \"../client/node_modules/@chainlink/contracts/src/v0.6/ChainlinkClient.sol\";\nimport \"../client/node_modules/@chainlink/contracts/src/v0.6/Chainlink.sol\";\n\ncontract CryptoPlant is ERC721PresetMinterPauserAutoId, ChainlinkClient {\n    using Counters for Counters.Counter;\n    Counters.Counter private _tokenIdTracker;\n    address payable public orgAddress;\n\n    address private oracle;\n    bytes32 private jobId;\n    uint256 private fee;\n\n    constructor()\n        public\n        ERC721PresetMinterPauserAutoId(\n            \"CryptoPlant\",\n            \"CPT\",\n            \"https://crypto-plants-metadata-backend.herokuapp.com/plant/\"\n        )\n    {\n        orgAddress = 0x42F323c617c0a6d18547B8a2AaF8BcD1Abe617c9;\n\n        //chainlink\n        oracle = 0x2f90A6D021db21e1B2A077c5a37B3C7E75D15b7e;\n        jobId = \"29fa9aa13bf1468788b7cc4a500a45b8\";\n        fee = 0.1 * 10**18; // 0.1 LINK\n    }\n\n    receive() external payable {}\n\n    // function purchaseSeed() public payable returns (bytes32 requestId) {\n    function purchaseSeed() public payable {\n        require(msg.value == 0.00001 ether);\n        orgAddress.transfer(0.0000095 ether); // 5% comission\n\n        // Mint token\n        _mint(msg.sender, _tokenIdTracker.current());\n        _tokenIdTracker.increment();\n\n        // API call to create metadata using Chainlink\n        Chainlink.Request memory request =\n            buildChainlinkRequest(jobId, address(this), this.fulfill.selector);\n\n        request.add(\n            \"get\",\n            \"https://crypto-plants-metadata-backend.herokuapp.com/newplant/\"\n        );\n        int256 timesAmount = 10**18;\n        request.addInt(\"times\", timesAmount);\n\n        // return sendChainlinkRequestTo(oracle, request, fee);\n    }\n\n    function fulfill(bytes32 _requestId, uint256 _volume)\n        public\n        recordChainlinkFulfillment(_requestId)\n    {\n    }\n}\n",
  "sourcePath": "/Users/hp/Documents/denver-hack/crypto-plants/contracts/CryptoPlant.sol",
  "compiler": {
    "name": "solc",
    "version": "0.6.12+commit.27d51765.Emscripten.clang"
  },
  "schemaVersion": "3.3.3",
  "updatedAt": "2021-02-19T11:51:55.206Z",
  "networkType": "ethereum",
  "devdoc": {
    "kind": "dev",
    "methods": {
      "approve(address,uint256)": {
        "details": "See {IERC721-approve}."
      },
      "balanceOf(address)": {
        "details": "See {IERC721-balanceOf}."
      },
      "baseURI()": {
        "details": "Returns the base URI set via {_setBaseURI}. This will be automatically added as a prefix in {tokenURI} to each token's URI, or to the token ID if no specific URI is set for that token ID."
      },
      "burn(uint256)": {
        "details": "Burns `tokenId`. See {ERC721-_burn}. Requirements: - The caller must own `tokenId` or be an approved operator."
      },
      "getApproved(uint256)": {
        "details": "See {IERC721-getApproved}."
      },
      "getRoleAdmin(bytes32)": {
        "details": "Returns the admin role that controls `role`. See {grantRole} and {revokeRole}. To change a role's admin, use {_setRoleAdmin}."
      },
      "getRoleMember(bytes32,uint256)": {
        "details": "Returns one of the accounts that have `role`. `index` must be a value between 0 and {getRoleMemberCount}, non-inclusive. Role bearers are not sorted in any particular way, and their ordering may change at any point. WARNING: When using {getRoleMember} and {getRoleMemberCount}, make sure you perform all queries on the same block. See the following https://forum.openzeppelin.com/t/iterating-over-elements-on-enumerableset-in-openzeppelin-contracts/2296[forum post] for more information."
      },
      "getRoleMemberCount(bytes32)": {
        "details": "Returns the number of accounts that have `role`. Can be used together with {getRoleMember} to enumerate all bearers of a role."
      },
      "grantRole(bytes32,address)": {
        "details": "Grants `role` to `account`. If `account` had not been already granted `role`, emits a {RoleGranted} event. Requirements: - the caller must have ``role``'s admin role."
      },
      "hasRole(bytes32,address)": {
        "details": "Returns `true` if `account` has been granted `role`."
      },
      "isApprovedForAll(address,address)": {
        "details": "See {IERC721-isApprovedForAll}."
      },
      "mint(address)": {
        "details": "Creates a new token for `to`. Its token ID will be automatically assigned (and available on the emitted {IERC721-Transfer} event), and the token URI autogenerated based on the base URI passed at construction. See {ERC721-_mint}. Requirements: - the caller must have the `MINTER_ROLE`."
      },
      "name()": {
        "details": "See {IERC721Metadata-name}."
      },
      "ownerOf(uint256)": {
        "details": "See {IERC721-ownerOf}."
      },
      "pause()": {
        "details": "Pauses all token transfers. See {ERC721Pausable} and {Pausable-_pause}. Requirements: - the caller must have the `PAUSER_ROLE`."
      },
      "paused()": {
        "details": "Returns true if the contract is paused, and false otherwise."
      },
      "renounceRole(bytes32,address)": {
        "details": "Revokes `role` from the calling account. Roles are often managed via {grantRole} and {revokeRole}: this function's purpose is to provide a mechanism for accounts to lose their privileges if they are compromised (such as when a trusted device is misplaced). If the calling account had been granted `role`, emits a {RoleRevoked} event. Requirements: - the caller must be `account`."
      },
      "revokeRole(bytes32,address)": {
        "details": "Revokes `role` from `account`. If `account` had been granted `role`, emits a {RoleRevoked} event. Requirements: - the caller must have ``role``'s admin role."
      },
      "safeTransferFrom(address,address,uint256)": {
        "details": "See {IERC721-safeTransferFrom}."
      },
      "safeTransferFrom(address,address,uint256,bytes)": {
        "details": "See {IERC721-safeTransferFrom}."
      },
      "setApprovalForAll(address,bool)": {
        "details": "See {IERC721-setApprovalForAll}."
      },
      "supportsInterface(bytes4)": {
        "details": "See {IERC165-supportsInterface}. Time complexity O(1), guaranteed to always use less than 30 000 gas."
      },
      "symbol()": {
        "details": "See {IERC721Metadata-symbol}."
      },
      "tokenByIndex(uint256)": {
        "details": "See {IERC721Enumerable-tokenByIndex}."
      },
      "tokenOfOwnerByIndex(address,uint256)": {
        "details": "See {IERC721Enumerable-tokenOfOwnerByIndex}."
      },
      "tokenURI(uint256)": {
        "details": "See {IERC721Metadata-tokenURI}."
      },
      "totalSupply()": {
        "details": "See {IERC721Enumerable-totalSupply}."
      },
      "transferFrom(address,address,uint256)": {
        "details": "See {IERC721-transferFrom}."
      },
      "unpause()": {
        "details": "Unpauses all token transfers. See {ERC721Pausable} and {Pausable-_unpause}. Requirements: - the caller must have the `PAUSER_ROLE`."
      }
    },
    "version": 1
  },
  "userdoc": {
    "kind": "user",
    "methods": {},
    "version": 1
  }
}